{
	"contracts/FaisaaToken.sol": {
		"Faisaa": {
			"abi": [
				{
					"inputs": [
						{
							"internalType": "address",
							"name": "account",
							"type": "address"
						},
						{
							"internalType": "address",
							"name": "minter_",
							"type": "address"
						},
						{
							"internalType": "uint256",
							"name": "mintingAllowedAfter_",
							"type": "uint256"
						}
					],
					"payable": false,
					"stateMutability": "nonpayable",
					"type": "constructor"
				},
				{
					"anonymous": false,
					"inputs": [
						{
							"indexed": true,
							"internalType": "address",
							"name": "owner",
							"type": "address"
						},
						{
							"indexed": true,
							"internalType": "address",
							"name": "spender",
							"type": "address"
						},
						{
							"indexed": false,
							"internalType": "uint256",
							"name": "amount",
							"type": "uint256"
						}
					],
					"name": "Approval",
					"type": "event"
				},
				{
					"anonymous": false,
					"inputs": [
						{
							"indexed": true,
							"internalType": "address",
							"name": "delegator",
							"type": "address"
						},
						{
							"indexed": true,
							"internalType": "address",
							"name": "fromDelegate",
							"type": "address"
						},
						{
							"indexed": true,
							"internalType": "address",
							"name": "toDelegate",
							"type": "address"
						}
					],
					"name": "DelegateChanged",
					"type": "event"
				},
				{
					"anonymous": false,
					"inputs": [
						{
							"indexed": true,
							"internalType": "address",
							"name": "delegate",
							"type": "address"
						},
						{
							"indexed": false,
							"internalType": "uint256",
							"name": "previousBalance",
							"type": "uint256"
						},
						{
							"indexed": false,
							"internalType": "uint256",
							"name": "newBalance",
							"type": "uint256"
						}
					],
					"name": "DelegateVotesChanged",
					"type": "event"
				},
				{
					"anonymous": false,
					"inputs": [
						{
							"indexed": false,
							"internalType": "address",
							"name": "minter",
							"type": "address"
						},
						{
							"indexed": false,
							"internalType": "address",
							"name": "newMinter",
							"type": "address"
						}
					],
					"name": "MinterChanged",
					"type": "event"
				},
				{
					"anonymous": false,
					"inputs": [
						{
							"indexed": true,
							"internalType": "address",
							"name": "from",
							"type": "address"
						},
						{
							"indexed": true,
							"internalType": "address",
							"name": "to",
							"type": "address"
						},
						{
							"indexed": false,
							"internalType": "uint256",
							"name": "amount",
							"type": "uint256"
						}
					],
					"name": "Transfer",
					"type": "event"
				},
				{
					"constant": true,
					"inputs": [],
					"name": "DELEGATION_TYPEHASH",
					"outputs": [
						{
							"internalType": "bytes32",
							"name": "",
							"type": "bytes32"
						}
					],
					"payable": false,
					"stateMutability": "view",
					"type": "function"
				},
				{
					"constant": true,
					"inputs": [],
					"name": "DOMAIN_TYPEHASH",
					"outputs": [
						{
							"internalType": "bytes32",
							"name": "",
							"type": "bytes32"
						}
					],
					"payable": false,
					"stateMutability": "view",
					"type": "function"
				},
				{
					"constant": true,
					"inputs": [],
					"name": "PERMIT_TYPEHASH",
					"outputs": [
						{
							"internalType": "bytes32",
							"name": "",
							"type": "bytes32"
						}
					],
					"payable": false,
					"stateMutability": "view",
					"type": "function"
				},
				{
					"constant": true,
					"inputs": [
						{
							"internalType": "address",
							"name": "account",
							"type": "address"
						},
						{
							"internalType": "address",
							"name": "spender",
							"type": "address"
						}
					],
					"name": "allowance",
					"outputs": [
						{
							"internalType": "uint256",
							"name": "",
							"type": "uint256"
						}
					],
					"payable": false,
					"stateMutability": "view",
					"type": "function"
				},
				{
					"constant": false,
					"inputs": [
						{
							"internalType": "address",
							"name": "spender",
							"type": "address"
						},
						{
							"internalType": "uint256",
							"name": "rawAmount",
							"type": "uint256"
						}
					],
					"name": "approve",
					"outputs": [
						{
							"internalType": "bool",
							"name": "",
							"type": "bool"
						}
					],
					"payable": false,
					"stateMutability": "nonpayable",
					"type": "function"
				},
				{
					"constant": true,
					"inputs": [
						{
							"internalType": "address",
							"name": "account",
							"type": "address"
						}
					],
					"name": "balanceOf",
					"outputs": [
						{
							"internalType": "uint256",
							"name": "",
							"type": "uint256"
						}
					],
					"payable": false,
					"stateMutability": "view",
					"type": "function"
				},
				{
					"constant": true,
					"inputs": [
						{
							"internalType": "address",
							"name": "",
							"type": "address"
						},
						{
							"internalType": "uint32",
							"name": "",
							"type": "uint32"
						}
					],
					"name": "checkpoints",
					"outputs": [
						{
							"internalType": "uint32",
							"name": "fromBlock",
							"type": "uint32"
						},
						{
							"internalType": "uint96",
							"name": "votes",
							"type": "uint96"
						}
					],
					"payable": false,
					"stateMutability": "view",
					"type": "function"
				},
				{
					"constant": true,
					"inputs": [],
					"name": "decimals",
					"outputs": [
						{
							"internalType": "uint8",
							"name": "",
							"type": "uint8"
						}
					],
					"payable": false,
					"stateMutability": "view",
					"type": "function"
				},
				{
					"constant": false,
					"inputs": [
						{
							"internalType": "address",
							"name": "delegatee",
							"type": "address"
						}
					],
					"name": "delegate",
					"outputs": [],
					"payable": false,
					"stateMutability": "nonpayable",
					"type": "function"
				},
				{
					"constant": false,
					"inputs": [
						{
							"internalType": "address",
							"name": "delegatee",
							"type": "address"
						},
						{
							"internalType": "uint256",
							"name": "nonce",
							"type": "uint256"
						},
						{
							"internalType": "uint256",
							"name": "expiry",
							"type": "uint256"
						},
						{
							"internalType": "uint8",
							"name": "v",
							"type": "uint8"
						},
						{
							"internalType": "bytes32",
							"name": "r",
							"type": "bytes32"
						},
						{
							"internalType": "bytes32",
							"name": "s",
							"type": "bytes32"
						}
					],
					"name": "delegateBySig",
					"outputs": [],
					"payable": false,
					"stateMutability": "nonpayable",
					"type": "function"
				},
				{
					"constant": true,
					"inputs": [
						{
							"internalType": "address",
							"name": "",
							"type": "address"
						}
					],
					"name": "delegates",
					"outputs": [
						{
							"internalType": "address",
							"name": "",
							"type": "address"
						}
					],
					"payable": false,
					"stateMutability": "view",
					"type": "function"
				},
				{
					"constant": true,
					"inputs": [
						{
							"internalType": "address",
							"name": "account",
							"type": "address"
						}
					],
					"name": "getCurrentVotes",
					"outputs": [
						{
							"internalType": "uint96",
							"name": "",
							"type": "uint96"
						}
					],
					"payable": false,
					"stateMutability": "view",
					"type": "function"
				},
				{
					"constant": true,
					"inputs": [
						{
							"internalType": "address",
							"name": "account",
							"type": "address"
						},
						{
							"internalType": "uint256",
							"name": "blockNumber",
							"type": "uint256"
						}
					],
					"name": "getPriorVotes",
					"outputs": [
						{
							"internalType": "uint96",
							"name": "",
							"type": "uint96"
						}
					],
					"payable": false,
					"stateMutability": "view",
					"type": "function"
				},
				{
					"constant": true,
					"inputs": [],
					"name": "minimumTimeBetweenMints",
					"outputs": [
						{
							"internalType": "uint32",
							"name": "",
							"type": "uint32"
						}
					],
					"payable": false,
					"stateMutability": "view",
					"type": "function"
				},
				{
					"constant": false,
					"inputs": [
						{
							"internalType": "address",
							"name": "dst",
							"type": "address"
						},
						{
							"internalType": "uint256",
							"name": "rawAmount",
							"type": "uint256"
						}
					],
					"name": "mint",
					"outputs": [],
					"payable": false,
					"stateMutability": "nonpayable",
					"type": "function"
				},
				{
					"constant": true,
					"inputs": [],
					"name": "mintCap",
					"outputs": [
						{
							"internalType": "uint8",
							"name": "",
							"type": "uint8"
						}
					],
					"payable": false,
					"stateMutability": "view",
					"type": "function"
				},
				{
					"constant": true,
					"inputs": [],
					"name": "minter",
					"outputs": [
						{
							"internalType": "address",
							"name": "",
							"type": "address"
						}
					],
					"payable": false,
					"stateMutability": "view",
					"type": "function"
				},
				{
					"constant": true,
					"inputs": [],
					"name": "mintingAllowedAfter",
					"outputs": [
						{
							"internalType": "uint256",
							"name": "",
							"type": "uint256"
						}
					],
					"payable": false,
					"stateMutability": "view",
					"type": "function"
				},
				{
					"constant": true,
					"inputs": [],
					"name": "name",
					"outputs": [
						{
							"internalType": "string",
							"name": "",
							"type": "string"
						}
					],
					"payable": false,
					"stateMutability": "view",
					"type": "function"
				},
				{
					"constant": true,
					"inputs": [
						{
							"internalType": "address",
							"name": "",
							"type": "address"
						}
					],
					"name": "nonces",
					"outputs": [
						{
							"internalType": "uint256",
							"name": "",
							"type": "uint256"
						}
					],
					"payable": false,
					"stateMutability": "view",
					"type": "function"
				},
				{
					"constant": true,
					"inputs": [
						{
							"internalType": "address",
							"name": "",
							"type": "address"
						}
					],
					"name": "numCheckpoints",
					"outputs": [
						{
							"internalType": "uint32",
							"name": "",
							"type": "uint32"
						}
					],
					"payable": false,
					"stateMutability": "view",
					"type": "function"
				},
				{
					"constant": false,
					"inputs": [
						{
							"internalType": "address",
							"name": "owner",
							"type": "address"
						},
						{
							"internalType": "address",
							"name": "spender",
							"type": "address"
						},
						{
							"internalType": "uint256",
							"name": "rawAmount",
							"type": "uint256"
						},
						{
							"internalType": "uint256",
							"name": "deadline",
							"type": "uint256"
						},
						{
							"internalType": "uint8",
							"name": "v",
							"type": "uint8"
						},
						{
							"internalType": "bytes32",
							"name": "r",
							"type": "bytes32"
						},
						{
							"internalType": "bytes32",
							"name": "s",
							"type": "bytes32"
						}
					],
					"name": "permit",
					"outputs": [],
					"payable": false,
					"stateMutability": "nonpayable",
					"type": "function"
				},
				{
					"constant": false,
					"inputs": [
						{
							"internalType": "address",
							"name": "minter_",
							"type": "address"
						}
					],
					"name": "setMinter",
					"outputs": [],
					"payable": false,
					"stateMutability": "nonpayable",
					"type": "function"
				},
				{
					"constant": true,
					"inputs": [],
					"name": "symbol",
					"outputs": [
						{
							"internalType": "string",
							"name": "",
							"type": "string"
						}
					],
					"payable": false,
					"stateMutability": "view",
					"type": "function"
				},
				{
					"constant": true,
					"inputs": [],
					"name": "totalSupply",
					"outputs": [
						{
							"internalType": "uint256",
							"name": "",
							"type": "uint256"
						}
					],
					"payable": false,
					"stateMutability": "view",
					"type": "function"
				},
				{
					"constant": false,
					"inputs": [
						{
							"internalType": "address",
							"name": "dst",
							"type": "address"
						},
						{
							"internalType": "uint256",
							"name": "rawAmount",
							"type": "uint256"
						}
					],
					"name": "transfer",
					"outputs": [
						{
							"internalType": "bool",
							"name": "",
							"type": "bool"
						}
					],
					"payable": false,
					"stateMutability": "nonpayable",
					"type": "function"
				},
				{
					"constant": false,
					"inputs": [
						{
							"internalType": "address",
							"name": "src",
							"type": "address"
						},
						{
							"internalType": "address",
							"name": "dst",
							"type": "address"
						},
						{
							"internalType": "uint256",
							"name": "rawAmount",
							"type": "uint256"
						}
					],
					"name": "transferFrom",
					"outputs": [
						{
							"internalType": "bool",
							"name": "",
							"type": "bool"
						}
					],
					"payable": false,
					"stateMutability": "nonpayable",
					"type": "function"
				}
			],
			"devdoc": {
				"methods": {
					"allowance(address,address)": {
						"params": {
							"account": "The address of the account holding the funds",
							"spender": "The address of the account spending the funds"
						},
						"return": "The number of tokens approved"
					},
					"approve(address,uint256)": {
						"details": "This will overwrite the approval amount for `spender` and is subject to issues noted [here](https://eips.ethereum.org/EIPS/eip-20#approve)",
						"params": {
							"rawAmount": "The number of tokens that are approved (2^256-1 means infinite)",
							"spender": "The address of the account which may transfer tokens"
						},
						"return": "Whether or not the approval succeeded"
					},
					"balanceOf(address)": {
						"params": {
							"account": "The address of the account to get the balance of"
						},
						"return": "The number of tokens held"
					},
					"constructor": {
						"params": {
							"account": "The initial account to grant all the tokens",
							"minter_": "The account with minting ability",
							"mintingAllowedAfter_": "The timestamp after which minting may occur"
						}
					},
					"delegate(address)": {
						"params": {
							"delegatee": "The address to delegate votes to"
						}
					},
					"delegateBySig(address,uint256,uint256,uint8,bytes32,bytes32)": {
						"params": {
							"delegatee": "The address to delegate votes to",
							"expiry": "The time at which to expire the signature",
							"nonce": "The contract state required to match the signature",
							"r": "Half of the ECDSA signature pair",
							"s": "Half of the ECDSA signature pair",
							"v": "The recovery byte of the signature"
						}
					},
					"getCurrentVotes(address)": {
						"params": {
							"account": "The address to get votes balance"
						},
						"return": "The number of current votes for `account`"
					},
					"getPriorVotes(address,uint256)": {
						"details": "Block number must be a finalized block or else this function will revert to prevent misinformation.",
						"params": {
							"account": "The address of the account to check",
							"blockNumber": "The block number to get the vote balance at"
						},
						"return": "The number of votes the account had as of the given block"
					},
					"mint(address,uint256)": {
						"params": {
							"dst": "The address of the destination account",
							"rawAmount": "The number of tokens to be minted"
						}
					},
					"permit(address,address,uint256,uint256,uint8,bytes32,bytes32)": {
						"params": {
							"deadline": "The time at which to expire the signature",
							"owner": "The address to approve from",
							"r": "Half of the ECDSA signature pair",
							"rawAmount": "The number of tokens that are approved (2^256-1 means infinite)",
							"s": "Half of the ECDSA signature pair",
							"spender": "The address to be approved",
							"v": "The recovery byte of the signature"
						}
					},
					"setMinter(address)": {
						"params": {
							"minter_": "The address of the new minter"
						}
					},
					"transfer(address,uint256)": {
						"params": {
							"dst": "The address of the destination account",
							"rawAmount": "The number of tokens to transfer"
						},
						"return": "Whether or not the transfer succeeded"
					},
					"transferFrom(address,address,uint256)": {
						"params": {
							"dst": "The address of the destination account",
							"rawAmount": "The number of tokens to transfer",
							"src": "The address of the source account"
						},
						"return": "Whether or not the transfer succeeded"
					}
				}
			},
			"evm": {
				"assembly": "    /* \"contracts/FaisaaToken.sol\":99:17348  contract Faisaa {\r... */\n  mstore(0x40, 0x80)\n    /* \"contracts/FaisaaToken.sol\":499:513  100_000_000e18 */\n  0x52b7d2dcc80cd2e4000000\n    /* \"contracts/FaisaaToken.sol\":473:513  uint public totalSupply = 100_000_000e18 */\n  0x00\n  sstore\n    /* \"contracts/FaisaaToken.sol\":3568:4018  constructor(address account, address minter_, uint mintingAllowedAfter_) public {\r... */\n  callvalue\n    /* \"--CODEGEN--\":8:17   */\n  dup1\n    /* \"--CODEGEN--\":5:7   */\n  iszero\n  tag_1\n  jumpi\n    /* \"--CODEGEN--\":30:31   */\n  0x00\n    /* \"--CODEGEN--\":27:28   */\n  dup1\n    /* \"--CODEGEN--\":20:32   */\n  revert\n    /* \"--CODEGEN--\":5:7   */\ntag_1:\n    /* \"contracts/FaisaaToken.sol\":3568:4018  constructor(address account, address minter_, uint mintingAllowedAfter_) public {\r... */\n  pop\n  mload(0x40)\n  sub(codesize, bytecodeSize)\n  dup1\n  bytecodeSize\n  dup4\n  codecopy\n  dup2\n  dup2\n  add\n  0x40\n  mstore\n    /* \"--CODEGEN--\":13:15   */\n  0x60\n    /* \"--CODEGEN--\":8:11   */\n  dup2\n    /* \"--CODEGEN--\":5:16   */\n  lt\n    /* \"--CODEGEN--\":2:4   */\n  iszero\n  tag_2\n  jumpi\n    /* \"--CODEGEN--\":29:30   */\n  0x00\n    /* \"--CODEGEN--\":26:27   */\n  dup1\n    /* \"--CODEGEN--\":19:31   */\n  revert\n    /* \"--CODEGEN--\":2:4   */\ntag_2:\n  pop\n    /* \"contracts/FaisaaToken.sol\":3568:4018  constructor(address account, address minter_, uint mintingAllowedAfter_) public {\r... */\n  dup1\n  mload\n  0x20\n  dup3\n  add\n  mload\n  0x40\n  swap1\n  swap3\n  add\n  mload\n  swap1\n  swap2\n  swap1\n    /* \"contracts/FaisaaToken.sol\":3691:3706  block.timestamp */\n  timestamp\n    /* \"contracts/FaisaaToken.sol\":3667:3706  mintingAllowedAfter_ >= block.timestamp */\n  dup2\n  lt\n  iszero\n    /* \"contracts/FaisaaToken.sol\":3659:3771  require(mintingAllowedAfter_ >= block.timestamp, \"Faisaa::constructor: minting can only begin after deployment\") */\n  tag_5\n  jumpi\n  mload(0x40)\n  shl(0xe5, 0x461bcd)\n  dup2\n  mstore\n  0x04\n  add\n  dup1\n  dup1\n  0x20\n  add\n  dup3\n  dup2\n  sub\n  dup3\n  mstore\n  0x3c\n  dup2\n  mstore\n  0x20\n  add\n  dup1\n  data_1906b60f827988cd8840816d324d3ccfb646804467122c5fcf48b849b7cb54bb\n  0x3c\n  swap2\n  codecopy\n  0x40\n  add\n  swap2\n  pop\n  pop\n  mload(0x40)\n  dup1\n  swap2\n  sub\n  swap1\n  revert\ntag_5:\n    /* \"contracts/FaisaaToken.sol\":3811:3822  totalSupply */\n  0x00\n  dup1\n  sload\n  sub(shl(0xa0, 0x01), 0x01)\n    /* \"contracts/FaisaaToken.sol\":3784:3801  balances[account] */\n  dup6\n  and\n  dup1\n  dup4\n  mstore\n    /* \"contracts/FaisaaToken.sol\":3784:3792  balances */\n  0x04\n    /* \"contracts/FaisaaToken.sol\":3784:3801  balances[account] */\n  0x20\n  swap1\n  dup2\n  mstore\n  0x40\n  dup1\n  dup6\n  keccak256\n    /* \"contracts/FaisaaToken.sol\":3784:3823  balances[account] = uint96(totalSupply) */\n  dup1\n  sload\n  not(sub(shl(0x60, 0x01), 0x01))\n  and\n  sub(shl(0x60, 0x01), 0x01)\n  swap1\n  swap6\n  and\n  swap5\n  swap1\n  swap5\n  or\n  swap1\n  swap4\n  sstore\n    /* \"contracts/FaisaaToken.sol\":3869:3880  totalSupply */\n  dup4\n  sload\n    /* \"contracts/FaisaaToken.sol\":3839:3881  Transfer(address(0), account, totalSupply) */\n  dup4\n  mload\n  swap1\n  dup2\n  mstore\n  swap3\n  mload\n    /* \"contracts/FaisaaToken.sol\":3784:3801  balances[account] */\n  swap2\n  swap4\n    /* \"contracts/FaisaaToken.sol\":3811:3822  totalSupply */\n  swap3\n    /* \"contracts/FaisaaToken.sol\":3839:3881  Transfer(address(0), account, totalSupply) */\n  0xddf252ad1be2c89b69c2b068fc378daa952ba7f163c4a11628f55a4df523b3ef\n  swap3\n  swap1\n  dup2\n  swap1\n  sub\n  swap1\n  swap2\n  add\n  swap1\n  log3\n    /* \"contracts/FaisaaToken.sol\":3892:3898  minter */\n  0x01\n    /* \"contracts/FaisaaToken.sol\":3892:3908  minter = minter_ */\n  dup1\n  sload\n  not(sub(shl(0xa0, 0x01), 0x01))\n  and\n  sub(shl(0xa0, 0x01), 0x01)\n  dup5\n  dup2\n  and\n  swap2\n  swap1\n  swap2\n  or\n  swap2\n  dup3\n  swap1\n  sstore\n    /* \"contracts/FaisaaToken.sol\":3924:3957  MinterChanged(address(0), minter) */\n  0x40\n  dup1\n  mload\n  0x00\n  dup2\n  mstore\n    /* \"contracts/FaisaaToken.sol\":3950:3956  minter */\n  swap3\n  swap1\n  swap2\n  and\n    /* \"contracts/FaisaaToken.sol\":3924:3957  MinterChanged(address(0), minter) */\n  0x20\n  dup4\n  add\n  mstore\n  dup1\n  mload\n  0x3b0007eb941cf645526cbb3a4fdaecda9d28ce4843167d9263b536a1f1edc0f6\n  swap3\n  dup2\n  swap1\n  sub\n  swap1\n  swap2\n  add\n  swap1\n  log1\n    /* \"contracts/FaisaaToken.sol\":3968:3987  mintingAllowedAfter */\n  0x02\n    /* \"contracts/FaisaaToken.sol\":3968:4010  mintingAllowedAfter = mintingAllowedAfter_ */\n  sstore\n  pop\n  pop\n    /* \"contracts/FaisaaToken.sol\":99:17348  contract Faisaa {\r... */\n  dataSize(sub_0)\n  dup1\n  dataOffset(sub_0)\n  0x00\n  codecopy\n  0x00\n  return\nstop\ndata_1906b60f827988cd8840816d324d3ccfb646804467122c5fcf48b849b7cb54bb 4661697361613a3a636f6e7374727563746f723a206d696e74696e672063616e206f6e6c7920626567696e206166746572206465706c6f796d656e74\n\nsub_0: assembly {\n        /* \"contracts/FaisaaToken.sol\":99:17348  contract Faisaa {\r... */\n      mstore(0x40, 0x80)\n      callvalue\n        /* \"--CODEGEN--\":8:17   */\n      dup1\n        /* \"--CODEGEN--\":5:7   */\n      iszero\n      tag_1\n      jumpi\n        /* \"--CODEGEN--\":30:31   */\n      0x00\n        /* \"--CODEGEN--\":27:28   */\n      dup1\n        /* \"--CODEGEN--\":20:32   */\n      revert\n        /* \"--CODEGEN--\":5:7   */\n    tag_1:\n        /* \"contracts/FaisaaToken.sol\":99:17348  contract Faisaa {\r... */\n      pop\n      jumpi(tag_2, lt(calldatasize, 0x04))\n      shr(0xe0, calldataload(0x00))\n      dup1\n      0x6fcfff45\n      gt\n      tag_30\n      jumpi\n      dup1\n      0xb4b5ea57\n      gt\n      tag_31\n      jumpi\n      dup1\n      0xdd62ed3e\n      gt\n      tag_32\n      jumpi\n      dup1\n      0xdd62ed3e\n      eq\n      tag_26\n      jumpi\n      dup1\n      0xe7a324dc\n      eq\n      tag_27\n      jumpi\n      dup1\n      0xf1127ed8\n      eq\n      tag_28\n      jumpi\n      dup1\n      0xfca3b5aa\n      eq\n      tag_29\n      jumpi\n      jump(tag_2)\n    tag_32:\n      dup1\n      0xb4b5ea57\n      eq\n      tag_23\n      jumpi\n      dup1\n      0xc3cda520\n      eq\n      tag_24\n      jumpi\n      dup1\n      0xd505accf\n      eq\n      tag_25\n      jumpi\n      jump(tag_2)\n    tag_31:\n      dup1\n      0x782d6fe1\n      gt\n      tag_33\n      jumpi\n      dup1\n      0x782d6fe1\n      eq\n      tag_19\n      jumpi\n      dup1\n      0x7ecebe00\n      eq\n      tag_20\n      jumpi\n      dup1\n      0x95d89b41\n      eq\n      tag_21\n      jumpi\n      dup1\n      0xa9059cbb\n      eq\n      tag_22\n      jumpi\n      jump(tag_2)\n    tag_33:\n      dup1\n      0x6fcfff45\n      eq\n      tag_16\n      jumpi\n      dup1\n      0x70a08231\n      eq\n      tag_17\n      jumpi\n      dup1\n      0x76c71ca1\n      eq\n      tag_18\n      jumpi\n      jump(tag_2)\n    tag_30:\n      dup1\n      0x30adf81f\n      gt\n      tag_34\n      jumpi\n      dup1\n      0x40c10f19\n      gt\n      tag_35\n      jumpi\n      dup1\n      0x40c10f19\n      eq\n      tag_12\n      jumpi\n      dup1\n      0x587cde1e\n      eq\n      tag_13\n      jumpi\n      dup1\n      0x5c11d62f\n      eq\n      tag_14\n      jumpi\n      dup1\n      0x5c19a95c\n      eq\n      tag_15\n      jumpi\n      jump(tag_2)\n    tag_35:\n      dup1\n      0x30adf81f\n      eq\n      tag_9\n      jumpi\n      dup1\n      0x30b36cef\n      eq\n      tag_10\n      jumpi\n      dup1\n      0x313ce567\n      eq\n      tag_11\n      jumpi\n      jump(tag_2)\n    tag_34:\n      dup1\n      0x18160ddd\n      gt\n      tag_36\n      jumpi\n      dup1\n      0x18160ddd\n      eq\n      tag_6\n      jumpi\n      dup1\n      0x20606b70\n      eq\n      tag_7\n      jumpi\n      dup1\n      0x23b872dd\n      eq\n      tag_8\n      jumpi\n      jump(tag_2)\n    tag_36:\n      dup1\n      0x06fdde03\n      eq\n      tag_3\n      jumpi\n      dup1\n      0x07546172\n      eq\n      tag_4\n      jumpi\n      dup1\n      0x095ea7b3\n      eq\n      tag_5\n      jumpi\n    tag_2:\n      0x00\n      dup1\n      revert\n        /* \"contracts/FaisaaToken.sol\":172:210  string public constant name = \"Faisaa\" */\n    tag_3:\n      tag_37\n      tag_38\n      jump\t// in\n    tag_37:\n      0x40\n      dup1\n      mload\n      0x20\n      dup1\n      dup3\n      mstore\n      dup4\n      mload\n      dup2\n      dup4\n      add\n      mstore\n      dup4\n      mload\n      swap2\n      swap3\n      dup4\n      swap3\n      swap1\n      dup4\n      add\n      swap2\n      dup6\n      add\n      swap1\n      dup1\n      dup4\n      dup4\n      0x00\n        /* \"--CODEGEN--\":8:108   */\n    tag_39:\n        /* \"--CODEGEN--\":33:36   */\n      dup4\n        /* \"--CODEGEN--\":30:31   */\n      dup2\n        /* \"--CODEGEN--\":27:37   */\n      lt\n        /* \"--CODEGEN--\":8:108   */\n      iszero\n      tag_41\n      jumpi\n        /* \"--CODEGEN--\":90:101   */\n      dup2\n      dup2\n      add\n        /* \"--CODEGEN--\":84:102   */\n      mload\n        /* \"--CODEGEN--\":71:82   */\n      dup4\n      dup3\n      add\n        /* \"--CODEGEN--\":64:103   */\n      mstore\n        /* \"--CODEGEN--\":52:54   */\n      0x20\n        /* \"--CODEGEN--\":45:55   */\n      add\n        /* \"--CODEGEN--\":8:108   */\n      jump(tag_39)\n    tag_41:\n        /* \"--CODEGEN--\":12:26   */\n      pop\n        /* \"contracts/FaisaaToken.sol\":172:210  string public constant name = \"Faisaa\" */\n      pop\n      pop\n      pop\n      swap1\n      pop\n      swap1\n      dup2\n      add\n      swap1\n      0x1f\n      and\n      dup1\n      iszero\n      tag_42\n      jumpi\n      dup1\n      dup3\n      sub\n      dup1\n      mload\n      0x01\n      dup4\n      0x20\n      sub\n      0x0100\n      exp\n      sub\n      not\n      and\n      dup2\n      mstore\n      0x20\n      add\n      swap2\n      pop\n    tag_42:\n      pop\n      swap3\n      pop\n      pop\n      pop\n      mload(0x40)\n      dup1\n      swap2\n      sub\n      swap1\n      return\n        /* \"contracts/FaisaaToken.sol\":595:616  address public minter */\n    tag_4:\n      tag_43\n      tag_44\n      jump\t// in\n    tag_43:\n      0x40\n      dup1\n      mload\n      sub(shl(0xa0, 0x01), 0x01)\n      swap1\n      swap3\n      and\n      dup3\n      mstore\n      mload\n      swap1\n      dup2\n      swap1\n      sub\n      0x20\n      add\n      swap1\n      return\n        /* \"contracts/FaisaaToken.sol\":6547:6968  function approve(address spender, uint rawAmount) external returns (bool) {\r... */\n    tag_5:\n      tag_45\n      0x04\n      dup1\n      calldatasize\n      sub\n        /* \"--CODEGEN--\":13:15   */\n      0x40\n        /* \"--CODEGEN--\":8:11   */\n      dup2\n        /* \"--CODEGEN--\":5:16   */\n      lt\n        /* \"--CODEGEN--\":2:4   */\n      iszero\n      tag_46\n      jumpi\n        /* \"--CODEGEN--\":29:30   */\n      0x00\n        /* \"--CODEGEN--\":26:27   */\n      dup1\n        /* \"--CODEGEN--\":19:31   */\n      revert\n        /* \"--CODEGEN--\":2:4   */\n    tag_46:\n      pop\n      sub(shl(0xa0, 0x01), 0x01)\n        /* \"contracts/FaisaaToken.sol\":6547:6968  function approve(address spender, uint rawAmount) external returns (bool) {\r... */\n      dup2\n      calldataload\n      and\n      swap1\n      0x20\n      add\n      calldataload\n      tag_47\n      jump\t// in\n    tag_45:\n      0x40\n      dup1\n      mload\n      swap2\n      iszero\n      iszero\n      dup3\n      mstore\n      mload\n      swap1\n      dup2\n      swap1\n      sub\n      0x20\n      add\n      swap1\n      return\n        /* \"contracts/FaisaaToken.sol\":473:513  uint public totalSupply = 100_000_000e18 */\n    tag_6:\n      tag_48\n      tag_49\n      jump\t// in\n    tag_48:\n      0x40\n      dup1\n      mload\n      swap2\n      dup3\n      mstore\n      mload\n      swap1\n      dup2\n      swap1\n      sub\n      0x20\n      add\n      swap1\n      return\n        /* \"contracts/FaisaaToken.sol\":1824:1946  bytes32 public constant DOMAIN_TYPEHASH = keccak256(\"EIP712Domain(string name,uint256 chainId,address verifyingContract)\") */\n    tag_7:\n      tag_48\n      tag_51\n      jump\t// in\n        /* \"contracts/FaisaaToken.sol\":9645:10321  function transferFrom(address src, address dst, uint rawAmount) external returns (bool) {\r... */\n    tag_8:\n      tag_45\n      0x04\n      dup1\n      calldatasize\n      sub\n        /* \"--CODEGEN--\":13:15   */\n      0x60\n        /* \"--CODEGEN--\":8:11   */\n      dup2\n        /* \"--CODEGEN--\":5:16   */\n      lt\n        /* \"--CODEGEN--\":2:4   */\n      iszero\n      tag_53\n      jumpi\n        /* \"--CODEGEN--\":29:30   */\n      0x00\n        /* \"--CODEGEN--\":26:27   */\n      dup1\n        /* \"--CODEGEN--\":19:31   */\n      revert\n        /* \"--CODEGEN--\":2:4   */\n    tag_53:\n      pop\n      sub(shl(0xa0, 0x01), 0x01)\n        /* \"contracts/FaisaaToken.sol\":9645:10321  function transferFrom(address src, address dst, uint rawAmount) external returns (bool) {\r... */\n      dup2\n      calldataload\n      dup2\n      and\n      swap2\n      0x20\n      dup2\n      add\n      calldataload\n      swap1\n      swap2\n      and\n      swap1\n      0x40\n      add\n      calldataload\n      tag_54\n      jump\t// in\n        /* \"contracts/FaisaaToken.sol\":2247:2384  bytes32 public constant PERMIT_TYPEHASH = keccak256(\"Permit(address owner,address spender,uint256 value,uint256 nonce,uint256 deadline)\") */\n    tag_9:\n      tag_48\n      tag_56\n      jump\t// in\n        /* \"contracts/FaisaaToken.sol\":686:717  uint public mintingAllowedAfter */\n    tag_10:\n      tag_48\n      tag_58\n      jump\t// in\n        /* \"contracts/FaisaaToken.sol\":374:409  uint8 public constant decimals = 18 */\n    tag_11:\n      tag_59\n      tag_60\n      jump\t// in\n    tag_59:\n      0x40\n      dup1\n      mload\n      0xff\n      swap1\n      swap3\n      and\n      dup3\n      mstore\n      mload\n      swap1\n      dup2\n      swap1\n      sub\n      0x20\n      add\n      swap1\n      return\n        /* \"contracts/FaisaaToken.sol\":4548:5629  function mint(address dst, uint rawAmount) external {\r... */\n    tag_12:\n      tag_61\n      0x04\n      dup1\n      calldatasize\n      sub\n        /* \"--CODEGEN--\":13:15   */\n      0x40\n        /* \"--CODEGEN--\":8:11   */\n      dup2\n        /* \"--CODEGEN--\":5:16   */\n      lt\n        /* \"--CODEGEN--\":2:4   */\n      iszero\n      tag_62\n      jumpi\n        /* \"--CODEGEN--\":29:30   */\n      0x00\n        /* \"--CODEGEN--\":26:27   */\n      dup1\n        /* \"--CODEGEN--\":19:31   */\n      revert\n        /* \"--CODEGEN--\":2:4   */\n    tag_62:\n      pop\n      sub(shl(0xa0, 0x01), 0x01)\n        /* \"contracts/FaisaaToken.sol\":4548:5629  function mint(address dst, uint rawAmount) external {\r... */\n      dup2\n      calldataload\n      and\n      swap1\n      0x20\n      add\n      calldataload\n      tag_63\n      jump\t// in\n    tag_61:\n      stop\n        /* \"contracts/FaisaaToken.sol\":1274:1319  mapping (address => address) public delegates */\n    tag_13:\n      tag_43\n      0x04\n      dup1\n      calldatasize\n      sub\n        /* \"--CODEGEN--\":13:15   */\n      0x20\n        /* \"--CODEGEN--\":8:11   */\n      dup2\n        /* \"--CODEGEN--\":5:16   */\n      lt\n        /* \"--CODEGEN--\":2:4   */\n      iszero\n      tag_65\n      jumpi\n        /* \"--CODEGEN--\":29:30   */\n      0x00\n        /* \"--CODEGEN--\":26:27   */\n      dup1\n        /* \"--CODEGEN--\":19:31   */\n      revert\n        /* \"--CODEGEN--\":2:4   */\n    tag_65:\n      pop\n        /* \"contracts/FaisaaToken.sol\":1274:1319  mapping (address => address) public delegates */\n      calldataload\n      sub(shl(0xa0, 0x01), 0x01)\n      and\n      tag_66\n      jump\t// in\n        /* \"contracts/FaisaaToken.sol\":770:831  uint32 public constant minimumTimeBetweenMints = 1 days * 365 */\n    tag_14:\n      tag_67\n      tag_68\n      jump\t// in\n    tag_67:\n      0x40\n      dup1\n      mload\n      0xffffffff\n      swap1\n      swap3\n      and\n      dup3\n      mstore\n      mload\n      swap1\n      dup2\n      swap1\n      sub\n      0x20\n      add\n      swap1\n      return\n        /* \"contracts/FaisaaToken.sol\":10469:10571  function delegate(address delegatee) public {\r... */\n    tag_15:\n      tag_61\n      0x04\n      dup1\n      calldatasize\n      sub\n        /* \"--CODEGEN--\":13:15   */\n      0x20\n        /* \"--CODEGEN--\":8:11   */\n      dup2\n        /* \"--CODEGEN--\":5:16   */\n      lt\n        /* \"--CODEGEN--\":2:4   */\n      iszero\n      tag_70\n      jumpi\n        /* \"--CODEGEN--\":29:30   */\n      0x00\n        /* \"--CODEGEN--\":26:27   */\n      dup1\n        /* \"--CODEGEN--\":19:31   */\n      revert\n        /* \"--CODEGEN--\":2:4   */\n    tag_70:\n      pop\n        /* \"contracts/FaisaaToken.sol\":10469:10571  function delegate(address delegatee) public {\r... */\n      calldataload\n      sub(shl(0xa0, 0x01), 0x01)\n      and\n      tag_71\n      jump\t// in\n        /* \"contracts/FaisaaToken.sol\":1702:1751  mapping (address => uint32) public numCheckpoints */\n    tag_16:\n      tag_67\n      0x04\n      dup1\n      calldatasize\n      sub\n        /* \"--CODEGEN--\":13:15   */\n      0x20\n        /* \"--CODEGEN--\":8:11   */\n      dup2\n        /* \"--CODEGEN--\":5:16   */\n      lt\n        /* \"--CODEGEN--\":2:4   */\n      iszero\n      tag_73\n      jumpi\n        /* \"--CODEGEN--\":29:30   */\n      0x00\n        /* \"--CODEGEN--\":26:27   */\n      dup1\n        /* \"--CODEGEN--\":19:31   */\n      revert\n        /* \"--CODEGEN--\":2:4   */\n    tag_73:\n      pop\n        /* \"contracts/FaisaaToken.sol\":1702:1751  mapping (address => uint32) public numCheckpoints */\n      calldataload\n      sub(shl(0xa0, 0x01), 0x01)\n      and\n      tag_74\n      jump\t// in\n        /* \"contracts/FaisaaToken.sol\":8723:8831  function balanceOf(address account) external view returns (uint) {\r... */\n    tag_17:\n      tag_48\n      0x04\n      dup1\n      calldatasize\n      sub\n        /* \"--CODEGEN--\":13:15   */\n      0x20\n        /* \"--CODEGEN--\":8:11   */\n      dup2\n        /* \"--CODEGEN--\":5:16   */\n      lt\n        /* \"--CODEGEN--\":2:4   */\n      iszero\n      tag_76\n      jumpi\n        /* \"--CODEGEN--\":29:30   */\n      0x00\n        /* \"--CODEGEN--\":26:27   */\n      dup1\n        /* \"--CODEGEN--\":19:31   */\n      revert\n        /* \"--CODEGEN--\":2:4   */\n    tag_76:\n      pop\n        /* \"contracts/FaisaaToken.sol\":8723:8831  function balanceOf(address account) external view returns (uint) {\r... */\n      calldataload\n      sub(shl(0xa0, 0x01), 0x01)\n      and\n      tag_77\n      jump\t// in\n        /* \"contracts/FaisaaToken.sol\":926:959  uint8 public constant mintCap = 2 */\n    tag_18:\n      tag_59\n      tag_79\n      jump\t// in\n        /* \"contracts/FaisaaToken.sol\":12654:13874  function getPriorVotes(address account, uint blockNumber) public view returns (uint96) {\r... */\n    tag_19:\n      tag_80\n      0x04\n      dup1\n      calldatasize\n      sub\n        /* \"--CODEGEN--\":13:15   */\n      0x40\n        /* \"--CODEGEN--\":8:11   */\n      dup2\n        /* \"--CODEGEN--\":5:16   */\n      lt\n        /* \"--CODEGEN--\":2:4   */\n      iszero\n      tag_81\n      jumpi\n        /* \"--CODEGEN--\":29:30   */\n      0x00\n        /* \"--CODEGEN--\":26:27   */\n      dup1\n        /* \"--CODEGEN--\":19:31   */\n      revert\n        /* \"--CODEGEN--\":2:4   */\n    tag_81:\n      pop\n      sub(shl(0xa0, 0x01), 0x01)\n        /* \"contracts/FaisaaToken.sol\":12654:13874  function getPriorVotes(address account, uint blockNumber) public view returns (uint96) {\r... */\n      dup2\n      calldataload\n      and\n      swap1\n      0x20\n      add\n      calldataload\n      tag_82\n      jump\t// in\n    tag_80:\n      0x40\n      dup1\n      mload\n      0xffffffffffffffffffffffff\n      swap1\n      swap3\n      and\n      dup3\n      mstore\n      mload\n      swap1\n      dup2\n      swap1\n      sub\n      0x20\n      add\n      swap1\n      return\n        /* \"contracts/FaisaaToken.sol\":2465:2504  mapping (address => uint) public nonces */\n    tag_20:\n      tag_48\n      0x04\n      dup1\n      calldatasize\n      sub\n        /* \"--CODEGEN--\":13:15   */\n      0x20\n        /* \"--CODEGEN--\":8:11   */\n      dup2\n        /* \"--CODEGEN--\":5:16   */\n      lt\n        /* \"--CODEGEN--\":2:4   */\n      iszero\n      tag_84\n      jumpi\n        /* \"--CODEGEN--\":29:30   */\n      0x00\n        /* \"--CODEGEN--\":26:27   */\n      dup1\n        /* \"--CODEGEN--\":19:31   */\n      revert\n        /* \"--CODEGEN--\":2:4   */\n    tag_84:\n      pop\n        /* \"contracts/FaisaaToken.sol\":2465:2504  mapping (address => uint) public nonces */\n      calldataload\n      sub(shl(0xa0, 0x01), 0x01)\n      and\n      tag_85\n      jump\t// in\n        /* \"contracts/FaisaaToken.sol\":271:311  string public constant symbol = \"FAISAA\" */\n    tag_21:\n      tag_37\n      tag_87\n      jump\t// in\n        /* \"contracts/FaisaaToken.sol\":9095:9335  function transfer(address dst, uint rawAmount) external returns (bool) {\r... */\n    tag_22:\n      tag_45\n      0x04\n      dup1\n      calldatasize\n      sub\n        /* \"--CODEGEN--\":13:15   */\n      0x40\n        /* \"--CODEGEN--\":8:11   */\n      dup2\n        /* \"--CODEGEN--\":5:16   */\n      lt\n        /* \"--CODEGEN--\":2:4   */\n      iszero\n      tag_93\n      jumpi\n        /* \"--CODEGEN--\":29:30   */\n      0x00\n        /* \"--CODEGEN--\":26:27   */\n      dup1\n        /* \"--CODEGEN--\":19:31   */\n      revert\n        /* \"--CODEGEN--\":2:4   */\n    tag_93:\n      pop\n      sub(shl(0xa0, 0x01), 0x01)\n        /* \"contracts/FaisaaToken.sol\":9095:9335  function transfer(address dst, uint rawAmount) external returns (bool) {\r... */\n      dup2\n      calldataload\n      and\n      swap1\n      0x20\n      add\n      calldataload\n      tag_94\n      jump\t// in\n        /* \"contracts/FaisaaToken.sol\":12001:12223  function getCurrentVotes(address account) external view returns (uint96) {\r... */\n    tag_23:\n      tag_80\n      0x04\n      dup1\n      calldatasize\n      sub\n        /* \"--CODEGEN--\":13:15   */\n      0x20\n        /* \"--CODEGEN--\":8:11   */\n      dup2\n        /* \"--CODEGEN--\":5:16   */\n      lt\n        /* \"--CODEGEN--\":2:4   */\n      iszero\n      tag_96\n      jumpi\n        /* \"--CODEGEN--\":29:30   */\n      0x00\n        /* \"--CODEGEN--\":26:27   */\n      dup1\n        /* \"--CODEGEN--\":19:31   */\n      revert\n        /* \"--CODEGEN--\":2:4   */\n    tag_96:\n      pop\n        /* \"contracts/FaisaaToken.sol\":12001:12223  function getCurrentVotes(address account) external view returns (uint96) {\r... */\n      calldataload\n      sub(shl(0xa0, 0x01), 0x01)\n      and\n      tag_97\n      jump\t// in\n        /* \"contracts/FaisaaToken.sol\":11005:11800  function delegateBySig(address delegatee, uint nonce, uint expiry, uint8 v, bytes32 r, bytes32 s) public {\r... */\n    tag_24:\n      tag_61\n      0x04\n      dup1\n      calldatasize\n      sub\n        /* \"--CODEGEN--\":13:16   */\n      0xc0\n        /* \"--CODEGEN--\":8:11   */\n      dup2\n        /* \"--CODEGEN--\":5:17   */\n      lt\n        /* \"--CODEGEN--\":2:4   */\n      iszero\n      tag_99\n      jumpi\n        /* \"--CODEGEN--\":30:31   */\n      0x00\n        /* \"--CODEGEN--\":27:28   */\n      dup1\n        /* \"--CODEGEN--\":20:32   */\n      revert\n        /* \"--CODEGEN--\":2:4   */\n    tag_99:\n      pop\n      sub(shl(0xa0, 0x01), 0x01)\n        /* \"contracts/FaisaaToken.sol\":11005:11800  function delegateBySig(address delegatee, uint nonce, uint expiry, uint8 v, bytes32 r, bytes32 s) public {\r... */\n      dup2\n      calldataload\n      and\n      swap1\n      0x20\n      dup2\n      add\n      calldataload\n      swap1\n      0x40\n      dup2\n      add\n      calldataload\n      swap1\n      0xff\n      0x60\n      dup3\n      add\n      calldataload\n      and\n      swap1\n      0x80\n      dup2\n      add\n      calldataload\n      swap1\n      0xa0\n      add\n      calldataload\n      tag_100\n      jump\t// in\n        /* \"contracts/FaisaaToken.sol\":7458:8520  function permit(address owner, address spender, uint rawAmount, uint deadline, uint8 v, bytes32 r, bytes32 s) external {\r... */\n    tag_25:\n      tag_61\n      0x04\n      dup1\n      calldatasize\n      sub\n        /* \"--CODEGEN--\":13:16   */\n      0xe0\n        /* \"--CODEGEN--\":8:11   */\n      dup2\n        /* \"--CODEGEN--\":5:17   */\n      lt\n        /* \"--CODEGEN--\":2:4   */\n      iszero\n      tag_102\n      jumpi\n        /* \"--CODEGEN--\":30:31   */\n      0x00\n        /* \"--CODEGEN--\":27:28   */\n      dup1\n        /* \"--CODEGEN--\":20:32   */\n      revert\n        /* \"--CODEGEN--\":2:4   */\n    tag_102:\n      pop\n      sub(shl(0xa0, 0x01), 0x01)\n        /* \"contracts/FaisaaToken.sol\":7458:8520  function permit(address owner, address spender, uint rawAmount, uint deadline, uint8 v, bytes32 r, bytes32 s) external {\r... */\n      dup2\n      calldataload\n      dup2\n      and\n      swap2\n      0x20\n      dup2\n      add\n      calldataload\n      swap1\n      swap2\n      and\n      swap1\n      0x40\n      dup2\n      add\n      calldataload\n      swap1\n      0x60\n      dup2\n      add\n      calldataload\n      swap1\n      0xff\n      0x80\n      dup3\n      add\n      calldataload\n      and\n      swap1\n      0xa0\n      dup2\n      add\n      calldataload\n      swap1\n      0xc0\n      add\n      calldataload\n      tag_103\n      jump\t// in\n        /* \"contracts/FaisaaToken.sol\":5933:6069  function allowance(address account, address spender) external view returns (uint) {\r... */\n    tag_26:\n      tag_48\n      0x04\n      dup1\n      calldatasize\n      sub\n        /* \"--CODEGEN--\":13:15   */\n      0x40\n        /* \"--CODEGEN--\":8:11   */\n      dup2\n        /* \"--CODEGEN--\":5:16   */\n      lt\n        /* \"--CODEGEN--\":2:4   */\n      iszero\n      tag_105\n      jumpi\n        /* \"--CODEGEN--\":29:30   */\n      0x00\n        /* \"--CODEGEN--\":26:27   */\n      dup1\n        /* \"--CODEGEN--\":19:31   */\n      revert\n        /* \"--CODEGEN--\":2:4   */\n    tag_105:\n      pop\n      sub(shl(0xa0, 0x01), 0x01)\n        /* \"contracts/FaisaaToken.sol\":5933:6069  function allowance(address account, address spender) external view returns (uint) {\r... */\n      dup2\n      calldataload\n      dup2\n      and\n      swap2\n      0x20\n      add\n      calldataload\n      and\n      tag_106\n      jump\t// in\n        /* \"contracts/FaisaaToken.sol\":2040:2157  bytes32 public constant DELEGATION_TYPEHASH = keccak256(\"Delegation(address delegatee,uint256 nonce,uint256 expiry)\") */\n    tag_27:\n      tag_48\n      tag_108\n      jump\t// in\n        /* \"contracts/FaisaaToken.sol\":1563:1633  mapping (address => mapping (uint32 => Checkpoint)) public checkpoints */\n    tag_28:\n      tag_109\n      0x04\n      dup1\n      calldatasize\n      sub\n        /* \"--CODEGEN--\":13:15   */\n      0x40\n        /* \"--CODEGEN--\":8:11   */\n      dup2\n        /* \"--CODEGEN--\":5:16   */\n      lt\n        /* \"--CODEGEN--\":2:4   */\n      iszero\n      tag_110\n      jumpi\n        /* \"--CODEGEN--\":29:30   */\n      0x00\n        /* \"--CODEGEN--\":26:27   */\n      dup1\n        /* \"--CODEGEN--\":19:31   */\n      revert\n        /* \"--CODEGEN--\":2:4   */\n    tag_110:\n      pop\n        /* \"contracts/FaisaaToken.sol\":1563:1633  mapping (address => mapping (uint32 => Checkpoint)) public checkpoints */\n      dup1\n      calldataload\n      sub(shl(0xa0, 0x01), 0x01)\n      and\n      swap1\n      0x20\n      add\n      calldataload\n      0xffffffff\n      and\n      tag_111\n      jump\t// in\n    tag_109:\n      0x40\n      dup1\n      mload\n      0xffffffff\n      swap1\n      swap4\n      and\n      dup4\n      mstore\n      0xffffffffffffffffffffffff\n      swap1\n      swap2\n      and\n      0x20\n      dup4\n      add\n      mstore\n      dup1\n      mload\n      swap2\n      dup3\n      swap1\n      sub\n      add\n      swap1\n      return\n        /* \"contracts/FaisaaToken.sol\":4139:4373  function setMinter(address minter_) external {\r... */\n    tag_29:\n      tag_61\n      0x04\n      dup1\n      calldatasize\n      sub\n        /* \"--CODEGEN--\":13:15   */\n      0x20\n        /* \"--CODEGEN--\":8:11   */\n      dup2\n        /* \"--CODEGEN--\":5:16   */\n      lt\n        /* \"--CODEGEN--\":2:4   */\n      iszero\n      tag_113\n      jumpi\n        /* \"--CODEGEN--\":29:30   */\n      0x00\n        /* \"--CODEGEN--\":26:27   */\n      dup1\n        /* \"--CODEGEN--\":19:31   */\n      revert\n        /* \"--CODEGEN--\":2:4   */\n    tag_113:\n      pop\n        /* \"contracts/FaisaaToken.sol\":4139:4373  function setMinter(address minter_) external {\r... */\n      calldataload\n      sub(shl(0xa0, 0x01), 0x01)\n      and\n      tag_114\n      jump\t// in\n        /* \"contracts/FaisaaToken.sol\":172:210  string public constant name = \"Faisaa\" */\n    tag_38:\n      mload(0x40)\n      dup1\n      0x40\n      add\n      0x40\n      mstore\n      dup1\n      0x06\n      dup2\n      mstore\n      0x20\n      add\n      0x4661697361610000000000000000000000000000000000000000000000000000\n      dup2\n      mstore\n      pop\n      dup2\n      jump\t// out\n        /* \"contracts/FaisaaToken.sol\":595:616  address public minter */\n    tag_44:\n      and(sub(shl(0xa0, 0x01), 0x01), sload(0x01))\n      dup2\n      jump\t// out\n        /* \"contracts/FaisaaToken.sol\":6547:6968  function approve(address spender, uint rawAmount) external returns (bool) {\r... */\n    tag_47:\n        /* \"contracts/FaisaaToken.sol\":6615:6619  bool */\n      0x00\n        /* \"contracts/FaisaaToken.sol\":6632:6645  uint96 amount */\n      dup1\n      not(0x00)\n        /* \"contracts/FaisaaToken.sol\":6660:6669  rawAmount */\n      dup4\n        /* \"contracts/FaisaaToken.sol\":6660:6681  rawAmount == uint(-1) */\n      eq\n        /* \"contracts/FaisaaToken.sol\":6656:6831  if (rawAmount == uint(-1)) {\r... */\n      iszero\n      tag_116\n      jumpi\n      pop\n      not(0x00)\n      jump(tag_117)\n    tag_116:\n        /* \"contracts/FaisaaToken.sol\":6759:6819  safe96(rawAmount, \"Faisaa::approve: amount exceeds 96 bits\") */\n      tag_118\n        /* \"contracts/FaisaaToken.sol\":6766:6775  rawAmount */\n      dup4\n        /* \"contracts/FaisaaToken.sol\":6759:6819  safe96(rawAmount, \"Faisaa::approve: amount exceeds 96 bits\") */\n      mload(0x40)\n      dup1\n      0x60\n      add\n      0x40\n      mstore\n      dup1\n      0x27\n      dup2\n      mstore\n      0x20\n      add\n      data_428c16dcdda4166530f34a26c4e94fb86da1569e2a9829862ee509d219284dd8\n      0x27\n      swap2\n      codecopy\n        /* \"contracts/FaisaaToken.sol\":6759:6765  safe96 */\n      tag_119\n        /* \"contracts/FaisaaToken.sol\":6759:6819  safe96(rawAmount, \"Faisaa::approve: amount exceeds 96 bits\") */\n      jump\t// in\n    tag_118:\n        /* \"contracts/FaisaaToken.sol\":6750:6819  amount = safe96(rawAmount, \"Faisaa::approve: amount exceeds 96 bits\") */\n      swap1\n      pop\n        /* \"contracts/FaisaaToken.sol\":6656:6831  if (rawAmount == uint(-1)) {\r... */\n    tag_117:\n        /* \"contracts/FaisaaToken.sol\":6854:6864  msg.sender */\n      caller\n        /* \"contracts/FaisaaToken.sol\":6843:6865  allowances[msg.sender] */\n      0x00\n      dup2\n      dup2\n      mstore\n        /* \"contracts/FaisaaToken.sol\":6843:6853  allowances */\n      0x03\n        /* \"contracts/FaisaaToken.sol\":6843:6865  allowances[msg.sender] */\n      0x20\n      swap1\n      dup2\n      mstore\n      0x40\n      dup1\n      dup4\n      keccak256\n      sub(shl(0xa0, 0x01), 0x01)\n        /* \"contracts/FaisaaToken.sol\":6843:6874  allowances[msg.sender][spender] */\n      dup10\n      and\n      dup1\n      dup6\n      mstore\n      swap1\n      dup4\n      mstore\n      swap3\n      dup2\n      swap1\n      keccak256\n        /* \"contracts/FaisaaToken.sol\":6843:6883  allowances[msg.sender][spender] = amount */\n      dup1\n      sload\n      0xffffffffffffffffffffffffffffffffffffffff000000000000000000000000\n      and\n      0xffffffffffffffffffffffff\n      dup8\n      and\n      swap1\n      dup2\n      or\n      swap1\n      swap2\n      sstore\n        /* \"contracts/FaisaaToken.sol\":6901:6938  Approval(msg.sender, spender, amount) */\n      dup2\n      mload\n      swap1\n      dup2\n      mstore\n      swap1\n      mload\n        /* \"contracts/FaisaaToken.sol\":6843:6874  allowances[msg.sender][spender] */\n      swap3\n      swap4\n        /* \"contracts/FaisaaToken.sol\":6854:6864  msg.sender */\n      swap3\n        /* \"contracts/FaisaaToken.sol\":6901:6938  Approval(msg.sender, spender, amount) */\n      0x8c5be1e5ebec7d5bd14f71427d1e84f3dd0314c0f7b2291e5b200ac8c7c3b925\n      swap3\n      swap2\n      dup2\n      swap1\n      sub\n      swap1\n      swap2\n      add\n      swap1\n      log3\n        /* \"contracts/FaisaaToken.sol\":6956:6960  true */\n      0x01\n        /* \"contracts/FaisaaToken.sol\":6949:6960  return true */\n      swap2\n      pop\n      pop\n        /* \"contracts/FaisaaToken.sol\":6547:6968  function approve(address spender, uint rawAmount) external returns (bool) {\r... */\n    tag_115:\n      swap3\n      swap2\n      pop\n      pop\n      jump\t// out\n        /* \"contracts/FaisaaToken.sol\":473:513  uint public totalSupply = 100_000_000e18 */\n    tag_49:\n      sload(0x00)\n      dup2\n      jump\t// out\n        /* \"contracts/FaisaaToken.sol\":1824:1946  bytes32 public constant DOMAIN_TYPEHASH = keccak256(\"EIP712Domain(string name,uint256 chainId,address verifyingContract)\") */\n    tag_51:\n        /* \"contracts/FaisaaToken.sol\":1866:1946  keccak256(\"EIP712Domain(string name,uint256 chainId,address verifyingContract)\") */\n      mload(0x40)\n      dup1\n      0x43\n      data_8cad95687ba82c2ce50e74f7b754645e5117c3a5bec8151c0726d5857980a866\n      dup3\n      codecopy\n      0x43\n      add\n      swap1\n      pop\n      mload(0x40)\n      dup1\n      swap2\n      sub\n      swap1\n      keccak256\n        /* \"contracts/FaisaaToken.sol\":1824:1946  bytes32 public constant DOMAIN_TYPEHASH = keccak256(\"EIP712Domain(string name,uint256 chainId,address verifyingContract)\") */\n      dup2\n      jump\t// out\n        /* \"contracts/FaisaaToken.sol\":9645:10321  function transferFrom(address src, address dst, uint rawAmount) external returns (bool) {\r... */\n    tag_54:\n      sub(shl(0xa0, 0x01), 0x01)\n        /* \"contracts/FaisaaToken.sol\":9809:9824  allowances[src] */\n      dup4\n      and\n        /* \"contracts/FaisaaToken.sol\":9727:9731  bool */\n      0x00\n        /* \"contracts/FaisaaToken.sol\":9809:9824  allowances[src] */\n      swap1\n      dup2\n      mstore\n        /* \"contracts/FaisaaToken.sol\":9809:9819  allowances */\n      0x03\n        /* \"contracts/FaisaaToken.sol\":9809:9824  allowances[src] */\n      0x20\n      swap1\n      dup2\n      mstore\n      0x40\n      dup1\n      dup4\n      keccak256\n        /* \"contracts/FaisaaToken.sol\":9762:9772  msg.sender */\n      caller\n        /* \"contracts/FaisaaToken.sol\":9809:9833  allowances[src][spender] */\n      dup1\n      dup6\n      mstore\n      swap1\n      dup4\n      mstore\n      dup2\n      dup5\n      keccak256\n      sload\n        /* \"contracts/FaisaaToken.sol\":9860:9920  safe96(rawAmount, \"Faisaa::approve: amount exceeds 96 bits\") */\n      dup3\n      mload\n      0x60\n      dup2\n      add\n      swap1\n      swap4\n      mstore\n      0x27\n      dup1\n      dup5\n      mstore\n        /* \"contracts/FaisaaToken.sol\":9762:9772  msg.sender */\n      swap2\n      swap4\n        /* \"contracts/FaisaaToken.sol\":9809:9833  allowances[src][spender] */\n      0xffffffffffffffffffffffff\n      swap1\n      swap2\n      and\n      swap3\n        /* \"contracts/FaisaaToken.sol\":9727:9731  bool */\n      dup6\n      swap3\n        /* \"contracts/FaisaaToken.sol\":9860:9920  safe96(rawAmount, \"Faisaa::approve: amount exceeds 96 bits\") */\n      tag_121\n      swap3\n        /* \"contracts/FaisaaToken.sol\":9867:9876  rawAmount */\n      dup9\n      swap3\n        /* \"contracts/FaisaaToken.sol\":9860:9920  safe96(rawAmount, \"Faisaa::approve: amount exceeds 96 bits\") */\n      swap2\n      swap1\n      data_428c16dcdda4166530f34a26c4e94fb86da1569e2a9829862ee509d219284dd8\n      swap1\n      dup4\n      add\n      codecopy\n        /* \"contracts/FaisaaToken.sol\":9860:9866  safe96 */\n      tag_119\n        /* \"contracts/FaisaaToken.sol\":9860:9920  safe96(rawAmount, \"Faisaa::approve: amount exceeds 96 bits\") */\n      jump\t// in\n    tag_121:\n        /* \"contracts/FaisaaToken.sol\":9844:9920  uint96 amount = safe96(rawAmount, \"Faisaa::approve: amount exceeds 96 bits\") */\n      swap1\n      pop\n        /* \"contracts/FaisaaToken.sol\":9948:9951  src */\n      dup7\n      sub(shl(0xa0, 0x01), 0x01)\n        /* \"contracts/FaisaaToken.sol\":9937:9951  spender != src */\n      and\n        /* \"contracts/FaisaaToken.sol\":9937:9944  spender */\n      dup4\n      sub(shl(0xa0, 0x01), 0x01)\n        /* \"contracts/FaisaaToken.sol\":9937:9951  spender != src */\n      and\n      eq\n      iszero\n        /* \"contracts/FaisaaToken.sol\":9937:9985  spender != src && spenderAllowance != uint96(-1) */\n      dup1\n      iszero\n      tag_122\n      jumpi\n      pop\n        /* \"contracts/FaisaaToken.sol\":9955:9985  spenderAllowance != uint96(-1) */\n      0xffffffffffffffffffffffff\n      dup3\n      dup2\n      and\n      eq\n      iszero\n        /* \"contracts/FaisaaToken.sol\":9937:9985  spender != src && spenderAllowance != uint96(-1) */\n    tag_122:\n        /* \"contracts/FaisaaToken.sol\":9933:10246  if (spender != src && spenderAllowance != uint96(-1)) {\r... */\n      iszero\n      tag_123\n      jumpi\n        /* \"contracts/FaisaaToken.sol\":10002:10021  uint96 newAllowance */\n      0x00\n        /* \"contracts/FaisaaToken.sol\":10024:10122  sub96(spenderAllowance, amount, \"Faisaa::transferFrom: transfer amount exceeds spender allowance\") */\n      tag_124\n        /* \"contracts/FaisaaToken.sol\":10030:10046  spenderAllowance */\n      dup4\n        /* \"contracts/FaisaaToken.sol\":10048:10054  amount */\n      dup4\n        /* \"contracts/FaisaaToken.sol\":10024:10122  sub96(spenderAllowance, amount, \"Faisaa::transferFrom: transfer amount exceeds spender allowance\") */\n      mload(0x40)\n      dup1\n      0x60\n      add\n      0x40\n      mstore\n      dup1\n      0x3f\n      dup2\n      mstore\n      0x20\n      add\n      data_6e6266f1ed26838a519be3251a5adc1b708c96f88b2d9fca8c7664416cc89ae8\n      0x3f\n      swap2\n      codecopy\n        /* \"contracts/FaisaaToken.sol\":10024:10029  sub96 */\n      tag_125\n        /* \"contracts/FaisaaToken.sol\":10024:10122  sub96(spenderAllowance, amount, \"Faisaa::transferFrom: transfer amount exceeds spender allowance\") */\n      jump\t// in\n    tag_124:\n      sub(shl(0xa0, 0x01), 0x01)\n        /* \"contracts/FaisaaToken.sol\":10137:10152  allowances[src] */\n      dup10\n      dup2\n      and\n      0x00\n      dup2\n      dup2\n      mstore\n        /* \"contracts/FaisaaToken.sol\":10137:10147  allowances */\n      0x03\n        /* \"contracts/FaisaaToken.sol\":10137:10152  allowances[src] */\n      0x20\n      swap1\n      dup2\n      mstore\n      0x40\n      dup1\n      dup4\n      keccak256\n        /* \"contracts/FaisaaToken.sol\":10137:10161  allowances[src][spender] */\n      swap5\n      dup11\n      and\n      dup1\n      dup5\n      mstore\n      swap5\n      dup3\n      mstore\n      swap2\n      dup3\n      swap1\n      keccak256\n        /* \"contracts/FaisaaToken.sol\":10137:10176  allowances[src][spender] = newAllowance */\n      dup1\n      sload\n      0xffffffffffffffffffffffffffffffffffffffff000000000000000000000000\n      and\n      0xffffffffffffffffffffffff\n      dup8\n      and\n      swap1\n      dup2\n      or\n      swap1\n      swap2\n      sstore\n        /* \"contracts/FaisaaToken.sol\":10198:10234  Approval(src, spender, newAllowance) */\n      dup3\n      mload\n      swap1\n      dup2\n      mstore\n      swap2\n      mload\n        /* \"contracts/FaisaaToken.sol\":10137:10176  allowances[src][spender] = newAllowance */\n      swap5\n      swap6\n      pop\n        /* \"contracts/FaisaaToken.sol\":10137:10161  allowances[src][spender] */\n      swap3\n      swap4\n        /* \"contracts/FaisaaToken.sol\":10137:10152  allowances[src] */\n      swap2\n      swap3\n        /* \"contracts/FaisaaToken.sol\":10198:10234  Approval(src, spender, newAllowance) */\n      0x8c5be1e5ebec7d5bd14f71427d1e84f3dd0314c0f7b2291e5b200ac8c7c3b925\n      swap3\n      swap2\n      dup3\n      swap1\n      sub\n      add\n      swap1\n      log3\n        /* \"contracts/FaisaaToken.sol\":9933:10246  if (spender != src && spenderAllowance != uint96(-1)) {\r... */\n      pop\n    tag_123:\n        /* \"contracts/FaisaaToken.sol\":10258:10291  _transferTokens(src, dst, amount) */\n      tag_126\n        /* \"contracts/FaisaaToken.sol\":10274:10277  src */\n      dup8\n        /* \"contracts/FaisaaToken.sol\":10279:10282  dst */\n      dup8\n        /* \"contracts/FaisaaToken.sol\":10284:10290  amount */\n      dup4\n        /* \"contracts/FaisaaToken.sol\":10258:10273  _transferTokens */\n      tag_127\n        /* \"contracts/FaisaaToken.sol\":10258:10291  _transferTokens(src, dst, amount) */\n      jump\t// in\n    tag_126:\n      pop\n        /* \"contracts/FaisaaToken.sol\":10309:10313  true */\n      0x01\n      swap7\n        /* \"contracts/FaisaaToken.sol\":9645:10321  function transferFrom(address src, address dst, uint rawAmount) external returns (bool) {\r... */\n      swap6\n      pop\n      pop\n      pop\n      pop\n      pop\n      pop\n      jump\t// out\n        /* \"contracts/FaisaaToken.sol\":2247:2384  bytes32 public constant PERMIT_TYPEHASH = keccak256(\"Permit(address owner,address spender,uint256 value,uint256 nonce,uint256 deadline)\") */\n    tag_56:\n        /* \"contracts/FaisaaToken.sol\":2289:2384  keccak256(\"Permit(address owner,address spender,uint256 value,uint256 nonce,uint256 deadline)\") */\n      mload(0x40)\n      dup1\n      0x52\n      data_6e71edae12b1b97f4d1f60370fef10105fa2faae0126114a169c64845d6126c9\n      dup3\n      codecopy\n      0x52\n      add\n      swap1\n      pop\n      mload(0x40)\n      dup1\n      swap2\n      sub\n      swap1\n      keccak256\n        /* \"contracts/FaisaaToken.sol\":2247:2384  bytes32 public constant PERMIT_TYPEHASH = keccak256(\"Permit(address owner,address spender,uint256 value,uint256 nonce,uint256 deadline)\") */\n      dup2\n      jump\t// out\n        /* \"contracts/FaisaaToken.sol\":686:717  uint public mintingAllowedAfter */\n    tag_58:\n      sload(0x02)\n      dup2\n      jump\t// out\n        /* \"contracts/FaisaaToken.sol\":374:409  uint8 public constant decimals = 18 */\n    tag_60:\n        /* \"contracts/FaisaaToken.sol\":407:409  18 */\n      0x12\n        /* \"contracts/FaisaaToken.sol\":374:409  uint8 public constant decimals = 18 */\n      dup2\n      jump\t// out\n        /* \"contracts/FaisaaToken.sol\":4548:5629  function mint(address dst, uint rawAmount) external {\r... */\n    tag_63:\n        /* \"contracts/FaisaaToken.sol\":4633:4639  minter */\n      and(sub(shl(0xa0, 0x01), 0x01), sload(0x01))\n        /* \"contracts/FaisaaToken.sol\":4619:4629  msg.sender */\n      caller\n        /* \"contracts/FaisaaToken.sol\":4619:4639  msg.sender == minter */\n      eq\n        /* \"contracts/FaisaaToken.sol\":4611:4682  require(msg.sender == minter, \"Faisaa::mint: only the minter can mint\") */\n      tag_129\n      jumpi\n      mload(0x40)\n      shl(0xe5, 0x461bcd)\n      dup2\n      mstore\n      0x04\n      add\n      dup1\n      dup1\n      0x20\n      add\n      dup3\n      dup2\n      sub\n      dup3\n      mstore\n      0x26\n      dup2\n      mstore\n      0x20\n      add\n      dup1\n      data_db5d92e49fd459b5013588af7233493889e9b54ed887d70a2e2719b899396d06\n      0x26\n      swap2\n      codecopy\n      0x40\n      add\n      swap2\n      pop\n      pop\n      mload(0x40)\n      dup1\n      swap2\n      sub\n      swap1\n      revert\n    tag_129:\n        /* \"contracts/FaisaaToken.sol\":4720:4739  mintingAllowedAfter */\n      sload(0x02)\n        /* \"contracts/FaisaaToken.sol\":4701:4716  block.timestamp */\n      timestamp\n        /* \"contracts/FaisaaToken.sol\":4701:4739  block.timestamp >= mintingAllowedAfter */\n      lt\n      iszero\n        /* \"contracts/FaisaaToken.sol\":4693:4781  require(block.timestamp >= mintingAllowedAfter, \"Faisaa::mint: minting not allowed yet\") */\n      tag_130\n      jumpi\n      mload(0x40)\n      shl(0xe5, 0x461bcd)\n      dup2\n      mstore\n      0x04\n      add\n      dup1\n      dup1\n      0x20\n      add\n      dup3\n      dup2\n      sub\n      dup3\n      mstore\n      0x25\n      dup2\n      mstore\n      0x20\n      add\n      dup1\n      data_47cfc577cce83a034131ee7e3a3f248dd2402932183c3369404366188973b247\n      0x25\n      swap2\n      codecopy\n      0x40\n      add\n      swap2\n      pop\n      pop\n      mload(0x40)\n      dup1\n      swap2\n      sub\n      swap1\n      revert\n    tag_130:\n      sub(shl(0xa0, 0x01), 0x01)\n        /* \"contracts/FaisaaToken.sol\":4800:4817  dst != address(0) */\n      dup3\n      and\n        /* \"contracts/FaisaaToken.sol\":4792:4871  require(dst != address(0), \"Faisaa::mint: cannot transfer to the zero address\") */\n      tag_131\n      jumpi\n      mload(0x40)\n      shl(0xe5, 0x461bcd)\n      dup2\n      mstore\n      0x04\n      add\n      dup1\n      dup1\n      0x20\n      add\n      dup3\n      dup2\n      sub\n      dup3\n      mstore\n      0x31\n      dup2\n      mstore\n      0x20\n      add\n      dup1\n      data_06ee8fd590cdc34084a0a93806ff7f052e42252de31367891afc0c9c911dcbe5\n      0x31\n      swap2\n      codecopy\n      0x40\n      add\n      swap2\n      pop\n      pop\n      mload(0x40)\n      dup1\n      swap2\n      sub\n      swap1\n      revert\n    tag_131:\n        /* \"contracts/FaisaaToken.sol\":4934:4988  SafeMath.add(block.timestamp, minimumTimeBetweenMints) */\n      tag_132\n        /* \"contracts/FaisaaToken.sol\":4947:4962  block.timestamp */\n      timestamp\n        /* \"contracts/FaisaaToken.sol\":819:831  1 days * 365 */\n      0x01e13380\n        /* \"contracts/FaisaaToken.sol\":4934:4946  SafeMath.add */\n      tag_133\n        /* \"contracts/FaisaaToken.sol\":4934:4988  SafeMath.add(block.timestamp, minimumTimeBetweenMints) */\n      jump\t// in\n    tag_132:\n        /* \"contracts/FaisaaToken.sol\":4912:4931  mintingAllowedAfter */\n      0x02\n        /* \"contracts/FaisaaToken.sol\":4912:4988  mintingAllowedAfter = SafeMath.add(block.timestamp, minimumTimeBetweenMints) */\n      dup2\n      swap1\n      sstore\n      pop\n        /* \"contracts/FaisaaToken.sol\":5029:5042  uint96 amount */\n      0x00\n        /* \"contracts/FaisaaToken.sol\":5045:5102  safe96(rawAmount, \"Faisaa::mint: amount exceeds 96 bits\") */\n      tag_134\n        /* \"contracts/FaisaaToken.sol\":5052:5061  rawAmount */\n      dup3\n        /* \"contracts/FaisaaToken.sol\":5045:5102  safe96(rawAmount, \"Faisaa::mint: amount exceeds 96 bits\") */\n      mload(0x40)\n      dup1\n      0x60\n      add\n      0x40\n      mstore\n      dup1\n      0x24\n      dup2\n      mstore\n      0x20\n      add\n      data_930851ea43cac2873108cbbc75da47df319dfb5d34d9bc02c61e0c540ad465f8\n      0x24\n      swap2\n      codecopy\n        /* \"contracts/FaisaaToken.sol\":5045:5051  safe96 */\n      tag_119\n        /* \"contracts/FaisaaToken.sol\":5045:5102  safe96(rawAmount, \"Faisaa::mint: amount exceeds 96 bits\") */\n      jump\t// in\n    tag_134:\n        /* \"contracts/FaisaaToken.sol\":5029:5102  uint96 amount = safe96(rawAmount, \"Faisaa::mint: amount exceeds 96 bits\") */\n      swap1\n      pop\n        /* \"contracts/FaisaaToken.sol\":5247:5333  safe96(SafeMath.add(totalSupply, amount), \"Faisaa::mint: totalSupply exceeds 96 bits\") */\n      tag_135\n        /* \"contracts/FaisaaToken.sol\":5254:5287  SafeMath.add(totalSupply, amount) */\n      tag_136\n        /* \"contracts/FaisaaToken.sol\":5267:5278  totalSupply */\n      sload(0x00)\n        /* \"contracts/FaisaaToken.sol\":5280:5286  amount */\n      dup4\n        /* \"contracts/FaisaaToken.sol\":5254:5287  SafeMath.add(totalSupply, amount) */\n      0xffffffffffffffffffffffff\n      and\n        /* \"contracts/FaisaaToken.sol\":5254:5266  SafeMath.add */\n      tag_133\n        /* \"contracts/FaisaaToken.sol\":5254:5287  SafeMath.add(totalSupply, amount) */\n      jump\t// in\n    tag_136:\n        /* \"contracts/FaisaaToken.sol\":5247:5333  safe96(SafeMath.add(totalSupply, amount), \"Faisaa::mint: totalSupply exceeds 96 bits\") */\n      mload(0x40)\n      dup1\n      0x60\n      add\n      0x40\n      mstore\n      dup1\n      0x29\n      dup2\n      mstore\n      0x20\n      add\n      data_a164aaf472e5193ae08911c43f0e932009bd6899893d2553e9b4bae60bf5dbf4\n      0x29\n      swap2\n      codecopy\n        /* \"contracts/FaisaaToken.sol\":5247:5253  safe96 */\n      tag_119\n        /* \"contracts/FaisaaToken.sol\":5247:5333  safe96(SafeMath.add(totalSupply, amount), \"Faisaa::mint: totalSupply exceeds 96 bits\") */\n      jump\t// in\n    tag_135:\n        /* \"contracts/FaisaaToken.sol\":5233:5333  totalSupply = safe96(SafeMath.add(totalSupply, amount), \"Faisaa::mint: totalSupply exceeds 96 bits\") */\n      0xffffffffffffffffffffffff\n      swap1\n      dup2\n      and\n        /* \"contracts/FaisaaToken.sol\":5233:5244  totalSupply */\n      0x00\n        /* \"contracts/FaisaaToken.sol\":5233:5333  totalSupply = safe96(SafeMath.add(totalSupply, amount), \"Faisaa::mint: totalSupply exceeds 96 bits\") */\n      swap1\n      dup2\n      sstore\n      sub(shl(0xa0, 0x01), 0x01)\n        /* \"contracts/FaisaaToken.sol\":5417:5430  balances[dst] */\n      dup6\n      and\n      dup2\n      mstore\n        /* \"contracts/FaisaaToken.sol\":5417:5425  balances */\n      0x04\n        /* \"contracts/FaisaaToken.sol\":5417:5430  balances[dst] */\n      0x20\n      swap1\n      dup2\n      mstore\n      0x40\n      swap2\n      dup3\n      swap1\n      keccak256\n      sload\n        /* \"contracts/FaisaaToken.sol\":5411:5482  add96(balances[dst], amount, \"Faisaa::mint: transfer amount overflows\") */\n      dup3\n      mload\n      0x60\n      dup2\n      add\n      swap1\n      swap4\n      mstore\n      0x27\n      dup1\n      dup5\n      mstore\n      tag_137\n      swap5\n        /* \"contracts/FaisaaToken.sol\":5417:5430  balances[dst] */\n      swap2\n      swap1\n      swap2\n      and\n      swap3\n        /* \"contracts/FaisaaToken.sol\":5432:5438  amount */\n      dup6\n      swap3\n        /* \"contracts/FaisaaToken.sol\":5411:5482  add96(balances[dst], amount, \"Faisaa::mint: transfer amount overflows\") */\n      swap1\n      swap2\n      swap1\n      data_0ef9b1138f7fe56190f837aebeac3f83ce57900277382d69d32939dbf4287f14\n      swap1\n      dup4\n      add\n      codecopy\n        /* \"contracts/FaisaaToken.sol\":5411:5416  add96 */\n      tag_138\n        /* \"contracts/FaisaaToken.sol\":5411:5482  add96(balances[dst], amount, \"Faisaa::mint: transfer amount overflows\") */\n      jump\t// in\n    tag_137:\n      sub(shl(0xa0, 0x01), 0x01)\n        /* \"contracts/FaisaaToken.sol\":5395:5408  balances[dst] */\n      dup5\n      and\n      0x00\n      dup2\n      dup2\n      mstore\n        /* \"contracts/FaisaaToken.sol\":5395:5403  balances */\n      0x04\n        /* \"contracts/FaisaaToken.sol\":5395:5408  balances[dst] */\n      0x20\n      swap1\n      dup2\n      mstore\n      0x40\n      dup1\n      dup4\n      keccak256\n        /* \"contracts/FaisaaToken.sol\":5395:5482  balances[dst] = add96(balances[dst], amount, \"Faisaa::mint: transfer amount overflows\") */\n      dup1\n      sload\n      0xffffffffffffffffffffffffffffffffffffffff000000000000000000000000\n      and\n      0xffffffffffffffffffffffff\n      swap7\n      dup8\n      and\n      or\n      swap1\n      sstore\n        /* \"contracts/FaisaaToken.sol\":5498:5531  Transfer(address(0), dst, amount) */\n      dup1\n      mload\n      swap5\n      dup7\n      and\n      dup6\n      mstore\n      mload\n        /* \"contracts/FaisaaToken.sol\":5395:5408  balances[dst] */\n      swap3\n      swap4\n      swap2\n      swap3\n        /* \"contracts/FaisaaToken.sol\":5498:5531  Transfer(address(0), dst, amount) */\n      0xddf252ad1be2c89b69c2b068fc378daa952ba7f163c4a11628f55a4df523b3ef\n      swap3\n      dup2\n      swap1\n      sub\n      swap1\n      swap2\n      add\n      swap1\n      log3\n      sub(shl(0xa0, 0x01), 0x01)\n        /* \"contracts/FaisaaToken.sol\":5598:5612  delegates[dst] */\n      dup1\n      dup5\n      and\n        /* \"contracts/FaisaaToken.sol\":5594:5595  0 */\n      0x00\n        /* \"contracts/FaisaaToken.sol\":5598:5612  delegates[dst] */\n      swap1\n      dup2\n      mstore\n        /* \"contracts/FaisaaToken.sol\":5598:5607  delegates */\n      0x05\n        /* \"contracts/FaisaaToken.sol\":5598:5612  delegates[dst] */\n      0x20\n      mstore\n      0x40\n      dup2\n      keccak256\n      sload\n        /* \"contracts/FaisaaToken.sol\":5571:5621  _moveDelegates(address(0), delegates[dst], amount) */\n      tag_139\n      swap3\n        /* \"contracts/FaisaaToken.sol\":5598:5612  delegates[dst] */\n      and\n        /* \"contracts/FaisaaToken.sol\":5614:5620  amount */\n      dup4\n        /* \"contracts/FaisaaToken.sol\":5571:5585  _moveDelegates */\n      tag_140\n        /* \"contracts/FaisaaToken.sol\":5571:5621  _moveDelegates(address(0), delegates[dst], amount) */\n      jump\t// in\n    tag_139:\n        /* \"contracts/FaisaaToken.sol\":4548:5629  function mint(address dst, uint rawAmount) external {\r... */\n      pop\n      pop\n      pop\n      jump\t// out\n        /* \"contracts/FaisaaToken.sol\":1274:1319  mapping (address => address) public delegates */\n    tag_66:\n      mstore(0x20, 0x05)\n      0x00\n      swap1\n      dup2\n      mstore\n      0x40\n      swap1\n      keccak256\n      sload\n      sub(shl(0xa0, 0x01), 0x01)\n      and\n      dup2\n      jump\t// out\n        /* \"contracts/FaisaaToken.sol\":770:831  uint32 public constant minimumTimeBetweenMints = 1 days * 365 */\n    tag_68:\n        /* \"contracts/FaisaaToken.sol\":819:831  1 days * 365 */\n      0x01e13380\n        /* \"contracts/FaisaaToken.sol\":770:831  uint32 public constant minimumTimeBetweenMints = 1 days * 365 */\n      dup2\n      jump\t// out\n        /* \"contracts/FaisaaToken.sol\":10469:10571  function delegate(address delegatee) public {\r... */\n    tag_71:\n        /* \"contracts/FaisaaToken.sol\":10531:10563  _delegate(msg.sender, delegatee) */\n      tag_142\n        /* \"contracts/FaisaaToken.sol\":10541:10551  msg.sender */\n      caller\n        /* \"contracts/FaisaaToken.sol\":10553:10562  delegatee */\n      dup3\n        /* \"contracts/FaisaaToken.sol\":10531:10540  _delegate */\n      tag_143\n        /* \"contracts/FaisaaToken.sol\":10531:10563  _delegate(msg.sender, delegatee) */\n      jump\t// in\n    tag_142:\n        /* \"contracts/FaisaaToken.sol\":10469:10571  function delegate(address delegatee) public {\r... */\n      pop\n      jump\t// out\n        /* \"contracts/FaisaaToken.sol\":1702:1751  mapping (address => uint32) public numCheckpoints */\n    tag_74:\n      mstore(0x20, 0x07)\n      0x00\n      swap1\n      dup2\n      mstore\n      0x40\n      swap1\n      keccak256\n      sload\n      0xffffffff\n      and\n      dup2\n      jump\t// out\n        /* \"contracts/FaisaaToken.sol\":8723:8831  function balanceOf(address account) external view returns (uint) {\r... */\n    tag_77:\n      sub(shl(0xa0, 0x01), 0x01)\n        /* \"contracts/FaisaaToken.sol\":8806:8823  balances[account] */\n      and\n        /* \"contracts/FaisaaToken.sol\":8782:8786  uint */\n      0x00\n        /* \"contracts/FaisaaToken.sol\":8806:8823  balances[account] */\n      swap1\n      dup2\n      mstore\n        /* \"contracts/FaisaaToken.sol\":8806:8814  balances */\n      0x04\n        /* \"contracts/FaisaaToken.sol\":8806:8823  balances[account] */\n      0x20\n      mstore\n      0x40\n      swap1\n      keccak256\n      sload\n      0xffffffffffffffffffffffff\n      and\n      swap1\n        /* \"contracts/FaisaaToken.sol\":8723:8831  function balanceOf(address account) external view returns (uint) {\r... */\n      jump\t// out\n        /* \"contracts/FaisaaToken.sol\":926:959  uint8 public constant mintCap = 2 */\n    tag_79:\n        /* \"contracts/FaisaaToken.sol\":958:959  2 */\n      0x02\n        /* \"contracts/FaisaaToken.sol\":926:959  uint8 public constant mintCap = 2 */\n      dup2\n      jump\t// out\n        /* \"contracts/FaisaaToken.sol\":12654:13874  function getPriorVotes(address account, uint blockNumber) public view returns (uint96) {\r... */\n    tag_82:\n        /* \"contracts/FaisaaToken.sol\":12733:12739  uint96 */\n      0x00\n        /* \"contracts/FaisaaToken.sol\":12774:12786  block.number */\n      number\n        /* \"contracts/FaisaaToken.sol\":12760:12771  blockNumber */\n      dup3\n        /* \"contracts/FaisaaToken.sol\":12760:12786  blockNumber < block.number */\n      lt\n        /* \"contracts/FaisaaToken.sol\":12752:12832  require(blockNumber < block.number, \"Faisaa::getPriorVotes: not yet determined\") */\n      tag_146\n      jumpi\n      mload(0x40)\n      shl(0xe5, 0x461bcd)\n      dup2\n      mstore\n      0x04\n      add\n      dup1\n      dup1\n      0x20\n      add\n      dup3\n      dup2\n      sub\n      dup3\n      mstore\n      0x29\n      dup2\n      mstore\n      0x20\n      add\n      dup1\n      data_e175c657e0f1e403f720ee547408b254751930f62507bddf82a8534bbb500da4\n      0x29\n      swap2\n      codecopy\n      0x40\n      add\n      swap2\n      pop\n      pop\n      mload(0x40)\n      dup1\n      swap2\n      sub\n      swap1\n      revert\n    tag_146:\n      sub(shl(0xa0, 0x01), 0x01)\n        /* \"contracts/FaisaaToken.sol\":12867:12890  numCheckpoints[account] */\n      dup4\n      and\n        /* \"contracts/FaisaaToken.sol\":12845:12864  uint32 nCheckpoints */\n      0x00\n        /* \"contracts/FaisaaToken.sol\":12867:12890  numCheckpoints[account] */\n      swap1\n      dup2\n      mstore\n        /* \"contracts/FaisaaToken.sol\":12867:12881  numCheckpoints */\n      0x07\n        /* \"contracts/FaisaaToken.sol\":12867:12890  numCheckpoints[account] */\n      0x20\n      mstore\n      0x40\n      swap1\n      keccak256\n      sload\n      0xffffffff\n      and\n        /* \"contracts/FaisaaToken.sol\":12905:12922  nCheckpoints == 0 */\n      dup1\n        /* \"contracts/FaisaaToken.sol\":12901:12959  if (nCheckpoints == 0) {\r... */\n      tag_147\n      jumpi\n        /* \"contracts/FaisaaToken.sol\":12946:12947  0 */\n      0x00\n        /* \"contracts/FaisaaToken.sol\":12939:12947  return 0 */\n      swap2\n      pop\n      pop\n      jump(tag_115)\n        /* \"contracts/FaisaaToken.sol\":12901:12959  if (nCheckpoints == 0) {\r... */\n    tag_147:\n      sub(shl(0xa0, 0x01), 0x01)\n        /* \"contracts/FaisaaToken.sol\":13019:13039  checkpoints[account] */\n      dup5\n      and\n      0x00\n      swap1\n      dup2\n      mstore\n        /* \"contracts/FaisaaToken.sol\":13019:13030  checkpoints */\n      0x06\n        /* \"contracts/FaisaaToken.sol\":13019:13039  checkpoints[account] */\n      0x20\n      swap1\n      dup2\n      mstore\n      0x40\n      dup1\n      dup4\n      keccak256\n        /* \"contracts/FaisaaToken.sol\":13019:13057  checkpoints[account][nCheckpoints - 1] */\n      0xffffffff\n      not(0x00)\n        /* \"contracts/FaisaaToken.sol\":13040:13056  nCheckpoints - 1 */\n      dup7\n      add\n        /* \"contracts/FaisaaToken.sol\":13019:13057  checkpoints[account][nCheckpoints - 1] */\n      dup2\n      and\n      dup6\n      mstore\n      swap3\n      mstore\n      swap1\n      swap2\n      keccak256\n        /* \"contracts/FaisaaToken.sol\":13019:13067  checkpoints[account][nCheckpoints - 1].fromBlock */\n      sload\n      and\n        /* \"contracts/FaisaaToken.sol\":13019:13082  checkpoints[account][nCheckpoints - 1].fromBlock <= blockNumber */\n      dup4\n      lt\n        /* \"contracts/FaisaaToken.sol\":13015:13162  if (checkpoints[account][nCheckpoints - 1].fromBlock <= blockNumber) {\r... */\n      tag_148\n      jumpi\n      sub(shl(0xa0, 0x01), 0x01)\n        /* \"contracts/FaisaaToken.sol\":13106:13126  checkpoints[account] */\n      dup5\n      and\n      0x00\n      swap1\n      dup2\n      mstore\n        /* \"contracts/FaisaaToken.sol\":13106:13117  checkpoints */\n      0x06\n        /* \"contracts/FaisaaToken.sol\":13106:13126  checkpoints[account] */\n      0x20\n      swap1\n      dup2\n      mstore\n      0x40\n      dup1\n      dup4\n      keccak256\n      not(0x00)\n        /* \"contracts/FaisaaToken.sol\":13127:13143  nCheckpoints - 1 */\n      swap5\n      swap1\n      swap5\n      add\n        /* \"contracts/FaisaaToken.sol\":13106:13144  checkpoints[account][nCheckpoints - 1] */\n      0xffffffff\n      and\n      dup4\n      mstore\n      swap3\n      swap1\n      mstore\n      keccak256\n        /* \"contracts/FaisaaToken.sol\":13106:13150  checkpoints[account][nCheckpoints - 1].votes */\n      sload\n      0x0100000000\n      swap1\n      div\n      0xffffffffffffffffffffffff\n      and\n      swap1\n      pop\n        /* \"contracts/FaisaaToken.sol\":13099:13150  return checkpoints[account][nCheckpoints - 1].votes */\n      jump(tag_115)\n        /* \"contracts/FaisaaToken.sol\":13015:13162  if (checkpoints[account][nCheckpoints - 1].fromBlock <= blockNumber) {\r... */\n    tag_148:\n      sub(shl(0xa0, 0x01), 0x01)\n        /* \"contracts/FaisaaToken.sol\":13223:13243  checkpoints[account] */\n      dup5\n      and\n      0x00\n      swap1\n      dup2\n      mstore\n        /* \"contracts/FaisaaToken.sol\":13223:13234  checkpoints */\n      0x06\n        /* \"contracts/FaisaaToken.sol\":13223:13243  checkpoints[account] */\n      0x20\n      swap1\n      dup2\n      mstore\n      0x40\n      dup1\n      dup4\n      keccak256\n        /* \"contracts/FaisaaToken.sol\":13223:13246  checkpoints[account][0] */\n      dup4\n      dup1\n      mstore\n      swap1\n      swap2\n      mstore\n      swap1\n      keccak256\n        /* \"contracts/FaisaaToken.sol\":13223:13256  checkpoints[account][0].fromBlock */\n      sload\n        /* \"contracts/FaisaaToken.sol\":13223:13246  checkpoints[account][0] */\n      0xffffffff\n        /* \"contracts/FaisaaToken.sol\":13223:13256  checkpoints[account][0].fromBlock */\n      and\n        /* \"contracts/FaisaaToken.sol\":13223:13270  checkpoints[account][0].fromBlock > blockNumber */\n      dup4\n      lt\n        /* \"contracts/FaisaaToken.sol\":13219:13307  if (checkpoints[account][0].fromBlock > blockNumber) {\r... */\n      iszero\n      tag_149\n      jumpi\n        /* \"contracts/FaisaaToken.sol\":13294:13295  0 */\n      0x00\n        /* \"contracts/FaisaaToken.sol\":13287:13295  return 0 */\n      swap2\n      pop\n      pop\n      jump(tag_115)\n        /* \"contracts/FaisaaToken.sol\":13219:13307  if (checkpoints[account][0].fromBlock > blockNumber) {\r... */\n    tag_149:\n        /* \"contracts/FaisaaToken.sol\":13319:13331  uint32 lower */\n      0x00\n      not(0x00)\n        /* \"contracts/FaisaaToken.sol\":13361:13377  nCheckpoints - 1 */\n      dup3\n      add\n        /* \"contracts/FaisaaToken.sol\":13388:13816  while (upper > lower) {\r... */\n    tag_150:\n        /* \"contracts/FaisaaToken.sol\":13403:13408  lower */\n      dup2\n        /* \"contracts/FaisaaToken.sol\":13395:13408  upper > lower */\n      0xffffffff\n      and\n        /* \"contracts/FaisaaToken.sol\":13395:13400  upper */\n      dup2\n        /* \"contracts/FaisaaToken.sol\":13395:13408  upper > lower */\n      0xffffffff\n      and\n      gt\n        /* \"contracts/FaisaaToken.sol\":13388:13816  while (upper > lower) {\r... */\n      iszero\n      tag_151\n      jumpi\n        /* \"contracts/FaisaaToken.sol\":13467:13468  2 */\n      0x02\n        /* \"contracts/FaisaaToken.sol\":13450:13463  upper - lower */\n      dup3\n      dup3\n      sub\n        /* \"contracts/FaisaaToken.sol\":13449:13468  (upper - lower) / 2 */\n      0xffffffff\n      and\n      div\n        /* \"contracts/FaisaaToken.sol\":13441:13468  upper - (upper - lower) / 2 */\n      dup2\n      sub\n        /* \"contracts/FaisaaToken.sol\":13510:13530  Checkpoint memory cp */\n      tag_153\n      tag_154\n      jump\t// in\n    tag_153:\n      pop\n      sub(shl(0xa0, 0x01), 0x01)\n        /* \"contracts/FaisaaToken.sol\":13533:13553  checkpoints[account] */\n      dup8\n      and\n      0x00\n      swap1\n      dup2\n      mstore\n        /* \"contracts/FaisaaToken.sol\":13533:13544  checkpoints */\n      0x06\n        /* \"contracts/FaisaaToken.sol\":13533:13553  checkpoints[account] */\n      0x20\n      swap1\n      dup2\n      mstore\n      0x40\n      dup1\n      dup4\n      keccak256\n        /* \"contracts/FaisaaToken.sol\":13533:13561  checkpoints[account][center] */\n      0xffffffff\n      dup6\n      dup2\n      and\n      dup6\n      mstore\n      swap1\n      dup4\n      mstore\n      swap3\n      dup2\n      swap1\n      keccak256\n        /* \"contracts/FaisaaToken.sol\":13510:13561  Checkpoint memory cp = checkpoints[account][center] */\n      dup2\n      mload\n      dup1\n      dup4\n      add\n      swap1\n      swap3\n      mstore\n      sload\n      swap3\n      dup4\n      and\n      dup1\n      dup3\n      mstore\n      0x0100000000\n      swap1\n      swap4\n      div\n      0xffffffffffffffffffffffff\n      and\n      swap2\n      dup2\n      add\n      swap2\n      swap1\n      swap2\n      mstore\n      swap1\n        /* \"contracts/FaisaaToken.sol\":13580:13607  cp.fromBlock == blockNumber */\n      dup8\n      eq\n        /* \"contracts/FaisaaToken.sol\":13576:13805  if (cp.fromBlock == blockNumber) {\r... */\n      iszero\n      tag_155\n      jumpi\n        /* \"contracts/FaisaaToken.sol\":13635:13643  cp.votes */\n      0x20\n      add\n      mload\n      swap5\n      pop\n        /* \"contracts/FaisaaToken.sol\":13628:13643  return cp.votes */\n      tag_115\n      swap4\n      pop\n      pop\n      pop\n      pop\n      jump\n        /* \"contracts/FaisaaToken.sol\":13576:13805  if (cp.fromBlock == blockNumber) {\r... */\n    tag_155:\n        /* \"contracts/FaisaaToken.sol\":13669:13681  cp.fromBlock */\n      dup1\n      mload\n        /* \"contracts/FaisaaToken.sol\":13669:13695  cp.fromBlock < blockNumber */\n      0xffffffff\n      and\n      dup8\n      gt\n        /* \"contracts/FaisaaToken.sol\":13665:13805  if (cp.fromBlock < blockNumber) {\r... */\n      iszero\n      tag_157\n      jumpi\n        /* \"contracts/FaisaaToken.sol\":13724:13730  center */\n      dup2\n        /* \"contracts/FaisaaToken.sol\":13716:13730  lower = center */\n      swap4\n      pop\n        /* \"contracts/FaisaaToken.sol\":13665:13805  if (cp.fromBlock < blockNumber) {\r... */\n      jump(tag_158)\n    tag_157:\n        /* \"contracts/FaisaaToken.sol\":13788:13789  1 */\n      0x01\n        /* \"contracts/FaisaaToken.sol\":13779:13785  center */\n      dup3\n        /* \"contracts/FaisaaToken.sol\":13779:13789  center - 1 */\n      sub\n        /* \"contracts/FaisaaToken.sol\":13771:13789  upper = center - 1 */\n      swap3\n      pop\n        /* \"contracts/FaisaaToken.sol\":13665:13805  if (cp.fromBlock < blockNumber) {\r... */\n    tag_158:\n        /* \"contracts/FaisaaToken.sol\":13388:13816  while (upper > lower) {\r... */\n      pop\n      pop\n      jump(tag_150)\n    tag_151:\n      pop\n      sub(shl(0xa0, 0x01), 0x01)\n        /* \"contracts/FaisaaToken.sol\":13833:13853  checkpoints[account] */\n      dup6\n      and\n      0x00\n      swap1\n      dup2\n      mstore\n        /* \"contracts/FaisaaToken.sol\":13833:13844  checkpoints */\n      0x06\n        /* \"contracts/FaisaaToken.sol\":13833:13853  checkpoints[account] */\n      0x20\n      swap1\n      dup2\n      mstore\n      0x40\n      dup1\n      dup4\n      keccak256\n        /* \"contracts/FaisaaToken.sol\":13833:13860  checkpoints[account][lower] */\n      0xffffffff\n      swap1\n      swap5\n      and\n      dup4\n      mstore\n      swap3\n      swap1\n      mstore\n      keccak256\n        /* \"contracts/FaisaaToken.sol\":13833:13866  checkpoints[account][lower].votes */\n      sload\n      0xffffffffffffffffffffffff\n      0x0100000000\n      swap1\n      swap2\n      div\n      and\n      swap2\n      pop\n      pop\n        /* \"contracts/FaisaaToken.sol\":12654:13874  function getPriorVotes(address account, uint blockNumber) public view returns (uint96) {\r... */\n      swap3\n      swap2\n      pop\n      pop\n      jump\t// out\n        /* \"contracts/FaisaaToken.sol\":2465:2504  mapping (address => uint) public nonces */\n    tag_85:\n      mstore(0x20, 0x08)\n      0x00\n      swap1\n      dup2\n      mstore\n      0x40\n      swap1\n      keccak256\n      sload\n      dup2\n      jump\t// out\n        /* \"contracts/FaisaaToken.sol\":271:311  string public constant symbol = \"FAISAA\" */\n    tag_87:\n      mload(0x40)\n      dup1\n      0x40\n      add\n      0x40\n      mstore\n      dup1\n      0x06\n      dup2\n      mstore\n      0x20\n      add\n      0x4641495341410000000000000000000000000000000000000000000000000000\n      dup2\n      mstore\n      pop\n      dup2\n      jump\t// out\n        /* \"contracts/FaisaaToken.sol\":9095:9335  function transfer(address dst, uint rawAmount) external returns (bool) {\r... */\n    tag_94:\n        /* \"contracts/FaisaaToken.sol\":9160:9164  bool */\n      0x00\n        /* \"contracts/FaisaaToken.sol\":9177:9190  uint96 amount */\n      dup1\n        /* \"contracts/FaisaaToken.sol\":9193:9254  safe96(rawAmount, \"Faisaa::transfer: amount exceeds 96 bits\") */\n      tag_160\n        /* \"contracts/FaisaaToken.sol\":9200:9209  rawAmount */\n      dup4\n        /* \"contracts/FaisaaToken.sol\":9193:9254  safe96(rawAmount, \"Faisaa::transfer: amount exceeds 96 bits\") */\n      mload(0x40)\n      dup1\n      0x60\n      add\n      0x40\n      mstore\n      dup1\n      0x28\n      dup2\n      mstore\n      0x20\n      add\n      data_b7ebab050738648e1b5349fb2fbed408028a6c60180b562f13f48eb805432532\n      0x28\n      swap2\n      codecopy\n        /* \"contracts/FaisaaToken.sol\":9193:9199  safe96 */\n      tag_119\n        /* \"contracts/FaisaaToken.sol\":9193:9254  safe96(rawAmount, \"Faisaa::transfer: amount exceeds 96 bits\") */\n      jump\t// in\n    tag_160:\n        /* \"contracts/FaisaaToken.sol\":9177:9254  uint96 amount = safe96(rawAmount, \"Faisaa::transfer: amount exceeds 96 bits\") */\n      swap1\n      pop\n        /* \"contracts/FaisaaToken.sol\":9265:9305  _transferTokens(msg.sender, dst, amount) */\n      tag_161\n        /* \"contracts/FaisaaToken.sol\":9281:9291  msg.sender */\n      caller\n        /* \"contracts/FaisaaToken.sol\":9293:9296  dst */\n      dup6\n        /* \"contracts/FaisaaToken.sol\":9298:9304  amount */\n      dup4\n        /* \"contracts/FaisaaToken.sol\":9265:9280  _transferTokens */\n      tag_127\n        /* \"contracts/FaisaaToken.sol\":9265:9305  _transferTokens(msg.sender, dst, amount) */\n      jump\t// in\n    tag_161:\n      pop\n        /* \"contracts/FaisaaToken.sol\":9323:9327  true */\n      0x01\n      swap4\n        /* \"contracts/FaisaaToken.sol\":9095:9335  function transfer(address dst, uint rawAmount) external returns (bool) {\r... */\n      swap3\n      pop\n      pop\n      pop\n      jump\t// out\n        /* \"contracts/FaisaaToken.sol\":12001:12223  function getCurrentVotes(address account) external view returns (uint96) {\r... */\n    tag_97:\n      sub(shl(0xa0, 0x01), 0x01)\n        /* \"contracts/FaisaaToken.sol\":12107:12130  numCheckpoints[account] */\n      dup2\n      and\n        /* \"contracts/FaisaaToken.sol\":12066:12072  uint96 */\n      0x00\n        /* \"contracts/FaisaaToken.sol\":12107:12130  numCheckpoints[account] */\n      swap1\n      dup2\n      mstore\n        /* \"contracts/FaisaaToken.sol\":12107:12121  numCheckpoints */\n      0x07\n        /* \"contracts/FaisaaToken.sol\":12107:12130  numCheckpoints[account] */\n      0x20\n      mstore\n      0x40\n      dup2\n      keccak256\n      sload\n      0xffffffff\n      and\n        /* \"contracts/FaisaaToken.sol\":12148:12164  nCheckpoints > 0 */\n      dup1\n        /* \"contracts/FaisaaToken.sol\":12148:12215  nCheckpoints > 0 ? checkpoints[account][nCheckpoints - 1].votes : 0 */\n      tag_163\n      jumpi\n        /* \"contracts/FaisaaToken.sol\":12214:12215  0 */\n      0x00\n        /* \"contracts/FaisaaToken.sol\":12148:12215  nCheckpoints > 0 ? checkpoints[account][nCheckpoints - 1].votes : 0 */\n      jump(tag_164)\n    tag_163:\n      sub(shl(0xa0, 0x01), 0x01)\n        /* \"contracts/FaisaaToken.sol\":12167:12187  checkpoints[account] */\n      dup4\n      and\n      0x00\n      swap1\n      dup2\n      mstore\n        /* \"contracts/FaisaaToken.sol\":12167:12178  checkpoints */\n      0x06\n        /* \"contracts/FaisaaToken.sol\":12167:12187  checkpoints[account] */\n      0x20\n      swap1\n      dup2\n      mstore\n      0x40\n      dup1\n      dup4\n      keccak256\n      not(0x00)\n        /* \"contracts/FaisaaToken.sol\":12188:12204  nCheckpoints - 1 */\n      dup6\n      add\n        /* \"contracts/FaisaaToken.sol\":12167:12205  checkpoints[account][nCheckpoints - 1] */\n      0xffffffff\n      and\n      dup5\n      mstore\n      swap1\n      swap2\n      mstore\n      swap1\n      keccak256\n        /* \"contracts/FaisaaToken.sol\":12167:12211  checkpoints[account][nCheckpoints - 1].votes */\n      sload\n      0x0100000000\n      swap1\n      div\n      0xffffffffffffffffffffffff\n      and\n        /* \"contracts/FaisaaToken.sol\":12148:12215  nCheckpoints > 0 ? checkpoints[account][nCheckpoints - 1].votes : 0 */\n    tag_164:\n        /* \"contracts/FaisaaToken.sol\":12141:12215  return nCheckpoints > 0 ? checkpoints[account][nCheckpoints - 1].votes : 0 */\n      swap4\n        /* \"contracts/FaisaaToken.sol\":12001:12223  function getCurrentVotes(address account) external view returns (uint96) {\r... */\n      swap3\n      pop\n      pop\n      pop\n      jump\t// out\n        /* \"contracts/FaisaaToken.sol\":11005:11800  function delegateBySig(address delegatee, uint nonce, uint expiry, uint8 v, bytes32 r, bytes32 s) public {\r... */\n    tag_100:\n        /* \"contracts/FaisaaToken.sol\":11121:11144  bytes32 domainSeparator */\n      0x00\n        /* \"contracts/FaisaaToken.sol\":1866:1946  keccak256(\"EIP712Domain(string name,uint256 chainId,address verifyingContract)\") */\n      mload(0x40)\n      dup1\n      dup1\n      data_8cad95687ba82c2ce50e74f7b754645e5117c3a5bec8151c0726d5857980a866\n      0x43\n      swap2\n      codecopy\n      0x40\n      dup1\n      mload\n      swap2\n      dup3\n      swap1\n      sub\n      0x43\n      add\n      dup3\n      keccak256\n        /* \"contracts/FaisaaToken.sol\":11201:11205  name */\n      dup3\n      dup3\n      add\n      swap1\n      swap2\n      mstore\n      0x06\n      dup3\n      mstore\n      0x4661697361610000000000000000000000000000000000000000000000000000\n      0x20\n      swap1\n      swap3\n      add\n      swap2\n      swap1\n      swap2\n      mstore\n        /* \"contracts/FaisaaToken.sol\":1866:1946  keccak256(\"EIP712Domain(string name,uint256 chainId,address verifyingContract)\") */\n      swap1\n      pop\n        /* \"contracts/FaisaaToken.sol\":11185:11207  keccak256(bytes(name)) */\n      0x9869eadf408163ba154b1c0ee82ba4780d5d47224d67622ac848d92c700ab76d\n        /* \"contracts/FaisaaToken.sol\":11209:11221  getChainId() */\n      tag_166\n        /* \"contracts/FaisaaToken.sol\":11209:11219  getChainId */\n      tag_167\n        /* \"contracts/FaisaaToken.sol\":11209:11221  getChainId() */\n      jump\t// in\n    tag_166:\n        /* \"contracts/FaisaaToken.sol\":11231:11235  this */\n      address\n        /* \"contracts/FaisaaToken.sol\":11157:11237  abi.encode(DOMAIN_TYPEHASH, keccak256(bytes(name)), getChainId(), address(this)) */\n      add(0x20, mload(0x40))\n      dup1\n      dup6\n      dup2\n      mstore\n      0x20\n      add\n      dup5\n      dup2\n      mstore\n      0x20\n      add\n      dup4\n      dup2\n      mstore\n      0x20\n      add\n      dup3\n      sub(shl(0xa0, 0x01), 0x01)\n      and\n      sub(shl(0xa0, 0x01), 0x01)\n      and\n      dup2\n      mstore\n      0x20\n      add\n      swap5\n      pop\n      pop\n      pop\n      pop\n      pop\n      mload(0x40)\n        /* \"--CODEGEN--\":49:53   */\n      0x20\n        /* \"--CODEGEN--\":39:46   */\n      dup2\n        /* \"--CODEGEN--\":30:37   */\n      dup4\n        /* \"--CODEGEN--\":26:47   */\n      sub\n        /* \"--CODEGEN--\":22:54   */\n      sub\n        /* \"--CODEGEN--\":13:20   */\n      dup2\n        /* \"--CODEGEN--\":6:55   */\n      mstore\n        /* \"contracts/FaisaaToken.sol\":11157:11237  abi.encode(DOMAIN_TYPEHASH, keccak256(bytes(name)), getChainId(), address(this)) */\n      swap1\n      0x40\n      mstore\n        /* \"contracts/FaisaaToken.sol\":11147:11238  keccak256(abi.encode(DOMAIN_TYPEHASH, keccak256(bytes(name)), getChainId(), address(this))) */\n      dup1\n      mload\n      swap1\n      0x20\n      add\n      keccak256\n        /* \"contracts/FaisaaToken.sol\":11121:11238  bytes32 domainSeparator = keccak256(abi.encode(DOMAIN_TYPEHASH, keccak256(bytes(name)), getChainId(), address(this))) */\n      swap1\n      pop\n        /* \"contracts/FaisaaToken.sol\":11249:11267  bytes32 structHash */\n      0x00\n        /* \"contracts/FaisaaToken.sol\":2086:2157  keccak256(\"Delegation(address delegatee,uint256 nonce,uint256 expiry)\") */\n      mload(0x40)\n      dup1\n      dup1\n      data_e48329057bfd03d55e49b547132e39cffd9c1820ad7b9d4c5307691425d15adf\n      0x3a\n      swap2\n      codecopy\n      0x40\n      dup1\n      mload\n      swap2\n      dup3\n      swap1\n      sub\n      0x3a\n      add\n      dup3\n      keccak256\n        /* \"contracts/FaisaaToken.sol\":11280:11337  abi.encode(DELEGATION_TYPEHASH, delegatee, nonce, expiry) */\n      0x20\n      dup1\n      dup5\n      add\n      swap2\n      swap1\n      swap2\n      mstore\n      sub(shl(0xa0, 0x01), 0x01)\n      dup13\n      and\n      dup4\n      dup4\n      add\n      mstore\n      0x60\n      dup4\n      add\n      dup12\n      swap1\n      mstore\n      0x80\n      dup1\n      dup5\n      add\n      dup12\n      swap1\n      mstore\n      dup3\n      mload\n        /* \"--CODEGEN--\":26:47   */\n      dup1\n      dup6\n      sub\n        /* \"--CODEGEN--\":22:54   */\n      swap1\n      swap2\n      add\n        /* \"--CODEGEN--\":6:55   */\n      dup2\n      mstore\n        /* \"contracts/FaisaaToken.sol\":11280:11337  abi.encode(DELEGATION_TYPEHASH, delegatee, nonce, expiry) */\n      0xa0\n      dup5\n      add\n      dup4\n      mstore\n        /* \"contracts/FaisaaToken.sol\":11270:11338  keccak256(abi.encode(DELEGATION_TYPEHASH, delegatee, nonce, expiry)) */\n      dup1\n      mload\n      swap1\n      dup3\n      add\n      keccak256\n        /* \"contracts/FaisaaToken.sol\":11376:11433  abi.encodePacked(\"\\x19\\x01\", domainSeparator, structHash) */\n      0x1901000000000000000000000000000000000000000000000000000000000000\n      0xc0\n      dup6\n      add\n      mstore\n      0xc2\n      dup5\n      add\n      dup8\n      swap1\n      mstore\n      0xe2\n      dup1\n      dup6\n      add\n      dup3\n      swap1\n      mstore\n      dup4\n      mload\n        /* \"--CODEGEN--\":26:47   */\n      dup1\n      dup7\n      sub\n        /* \"--CODEGEN--\":22:54   */\n      swap1\n      swap2\n      add\n        /* \"--CODEGEN--\":6:55   */\n      dup2\n      mstore\n        /* \"contracts/FaisaaToken.sol\":11376:11433  abi.encodePacked(\"\\x19\\x01\", domainSeparator, structHash) */\n      0x0102\n      dup6\n      add\n      dup1\n      dup6\n      mstore\n        /* \"contracts/FaisaaToken.sol\":11366:11434  keccak256(abi.encodePacked(\"\\x19\\x01\", domainSeparator, structHash)) */\n      dup2\n      mload\n      swap2\n      dup5\n      add\n      swap2\n      swap1\n      swap2\n      keccak256\n      0x00\n        /* \"contracts/FaisaaToken.sol\":11465:11491  ecrecover(digest, v, r, s) */\n      swap2\n      dup3\n      swap1\n      mstore\n      0x0122\n      dup7\n      add\n      dup1\n      dup7\n      mstore\n      dup2\n      swap1\n      mstore\n      0xff\n      dup13\n      and\n      0x0142\n      dup8\n      add\n      mstore\n      0x0162\n      dup7\n      add\n      dup12\n      swap1\n      mstore\n      0x0182\n      dup7\n      add\n      dup11\n      swap1\n      mstore\n      swap4\n      mload\n        /* \"contracts/FaisaaToken.sol\":11270:11338  keccak256(abi.encode(DELEGATION_TYPEHASH, delegatee, nonce, expiry)) */\n      swap2\n      swap7\n      pop\n        /* \"contracts/FaisaaToken.sol\":11366:11434  keccak256(abi.encodePacked(\"\\x19\\x01\", domainSeparator, structHash)) */\n      swap3\n      swap5\n      pop\n      swap2\n      swap3\n        /* \"contracts/FaisaaToken.sol\":11465:11491  ecrecover(digest, v, r, s) */\n      0x01\n      swap3\n      0x01a2\n      dup1\n      dup4\n      add\n      swap4\n        /* \"contracts/FaisaaToken.sol\":11280:11337  abi.encode(DELEGATION_TYPEHASH, delegatee, nonce, expiry) */\n      swap3\n      0xffffffffffffffffffffffffffffffffffffffffffffffffffffffffffffffe0\n        /* \"contracts/FaisaaToken.sol\":11465:11491  ecrecover(digest, v, r, s) */\n      dup4\n      add\n      swap3\n      swap1\n      dup2\n      swap1\n      sub\n      swap1\n      swap2\n      add\n      swap1\n      dup6\n      gas\n      staticcall\n      iszero\n        /* \"--CODEGEN--\":8:17   */\n      dup1\n        /* \"--CODEGEN--\":5:7   */\n      iszero\n      tag_168\n      jumpi\n        /* \"--CODEGEN--\":45:61   */\n      returndatasize\n        /* \"--CODEGEN--\":42:43   */\n      0x00\n        /* \"--CODEGEN--\":39:40   */\n      dup1\n        /* \"--CODEGEN--\":24:62   */\n      returndatacopy\n        /* \"--CODEGEN--\":77:93   */\n      returndatasize\n        /* \"--CODEGEN--\":74:75   */\n      0x00\n        /* \"--CODEGEN--\":67:94   */\n      revert\n        /* \"--CODEGEN--\":5:7   */\n    tag_168:\n      pop\n      pop\n        /* \"contracts/FaisaaToken.sol\":11465:11491  ecrecover(digest, v, r, s) */\n      mload(add(0xffffffffffffffffffffffffffffffffffffffffffffffffffffffffffffffe0, mload(0x40)))\n      swap2\n      pop\n      pop\n      sub(shl(0xa0, 0x01), 0x01)\n        /* \"contracts/FaisaaToken.sol\":11510:11533  signatory != address(0) */\n      dup2\n      and\n        /* \"contracts/FaisaaToken.sol\":11502:11578  require(signatory != address(0), \"Faisaa::delegateBySig: invalid signature\") */\n      tag_169\n      jumpi\n      mload(0x40)\n      shl(0xe5, 0x461bcd)\n      dup2\n      mstore\n      0x04\n      add\n      dup1\n      dup1\n      0x20\n      add\n      dup3\n      dup2\n      sub\n      dup3\n      mstore\n      0x28\n      dup2\n      mstore\n      0x20\n      add\n      dup1\n      data_fc42ecd0ad65ac67b8bb4dbac768677706fb9a0fbb6335d058dc53a56bbd31df\n      0x28\n      swap2\n      codecopy\n      0x40\n      add\n      swap2\n      pop\n      pop\n      mload(0x40)\n      dup1\n      swap2\n      sub\n      swap1\n      revert\n    tag_169:\n      sub(shl(0xa0, 0x01), 0x01)\n        /* \"contracts/FaisaaToken.sol\":11606:11623  nonces[signatory] */\n      dup2\n      and\n      0x00\n      swap1\n      dup2\n      mstore\n        /* \"contracts/FaisaaToken.sol\":11606:11612  nonces */\n      0x08\n        /* \"contracts/FaisaaToken.sol\":11606:11623  nonces[signatory] */\n      0x20\n      mstore\n      0x40\n      swap1\n      keccak256\n        /* \"contracts/FaisaaToken.sol\":11606:11625  nonces[signatory]++ */\n      dup1\n      sload\n      0x01\n      dup2\n      add\n      swap1\n      swap2\n      sstore\n        /* \"contracts/FaisaaToken.sol\":11597:11625  nonce == nonces[signatory]++ */\n      dup10\n      eq\n        /* \"contracts/FaisaaToken.sol\":11589:11666  require(nonce == nonces[signatory]++, \"Faisaa::delegateBySig: invalid nonce\") */\n      tag_170\n      jumpi\n      mload(0x40)\n      shl(0xe5, 0x461bcd)\n      dup2\n      mstore\n      0x04\n      add\n      dup1\n      dup1\n      0x20\n      add\n      dup3\n      dup2\n      sub\n      dup3\n      mstore\n      0x24\n      dup2\n      mstore\n      0x20\n      add\n      dup1\n      data_be8a6d809cc9f4ff1cf4521b91f51874149bae2006223ec41845b088e1693560\n      0x24\n      swap2\n      codecopy\n      0x40\n      add\n      swap2\n      pop\n      pop\n      mload(0x40)\n      dup1\n      swap2\n      sub\n      swap1\n      revert\n    tag_170:\n        /* \"contracts/FaisaaToken.sol\":11692:11698  expiry */\n      dup8\n        /* \"contracts/FaisaaToken.sol\":11685:11688  now */\n      timestamp\n        /* \"contracts/FaisaaToken.sol\":11685:11698  now <= expiry */\n      gt\n      iszero\n        /* \"contracts/FaisaaToken.sol\":11677:11743  require(now <= expiry, \"Faisaa::delegateBySig: signature expired\") */\n      tag_171\n      jumpi\n      mload(0x40)\n      shl(0xe5, 0x461bcd)\n      dup2\n      mstore\n      0x04\n      add\n      dup1\n      dup1\n      0x20\n      add\n      dup3\n      dup2\n      sub\n      dup3\n      mstore\n      0x28\n      dup2\n      mstore\n      0x20\n      add\n      dup1\n      data_a2f14eebe3bbc7d4adc60052a7d595b79f34724fbfa7082143585fb5bd8626ee\n      0x28\n      swap2\n      codecopy\n      0x40\n      add\n      swap2\n      pop\n      pop\n      mload(0x40)\n      dup1\n      swap2\n      sub\n      swap1\n      revert\n    tag_171:\n        /* \"contracts/FaisaaToken.sol\":11761:11792  _delegate(signatory, delegatee) */\n      tag_172\n        /* \"contracts/FaisaaToken.sol\":11771:11780  signatory */\n      dup2\n        /* \"contracts/FaisaaToken.sol\":11782:11791  delegatee */\n      dup12\n        /* \"contracts/FaisaaToken.sol\":11761:11770  _delegate */\n      tag_143\n        /* \"contracts/FaisaaToken.sol\":11761:11792  _delegate(signatory, delegatee) */\n      jump\t// in\n    tag_172:\n        /* \"contracts/FaisaaToken.sol\":11754:11792  return _delegate(signatory, delegatee) */\n      pop\n      pop\n      pop\n      pop\n        /* \"contracts/FaisaaToken.sol\":11005:11800  function delegateBySig(address delegatee, uint nonce, uint expiry, uint8 v, bytes32 r, bytes32 s) public {\r... */\n    tag_165:\n      pop\n      pop\n      pop\n      pop\n      pop\n      pop\n      jump\t// out\n        /* \"contracts/FaisaaToken.sol\":7458:8520  function permit(address owner, address spender, uint rawAmount, uint deadline, uint8 v, bytes32 r, bytes32 s) external {\r... */\n    tag_103:\n        /* \"contracts/FaisaaToken.sol\":7588:7601  uint96 amount */\n      0x00\n      not(0x00)\n        /* \"contracts/FaisaaToken.sol\":7616:7625  rawAmount */\n      dup7\n        /* \"contracts/FaisaaToken.sol\":7616:7637  rawAmount == uint(-1) */\n      eq\n        /* \"contracts/FaisaaToken.sol\":7612:7786  if (rawAmount == uint(-1)) {\r... */\n      iszero\n      tag_174\n      jumpi\n      pop\n      not(0x00)\n      jump(tag_175)\n    tag_174:\n        /* \"contracts/FaisaaToken.sol\":7715:7774  safe96(rawAmount, \"Faisaa::permit: amount exceeds 96 bits\") */\n      tag_176\n        /* \"contracts/FaisaaToken.sol\":7722:7731  rawAmount */\n      dup7\n        /* \"contracts/FaisaaToken.sol\":7715:7774  safe96(rawAmount, \"Faisaa::permit: amount exceeds 96 bits\") */\n      mload(0x40)\n      dup1\n      0x60\n      add\n      0x40\n      mstore\n      dup1\n      0x26\n      dup2\n      mstore\n      0x20\n      add\n      data_a4168aba4fc669f0dc452530929310103d41a501cffe432724f3e347c4692ffd\n      0x26\n      swap2\n      codecopy\n        /* \"contracts/FaisaaToken.sol\":7715:7721  safe96 */\n      tag_119\n        /* \"contracts/FaisaaToken.sol\":7715:7774  safe96(rawAmount, \"Faisaa::permit: amount exceeds 96 bits\") */\n      jump\t// in\n    tag_176:\n        /* \"contracts/FaisaaToken.sol\":7706:7774  amount = safe96(rawAmount, \"Faisaa::permit: amount exceeds 96 bits\") */\n      swap1\n      pop\n        /* \"contracts/FaisaaToken.sol\":7612:7786  if (rawAmount == uint(-1)) {\r... */\n    tag_175:\n        /* \"contracts/FaisaaToken.sol\":7798:7821  bytes32 domainSeparator */\n      0x00\n        /* \"contracts/FaisaaToken.sol\":1866:1946  keccak256(\"EIP712Domain(string name,uint256 chainId,address verifyingContract)\") */\n      mload(0x40)\n      dup1\n      dup1\n      data_8cad95687ba82c2ce50e74f7b754645e5117c3a5bec8151c0726d5857980a866\n      0x43\n      swap2\n      codecopy\n      0x40\n      dup1\n      mload\n      swap2\n      dup3\n      swap1\n      sub\n      0x43\n      add\n      dup3\n      keccak256\n        /* \"contracts/FaisaaToken.sol\":7878:7882  name */\n      dup3\n      dup3\n      add\n      swap1\n      swap2\n      mstore\n      0x06\n      dup3\n      mstore\n      0x4661697361610000000000000000000000000000000000000000000000000000\n      0x20\n      swap1\n      swap3\n      add\n      swap2\n      swap1\n      swap2\n      mstore\n        /* \"contracts/FaisaaToken.sol\":1866:1946  keccak256(\"EIP712Domain(string name,uint256 chainId,address verifyingContract)\") */\n      swap1\n      pop\n        /* \"contracts/FaisaaToken.sol\":7862:7884  keccak256(bytes(name)) */\n      0x9869eadf408163ba154b1c0ee82ba4780d5d47224d67622ac848d92c700ab76d\n        /* \"contracts/FaisaaToken.sol\":7886:7898  getChainId() */\n      tag_177\n        /* \"contracts/FaisaaToken.sol\":7886:7896  getChainId */\n      tag_167\n        /* \"contracts/FaisaaToken.sol\":7886:7898  getChainId() */\n      jump\t// in\n    tag_177:\n        /* \"contracts/FaisaaToken.sol\":7908:7912  this */\n      address\n        /* \"contracts/FaisaaToken.sol\":7834:7914  abi.encode(DOMAIN_TYPEHASH, keccak256(bytes(name)), getChainId(), address(this)) */\n      add(0x20, mload(0x40))\n      dup1\n      dup6\n      dup2\n      mstore\n      0x20\n      add\n      dup5\n      dup2\n      mstore\n      0x20\n      add\n      dup4\n      dup2\n      mstore\n      0x20\n      add\n      dup3\n      sub(shl(0xa0, 0x01), 0x01)\n      and\n      sub(shl(0xa0, 0x01), 0x01)\n      and\n      dup2\n      mstore\n      0x20\n      add\n      swap5\n      pop\n      pop\n      pop\n      pop\n      pop\n      mload(0x40)\n        /* \"--CODEGEN--\":49:53   */\n      0x20\n        /* \"--CODEGEN--\":39:46   */\n      dup2\n        /* \"--CODEGEN--\":30:37   */\n      dup4\n        /* \"--CODEGEN--\":26:47   */\n      sub\n        /* \"--CODEGEN--\":22:54   */\n      sub\n        /* \"--CODEGEN--\":13:20   */\n      dup2\n        /* \"--CODEGEN--\":6:55   */\n      mstore\n        /* \"contracts/FaisaaToken.sol\":7834:7914  abi.encode(DOMAIN_TYPEHASH, keccak256(bytes(name)), getChainId(), address(this)) */\n      swap1\n      0x40\n      mstore\n        /* \"contracts/FaisaaToken.sol\":7824:7915  keccak256(abi.encode(DOMAIN_TYPEHASH, keccak256(bytes(name)), getChainId(), address(this))) */\n      dup1\n      mload\n      swap1\n      0x20\n      add\n      keccak256\n        /* \"contracts/FaisaaToken.sol\":7798:7915  bytes32 domainSeparator = keccak256(abi.encode(DOMAIN_TYPEHASH, keccak256(bytes(name)), getChainId(), address(this))) */\n      swap1\n      pop\n        /* \"contracts/FaisaaToken.sol\":7926:7944  bytes32 structHash */\n      0x00\n        /* \"contracts/FaisaaToken.sol\":2289:2384  keccak256(\"Permit(address owner,address spender,uint256 value,uint256 nonce,uint256 deadline)\") */\n      mload(0x40)\n      dup1\n      dup1\n      data_6e71edae12b1b97f4d1f60370fef10105fa2faae0126114a169c64845d6126c9\n      0x52\n      swap2\n      codecopy\n      0x52\n      add\n      swap1\n      pop\n      mload(0x40)\n      dup1\n      swap2\n      sub\n      swap1\n      keccak256\n        /* \"contracts/FaisaaToken.sol\":7985:7990  owner */\n      dup11\n        /* \"contracts/FaisaaToken.sol\":7992:7999  spender */\n      dup11\n        /* \"contracts/FaisaaToken.sol\":8001:8010  rawAmount */\n      dup11\n        /* \"contracts/FaisaaToken.sol\":8012:8018  nonces */\n      0x08\n        /* \"contracts/FaisaaToken.sol\":8012:8025  nonces[owner] */\n      0x00\n        /* \"contracts/FaisaaToken.sol\":8019:8024  owner */\n      dup16\n      sub(shl(0xa0, 0x01), 0x01)\n        /* \"contracts/FaisaaToken.sol\":8012:8025  nonces[owner] */\n      and\n      sub(shl(0xa0, 0x01), 0x01)\n      and\n      dup2\n      mstore\n      0x20\n      add\n      swap1\n      dup2\n      mstore\n      0x20\n      add\n      0x00\n      keccak256\n      0x00\n        /* \"contracts/FaisaaToken.sol\":8012:8027  nonces[owner]++ */\n      dup2\n      sload\n      dup1\n      swap3\n      swap2\n      swap1\n      0x01\n      add\n      swap2\n      swap1\n      pop\n      sstore\n        /* \"contracts/FaisaaToken.sol\":8029:8037  deadline */\n      dup12\n        /* \"contracts/FaisaaToken.sol\":7957:8038  abi.encode(PERMIT_TYPEHASH, owner, spender, rawAmount, nonces[owner]++, deadline) */\n      add(0x20, mload(0x40))\n      dup1\n      dup8\n      dup2\n      mstore\n      0x20\n      add\n      dup7\n      sub(shl(0xa0, 0x01), 0x01)\n      and\n      sub(shl(0xa0, 0x01), 0x01)\n      and\n      dup2\n      mstore\n      0x20\n      add\n      dup6\n      sub(shl(0xa0, 0x01), 0x01)\n      and\n      sub(shl(0xa0, 0x01), 0x01)\n      and\n      dup2\n      mstore\n      0x20\n      add\n      dup5\n      dup2\n      mstore\n      0x20\n      add\n      dup4\n      dup2\n      mstore\n      0x20\n      add\n      dup3\n      dup2\n      mstore\n      0x20\n      add\n      swap7\n      pop\n      pop\n      pop\n      pop\n      pop\n      pop\n      pop\n      mload(0x40)\n        /* \"--CODEGEN--\":49:53   */\n      0x20\n        /* \"--CODEGEN--\":39:46   */\n      dup2\n        /* \"--CODEGEN--\":30:37   */\n      dup4\n        /* \"--CODEGEN--\":26:47   */\n      sub\n        /* \"--CODEGEN--\":22:54   */\n      sub\n        /* \"--CODEGEN--\":13:20   */\n      dup2\n        /* \"--CODEGEN--\":6:55   */\n      mstore\n        /* \"contracts/FaisaaToken.sol\":7957:8038  abi.encode(PERMIT_TYPEHASH, owner, spender, rawAmount, nonces[owner]++, deadline) */\n      swap1\n      0x40\n      mstore\n        /* \"contracts/FaisaaToken.sol\":7947:8039  keccak256(abi.encode(PERMIT_TYPEHASH, owner, spender, rawAmount, nonces[owner]++, deadline)) */\n      dup1\n      mload\n      swap1\n      0x20\n      add\n      keccak256\n        /* \"contracts/FaisaaToken.sol\":7926:8039  bytes32 structHash = keccak256(abi.encode(PERMIT_TYPEHASH, owner, spender, rawAmount, nonces[owner]++, deadline)) */\n      swap1\n      pop\n        /* \"contracts/FaisaaToken.sol\":8050:8064  bytes32 digest */\n      0x00\n        /* \"contracts/FaisaaToken.sol\":8106:8121  domainSeparator */\n      dup3\n        /* \"contracts/FaisaaToken.sol\":8123:8133  structHash */\n      dup3\n        /* \"contracts/FaisaaToken.sol\":8077:8134  abi.encodePacked(\"\\x19\\x01\", domainSeparator, structHash) */\n      add(0x20, mload(0x40))\n      dup1\n      dup1\n      0x1901000000000000000000000000000000000000000000000000000000000000\n      dup2\n      mstore\n      pop\n      0x02\n      add\n      dup4\n      dup2\n      mstore\n      0x20\n      add\n      dup3\n      dup2\n      mstore\n      0x20\n      add\n      swap3\n      pop\n      pop\n      pop\n      mload(0x40)\n        /* \"--CODEGEN--\":49:53   */\n      0x20\n        /* \"--CODEGEN--\":39:46   */\n      dup2\n        /* \"--CODEGEN--\":30:37   */\n      dup4\n        /* \"--CODEGEN--\":26:47   */\n      sub\n        /* \"--CODEGEN--\":22:54   */\n      sub\n        /* \"--CODEGEN--\":13:20   */\n      dup2\n        /* \"--CODEGEN--\":6:55   */\n      mstore\n        /* \"contracts/FaisaaToken.sol\":8077:8134  abi.encodePacked(\"\\x19\\x01\", domainSeparator, structHash) */\n      swap1\n      0x40\n      mstore\n        /* \"contracts/FaisaaToken.sol\":8067:8135  keccak256(abi.encodePacked(\"\\x19\\x01\", domainSeparator, structHash)) */\n      dup1\n      mload\n      swap1\n      0x20\n      add\n      keccak256\n        /* \"contracts/FaisaaToken.sol\":8050:8135  bytes32 digest = keccak256(abi.encodePacked(\"\\x19\\x01\", domainSeparator, structHash)) */\n      swap1\n      pop\n        /* \"contracts/FaisaaToken.sol\":8146:8163  address signatory */\n      0x00\n        /* \"contracts/FaisaaToken.sol\":8166:8192  ecrecover(digest, v, r, s) */\n      0x01\n        /* \"contracts/FaisaaToken.sol\":8176:8182  digest */\n      dup3\n        /* \"contracts/FaisaaToken.sol\":8184:8185  v */\n      dup10\n        /* \"contracts/FaisaaToken.sol\":8187:8188  r */\n      dup10\n        /* \"contracts/FaisaaToken.sol\":8190:8191  s */\n      dup10\n        /* \"contracts/FaisaaToken.sol\":8166:8192  ecrecover(digest, v, r, s) */\n      mload(0x40)\n      0x00\n      dup2\n      mstore\n      0x20\n      add\n      0x40\n      mstore\n      mload(0x40)\n      dup1\n      dup6\n      dup2\n      mstore\n      0x20\n      add\n      dup5\n      0xff\n      and\n      0xff\n      and\n      dup2\n      mstore\n      0x20\n      add\n      dup4\n      dup2\n      mstore\n      0x20\n      add\n      dup3\n      dup2\n      mstore\n      0x20\n      add\n      swap5\n      pop\n      pop\n      pop\n      pop\n      pop\n      0x20\n      mload(0x40)\n      0x20\n      dup2\n      sub\n      swap1\n      dup1\n      dup5\n      sub\n      swap1\n      dup6\n      gas\n      staticcall\n      iszero\n        /* \"--CODEGEN--\":8:17   */\n      dup1\n        /* \"--CODEGEN--\":5:7   */\n      iszero\n      tag_178\n      jumpi\n        /* \"--CODEGEN--\":45:61   */\n      returndatasize\n        /* \"--CODEGEN--\":42:43   */\n      0x00\n        /* \"--CODEGEN--\":39:40   */\n      dup1\n        /* \"--CODEGEN--\":24:62   */\n      returndatacopy\n        /* \"--CODEGEN--\":77:93   */\n      returndatasize\n        /* \"--CODEGEN--\":74:75   */\n      0x00\n        /* \"--CODEGEN--\":67:94   */\n      revert\n        /* \"--CODEGEN--\":5:7   */\n    tag_178:\n      pop\n      pop\n        /* \"contracts/FaisaaToken.sol\":8166:8192  ecrecover(digest, v, r, s) */\n      mload(add(0xffffffffffffffffffffffffffffffffffffffffffffffffffffffffffffffe0, mload(0x40)))\n      swap2\n      pop\n      pop\n      sub(shl(0xa0, 0x01), 0x01)\n        /* \"contracts/FaisaaToken.sol\":8211:8234  signatory != address(0) */\n      dup2\n      and\n        /* \"contracts/FaisaaToken.sol\":8203:8272  require(signatory != address(0), \"Faisaa::permit: invalid signature\") */\n      tag_179\n      jumpi\n      mload(0x40)\n      shl(0xe5, 0x461bcd)\n      dup2\n      mstore\n      0x04\n      add\n      dup1\n      dup1\n      0x20\n      add\n      dup3\n      dup2\n      sub\n      dup3\n      mstore\n      0x21\n      dup2\n      mstore\n      0x20\n      add\n      dup1\n      data_7bba7b7f3786cb16c894e9f3d17e6938ea20c55fb0d256b4342cf8e91cd2677e\n      0x21\n      swap2\n      codecopy\n      0x40\n      add\n      swap2\n      pop\n      pop\n      mload(0x40)\n      dup1\n      swap2\n      sub\n      swap1\n      revert\n    tag_179:\n        /* \"contracts/FaisaaToken.sol\":8304:8309  owner */\n      dup12\n      sub(shl(0xa0, 0x01), 0x01)\n        /* \"contracts/FaisaaToken.sol\":8291:8309  signatory == owner */\n      and\n        /* \"contracts/FaisaaToken.sol\":8291:8300  signatory */\n      dup2\n      sub(shl(0xa0, 0x01), 0x01)\n        /* \"contracts/FaisaaToken.sol\":8291:8309  signatory == owner */\n      and\n      eq\n        /* \"contracts/FaisaaToken.sol\":8283:8342  require(signatory == owner, \"Faisaa::permit: unauthorized\") */\n      tag_180\n      jumpi\n      0x40\n      dup1\n      mload\n      shl(0xe5, 0x461bcd)\n      dup2\n      mstore\n      0x20\n      0x04\n      dup3\n      add\n      mstore\n      0x1c\n      0x24\n      dup3\n      add\n      mstore\n      0x4661697361613a3a7065726d69743a20756e617574686f72697a656400000000\n      0x44\n      dup3\n      add\n      mstore\n      swap1\n      mload\n      swap1\n      dup2\n      swap1\n      sub\n      0x64\n      add\n      swap1\n      revert\n    tag_180:\n        /* \"contracts/FaisaaToken.sol\":8368:8376  deadline */\n      dup9\n        /* \"contracts/FaisaaToken.sol\":8361:8364  now */\n      timestamp\n        /* \"contracts/FaisaaToken.sol\":8361:8376  now <= deadline */\n      gt\n      iszero\n        /* \"contracts/FaisaaToken.sol\":8353:8414  require(now <= deadline, \"Faisaa::permit: signature expired\") */\n      tag_181\n      jumpi\n      mload(0x40)\n      shl(0xe5, 0x461bcd)\n      dup2\n      mstore\n      0x04\n      add\n      dup1\n      dup1\n      0x20\n      add\n      dup3\n      dup2\n      sub\n      dup3\n      mstore\n      0x21\n      dup2\n      mstore\n      0x20\n      add\n      dup1\n      data_66d321922337c5b7814f518438c8464c8efbbb77ade775957918251086a37924\n      0x21\n      swap2\n      codecopy\n      0x40\n      add\n      swap2\n      pop\n      pop\n      mload(0x40)\n      dup1\n      swap2\n      sub\n      swap1\n      revert\n    tag_181:\n        /* \"contracts/FaisaaToken.sol\":8456:8462  amount */\n      dup5\n        /* \"contracts/FaisaaToken.sol\":8427:8437  allowances */\n      0x03\n        /* \"contracts/FaisaaToken.sol\":8427:8444  allowances[owner] */\n      0x00\n        /* \"contracts/FaisaaToken.sol\":8438:8443  owner */\n      dup15\n      sub(shl(0xa0, 0x01), 0x01)\n        /* \"contracts/FaisaaToken.sol\":8427:8444  allowances[owner] */\n      and\n      sub(shl(0xa0, 0x01), 0x01)\n      and\n      dup2\n      mstore\n      0x20\n      add\n      swap1\n      dup2\n      mstore\n      0x20\n      add\n      0x00\n      keccak256\n        /* \"contracts/FaisaaToken.sol\":8427:8453  allowances[owner][spender] */\n      0x00\n        /* \"contracts/FaisaaToken.sol\":8445:8452  spender */\n      dup14\n      sub(shl(0xa0, 0x01), 0x01)\n        /* \"contracts/FaisaaToken.sol\":8427:8453  allowances[owner][spender] */\n      and\n      sub(shl(0xa0, 0x01), 0x01)\n      and\n      dup2\n      mstore\n      0x20\n      add\n      swap1\n      dup2\n      mstore\n      0x20\n      add\n      0x00\n      keccak256\n      0x00\n        /* \"contracts/FaisaaToken.sol\":8427:8462  allowances[owner][spender] = amount */\n      0x0100\n      exp\n      dup2\n      sload\n      dup2\n      0xffffffffffffffffffffffff\n      mul\n      not\n      and\n      swap1\n      dup4\n      0xffffffffffffffffffffffff\n      and\n      mul\n      or\n      swap1\n      sstore\n      pop\n        /* \"contracts/FaisaaToken.sol\":8496:8503  spender */\n      dup11\n      sub(shl(0xa0, 0x01), 0x01)\n        /* \"contracts/FaisaaToken.sol\":8480:8512  Approval(owner, spender, amount) */\n      and\n        /* \"contracts/FaisaaToken.sol\":8489:8494  owner */\n      dup13\n      sub(shl(0xa0, 0x01), 0x01)\n        /* \"contracts/FaisaaToken.sol\":8480:8512  Approval(owner, spender, amount) */\n      and\n      0x8c5be1e5ebec7d5bd14f71427d1e84f3dd0314c0f7b2291e5b200ac8c7c3b925\n        /* \"contracts/FaisaaToken.sol\":8505:8511  amount */\n      dup8\n        /* \"contracts/FaisaaToken.sol\":8480:8512  Approval(owner, spender, amount) */\n      mload(0x40)\n      dup1\n      dup3\n      0xffffffffffffffffffffffff\n      and\n      dup2\n      mstore\n      0x20\n      add\n      swap2\n      pop\n      pop\n      mload(0x40)\n      dup1\n      swap2\n      sub\n      swap1\n      log3\n        /* \"contracts/FaisaaToken.sol\":7458:8520  function permit(address owner, address spender, uint rawAmount, uint deadline, uint8 v, bytes32 r, bytes32 s) external {\r... */\n      pop\n      pop\n      pop\n      pop\n      pop\n      pop\n      pop\n      pop\n      pop\n      pop\n      pop\n      pop\n      jump\t// out\n        /* \"contracts/FaisaaToken.sol\":5933:6069  function allowance(address account, address spender) external view returns (uint) {\r... */\n    tag_106:\n      sub(shl(0xa0, 0x01), 0x01)\n        /* \"contracts/FaisaaToken.sol\":6033:6052  allowances[account] */\n      swap2\n      dup3\n      and\n        /* \"contracts/FaisaaToken.sol\":6009:6013  uint */\n      0x00\n        /* \"contracts/FaisaaToken.sol\":6033:6052  allowances[account] */\n      swap1\n      dup2\n      mstore\n        /* \"contracts/FaisaaToken.sol\":6033:6043  allowances */\n      0x03\n        /* \"contracts/FaisaaToken.sol\":6033:6052  allowances[account] */\n      0x20\n      swap1\n      dup2\n      mstore\n      0x40\n      dup1\n      dup4\n      keccak256\n        /* \"contracts/FaisaaToken.sol\":6033:6061  allowances[account][spender] */\n      swap4\n      swap1\n      swap5\n      and\n      dup3\n      mstore\n      swap2\n      swap1\n      swap2\n      mstore\n      keccak256\n      sload\n      0xffffffffffffffffffffffff\n      and\n      swap1\n        /* \"contracts/FaisaaToken.sol\":5933:6069  function allowance(address account, address spender) external view returns (uint) {\r... */\n      jump\t// out\n        /* \"contracts/FaisaaToken.sol\":2040:2157  bytes32 public constant DELEGATION_TYPEHASH = keccak256(\"Delegation(address delegatee,uint256 nonce,uint256 expiry)\") */\n    tag_108:\n        /* \"contracts/FaisaaToken.sol\":2086:2157  keccak256(\"Delegation(address delegatee,uint256 nonce,uint256 expiry)\") */\n      mload(0x40)\n      dup1\n      0x3a\n      data_e48329057bfd03d55e49b547132e39cffd9c1820ad7b9d4c5307691425d15adf\n      dup3\n      codecopy\n      0x3a\n      add\n      swap1\n      pop\n      mload(0x40)\n      dup1\n      swap2\n      sub\n      swap1\n      keccak256\n        /* \"contracts/FaisaaToken.sol\":2040:2157  bytes32 public constant DELEGATION_TYPEHASH = keccak256(\"Delegation(address delegatee,uint256 nonce,uint256 expiry)\") */\n      dup2\n      jump\t// out\n        /* \"contracts/FaisaaToken.sol\":1563:1633  mapping (address => mapping (uint32 => Checkpoint)) public checkpoints */\n    tag_111:\n      0x06\n      0x20\n      swap1\n      dup2\n      mstore\n      0x00\n      swap3\n      dup4\n      mstore\n      0x40\n      dup1\n      dup5\n      keccak256\n      swap1\n      swap2\n      mstore\n      swap1\n      dup3\n      mstore\n      swap1\n      keccak256\n      sload\n      0xffffffff\n      dup2\n      and\n      swap1\n      0x0100000000\n      swap1\n      div\n      0xffffffffffffffffffffffff\n      and\n      dup3\n      jump\t// out\n        /* \"contracts/FaisaaToken.sol\":4139:4373  function setMinter(address minter_) external {\r... */\n    tag_114:\n        /* \"contracts/FaisaaToken.sol\":4217:4223  minter */\n      and(sub(shl(0xa0, 0x01), 0x01), sload(0x01))\n        /* \"contracts/FaisaaToken.sol\":4203:4213  msg.sender */\n      caller\n        /* \"contracts/FaisaaToken.sol\":4203:4223  msg.sender == minter */\n      eq\n        /* \"contracts/FaisaaToken.sol\":4195:4292  require(msg.sender == minter, \"Faisaa::setMinter: only the minter can change the minter address\") */\n      tag_184\n      jumpi\n      mload(0x40)\n      shl(0xe5, 0x461bcd)\n      dup2\n      mstore\n      0x04\n      add\n      dup1\n      dup1\n      0x20\n      add\n      dup3\n      dup2\n      sub\n      dup3\n      mstore\n      0x40\n      dup2\n      mstore\n      0x20\n      add\n      dup1\n      data_6856bf735a26f81aa3418108149773825e6954c4c601de22633b87a95b09de31\n      0x40\n      swap2\n      codecopy\n      0x40\n      add\n      swap2\n      pop\n      pop\n      mload(0x40)\n      dup1\n      swap2\n      sub\n      swap1\n      revert\n    tag_184:\n        /* \"contracts/FaisaaToken.sol\":4322:4328  minter */\n      sload(0x01)\n        /* \"contracts/FaisaaToken.sol\":4308:4338  MinterChanged(minter, minter_) */\n      0x40\n      dup1\n      mload\n      sub(shl(0xa0, 0x01), 0x01)\n        /* \"contracts/FaisaaToken.sol\":4322:4328  minter */\n      swap3\n      dup4\n      and\n        /* \"contracts/FaisaaToken.sol\":4308:4338  MinterChanged(minter, minter_) */\n      dup2\n      mstore\n      swap2\n      dup4\n      and\n      0x20\n      dup4\n      add\n      mstore\n      dup1\n      mload\n      0x3b0007eb941cf645526cbb3a4fdaecda9d28ce4843167d9263b536a1f1edc0f6\n      swap3\n      dup2\n      swap1\n      sub\n      swap1\n      swap2\n      add\n      swap1\n      log1\n        /* \"contracts/FaisaaToken.sol\":4349:4355  minter */\n      0x01\n        /* \"contracts/FaisaaToken.sol\":4349:4365  minter = minter_ */\n      dup1\n      sload\n      0xffffffffffffffffffffffff0000000000000000000000000000000000000000\n      and\n      sub(shl(0xa0, 0x01), 0x01)\n      swap3\n      swap1\n      swap3\n      and\n      swap2\n      swap1\n      swap2\n      or\n      swap1\n      sstore\n        /* \"contracts/FaisaaToken.sol\":4139:4373  function setMinter(address minter_) external {\r... */\n      jump\t// out\n        /* \"contracts/FaisaaToken.sol\":16654:16815  function safe96(uint n, string memory errorMessage) internal pure returns (uint96) {\r... */\n    tag_119:\n        /* \"contracts/FaisaaToken.sol\":16729:16735  uint96 */\n      0x00\n        /* \"contracts/FaisaaToken.sol\":16767:16779  errorMessage */\n      dup2\n        /* \"contracts/FaisaaToken.sol\":16760:16765  2**96 */\n      0x01000000000000000000000000\n        /* \"contracts/FaisaaToken.sol\":16756:16765  n < 2**96 */\n      dup5\n      lt\n        /* \"contracts/FaisaaToken.sol\":16748:16780  require(n < 2**96, errorMessage) */\n      tag_186\n      jumpi\n      mload(0x40)\n      shl(0xe5, 0x461bcd)\n      dup2\n      mstore\n      0x04\n      add\n      dup1\n      dup1\n      0x20\n      add\n      dup3\n      dup2\n      sub\n      dup3\n      mstore\n      dup4\n      dup2\n      dup2\n      mload\n      dup2\n      mstore\n      0x20\n      add\n      swap2\n      pop\n      dup1\n      mload\n      swap1\n      0x20\n      add\n      swap1\n      dup1\n      dup4\n      dup4\n        /* \"--CODEGEN--\":23:24   */\n      0x00\n        /* \"--CODEGEN--\":8:108   */\n    tag_187:\n        /* \"--CODEGEN--\":33:36   */\n      dup4\n        /* \"--CODEGEN--\":30:31   */\n      dup2\n        /* \"--CODEGEN--\":27:37   */\n      lt\n        /* \"--CODEGEN--\":8:108   */\n      iszero\n      tag_189\n      jumpi\n        /* \"--CODEGEN--\":90:101   */\n      dup2\n      dup2\n      add\n        /* \"--CODEGEN--\":84:102   */\n      mload\n        /* \"--CODEGEN--\":71:82   */\n      dup4\n      dup3\n      add\n        /* \"--CODEGEN--\":64:103   */\n      mstore\n        /* \"--CODEGEN--\":52:54   */\n      0x20\n        /* \"--CODEGEN--\":45:55   */\n      add\n        /* \"--CODEGEN--\":8:108   */\n      jump(tag_187)\n    tag_189:\n        /* \"--CODEGEN--\":12:26   */\n      pop\n        /* \"contracts/FaisaaToken.sol\":16748:16780  require(n < 2**96, errorMessage) */\n      pop\n      pop\n      pop\n      swap1\n      pop\n      swap1\n      dup2\n      add\n      swap1\n      0x1f\n      and\n      dup1\n      iszero\n      tag_190\n      jumpi\n      dup1\n      dup3\n      sub\n      dup1\n      mload\n      0x01\n      dup4\n      0x20\n      sub\n      0x0100\n      exp\n      sub\n      not\n      and\n      dup2\n      mstore\n      0x20\n      add\n      swap2\n      pop\n    tag_190:\n      pop\n      swap3\n      pop\n      pop\n      pop\n      mload(0x40)\n      dup1\n      swap2\n      sub\n      swap1\n      revert\n    tag_186:\n      pop\n        /* \"contracts/FaisaaToken.sol\":16805:16806  n */\n      swap2\n      swap3\n        /* \"contracts/FaisaaToken.sol\":16654:16815  function safe96(uint n, string memory errorMessage) internal pure returns (uint96) {\r... */\n      swap2\n      pop\n      pop\n      jump\t// out\n        /* \"contracts/FaisaaToken.sol\":17019:17184  function sub96(uint96 a, uint96 b, string memory errorMessage) internal pure returns (uint96) {\r... */\n    tag_125:\n        /* \"contracts/FaisaaToken.sol\":17105:17111  uint96 */\n      0x00\n        /* \"contracts/FaisaaToken.sol\":17137:17138  a */\n      dup4\n        /* \"contracts/FaisaaToken.sol\":17132:17138  b <= a */\n      0xffffffffffffffffffffffff\n      and\n        /* \"contracts/FaisaaToken.sol\":17132:17133  b */\n      dup4\n        /* \"contracts/FaisaaToken.sol\":17132:17138  b <= a */\n      0xffffffffffffffffffffffff\n      and\n      gt\n      iszero\n        /* \"contracts/FaisaaToken.sol\":17140:17152  errorMessage */\n      dup3\n        /* \"contracts/FaisaaToken.sol\":17124:17153  require(b <= a, errorMessage) */\n      swap1\n      tag_192\n      jumpi\n      mload(0x40)\n      shl(0xe5, 0x461bcd)\n      dup2\n      mstore\n      0x20\n      0x04\n      dup3\n      add\n      dup2\n      dup2\n      mstore\n      dup4\n      mload\n      0x24\n      dup5\n      add\n      mstore\n      dup4\n      mload\n      swap1\n      swap3\n      dup4\n      swap3\n      0x44\n      swap1\n      swap2\n      add\n      swap2\n      swap1\n      dup6\n      add\n      swap1\n      dup1\n      dup4\n      dup4\n      0x00\n        /* \"--CODEGEN--\":27:37   */\n      dup4\n      iszero\n        /* \"--CODEGEN--\":8:108   */\n      tag_189\n      jumpi\n        /* \"--CODEGEN--\":90:101   */\n      dup2\n      dup2\n      add\n        /* \"--CODEGEN--\":84:102   */\n      mload\n        /* \"--CODEGEN--\":71:82   */\n      dup4\n      dup3\n      add\n        /* \"--CODEGEN--\":64:103   */\n      mstore\n        /* \"--CODEGEN--\":52:54   */\n      0x20\n        /* \"--CODEGEN--\":45:55   */\n      add\n        /* \"--CODEGEN--\":8:108   */\n      jump(tag_187)\n        /* \"contracts/FaisaaToken.sol\":17124:17153  require(b <= a, errorMessage) */\n    tag_192:\n      pop\n      pop\n      pop\n        /* \"contracts/FaisaaToken.sol\":17171:17176  a - b */\n      swap1\n      sub\n      swap1\n        /* \"contracts/FaisaaToken.sol\":17019:17184  function sub96(uint96 a, uint96 b, string memory errorMessage) internal pure returns (uint96) {\r... */\n      jump\t// out\n        /* \"contracts/FaisaaToken.sol\":14265:14887  function _transferTokens(address src, address dst, uint96 amount) internal {\r... */\n    tag_127:\n      sub(shl(0xa0, 0x01), 0x01)\n        /* \"contracts/FaisaaToken.sol\":14359:14376  src != address(0) */\n      dup4\n      and\n        /* \"contracts/FaisaaToken.sol\":14351:14443  require(src != address(0), \"Faisaa::_transferTokens: cannot transfer from the zero address\") */\n      tag_198\n      jumpi\n      mload(0x40)\n      shl(0xe5, 0x461bcd)\n      dup2\n      mstore\n      0x04\n      add\n      dup1\n      dup1\n      0x20\n      add\n      dup3\n      dup2\n      sub\n      dup3\n      mstore\n      0x3e\n      dup2\n      mstore\n      0x20\n      add\n      dup1\n      data_74df45df00faba5bc1ed7d46b19584c67a1a16fa2b4884024b61f1c877a11495\n      0x3e\n      swap2\n      codecopy\n      0x40\n      add\n      swap2\n      pop\n      pop\n      mload(0x40)\n      dup1\n      swap2\n      sub\n      swap1\n      revert\n    tag_198:\n      sub(shl(0xa0, 0x01), 0x01)\n        /* \"contracts/FaisaaToken.sol\":14462:14479  dst != address(0) */\n      dup3\n      and\n        /* \"contracts/FaisaaToken.sol\":14454:14544  require(dst != address(0), \"Faisaa::_transferTokens: cannot transfer to the zero address\") */\n      tag_199\n      jumpi\n      mload(0x40)\n      shl(0xe5, 0x461bcd)\n      dup2\n      mstore\n      0x04\n      add\n      dup1\n      dup1\n      0x20\n      add\n      dup3\n      dup2\n      sub\n      dup3\n      mstore\n      0x3c\n      dup2\n      mstore\n      0x20\n      add\n      dup1\n      data_4b8291aee6764a0a745b0e353b7b208822ccbb09ab1975dce9e22b9009718407\n      0x3c\n      swap2\n      codecopy\n      0x40\n      add\n      swap2\n      pop\n      pop\n      mload(0x40)\n      dup1\n      swap2\n      sub\n      swap1\n      revert\n    tag_199:\n      sub(shl(0xa0, 0x01), 0x01)\n        /* \"contracts/FaisaaToken.sol\":14579:14592  balances[src] */\n      dup4\n      and\n      0x00\n      swap1\n      dup2\n      mstore\n        /* \"contracts/FaisaaToken.sol\":14579:14587  balances */\n      0x04\n        /* \"contracts/FaisaaToken.sol\":14579:14592  balances[src] */\n      0x20\n      swap1\n      dup2\n      mstore\n      0x40\n      swap2\n      dup3\n      swap1\n      keccak256\n      sload\n        /* \"contracts/FaisaaToken.sol\":14573:14661  sub96(balances[src], amount, \"Faisaa::_transferTokens: transfer amount exceeds balance\") */\n      dup3\n      mload\n      0x60\n      dup2\n      add\n      swap1\n      swap4\n      mstore\n      0x38\n      dup1\n      dup5\n      mstore\n      tag_200\n      swap4\n        /* \"contracts/FaisaaToken.sol\":14579:14592  balances[src] */\n      0xffffffffffffffffffffffff\n      swap1\n      swap3\n      and\n      swap3\n        /* \"contracts/FaisaaToken.sol\":14594:14600  amount */\n      dup6\n      swap3\n        /* \"contracts/FaisaaToken.sol\":14573:14661  sub96(balances[src], amount, \"Faisaa::_transferTokens: transfer amount exceeds balance\") */\n      swap2\n      swap1\n      data_43ed79fb8577a7fd423a8b2881d6391af07471b5737d457346ebe6ee6b0cee9e\n      swap1\n      dup4\n      add\n      codecopy\n        /* \"contracts/FaisaaToken.sol\":14573:14578  sub96 */\n      tag_125\n        /* \"contracts/FaisaaToken.sol\":14573:14661  sub96(balances[src], amount, \"Faisaa::_transferTokens: transfer amount exceeds balance\") */\n      jump\t// in\n    tag_200:\n      sub(shl(0xa0, 0x01), 0x01)\n        /* \"contracts/FaisaaToken.sol\":14557:14570  balances[src] */\n      dup5\n      dup2\n      and\n      0x00\n      swap1\n      dup2\n      mstore\n        /* \"contracts/FaisaaToken.sol\":14557:14565  balances */\n      0x04\n        /* \"contracts/FaisaaToken.sol\":14557:14570  balances[src] */\n      0x20\n      swap1\n      dup2\n      mstore\n      0x40\n      dup1\n      dup4\n      keccak256\n        /* \"contracts/FaisaaToken.sol\":14557:14661  balances[src] = sub96(balances[src], amount, \"Faisaa::_transferTokens: transfer amount exceeds balance\") */\n      dup1\n      sload\n      0xffffffffffffffffffffffffffffffffffffffff000000000000000000000000\n      and\n      0xffffffffffffffffffffffff\n      swap7\n      dup8\n      and\n      or\n      swap1\n      sstore\n        /* \"contracts/FaisaaToken.sol\":14694:14707  balances[dst] */\n      swap3\n      dup7\n      and\n      dup3\n      mstore\n      swap1\n      dup3\n      swap1\n      keccak256\n      sload\n        /* \"contracts/FaisaaToken.sol\":14688:14770  add96(balances[dst], amount, \"Faisaa::_transferTokens: transfer amount overflows\") */\n      dup3\n      mload\n      0x60\n      dup2\n      add\n      swap1\n      swap4\n      mstore\n      0x32\n      dup1\n      dup5\n      mstore\n      tag_201\n      swap5\n        /* \"contracts/FaisaaToken.sol\":14694:14707  balances[dst] */\n      swap2\n      swap1\n      swap2\n      and\n      swap3\n        /* \"contracts/FaisaaToken.sol\":14709:14715  amount */\n      dup6\n      swap3\n        /* \"contracts/FaisaaToken.sol\":14688:14770  add96(balances[dst], amount, \"Faisaa::_transferTokens: transfer amount overflows\") */\n      swap1\n      swap2\n      swap1\n      data_2916bd5d9f3a5329c4fa4d99e766ef3046ffc185f6f1990dafcd61d8c37227ba\n      swap1\n      dup4\n      add\n      codecopy\n        /* \"contracts/FaisaaToken.sol\":14688:14693  add96 */\n      tag_138\n        /* \"contracts/FaisaaToken.sol\":14688:14770  add96(balances[dst], amount, \"Faisaa::_transferTokens: transfer amount overflows\") */\n      jump\t// in\n    tag_201:\n      sub(shl(0xa0, 0x01), 0x01)\n        /* \"contracts/FaisaaToken.sol\":14672:14685  balances[dst] */\n      dup4\n      dup2\n      and\n      0x00\n      dup2\n      dup2\n      mstore\n        /* \"contracts/FaisaaToken.sol\":14672:14680  balances */\n      0x04\n        /* \"contracts/FaisaaToken.sol\":14672:14685  balances[dst] */\n      0x20\n      swap1\n      dup2\n      mstore\n      0x40\n      swap2\n      dup3\n      swap1\n      keccak256\n        /* \"contracts/FaisaaToken.sol\":14672:14770  balances[dst] = add96(balances[dst], amount, \"Faisaa::_transferTokens: transfer amount overflows\") */\n      dup1\n      sload\n      0xffffffffffffffffffffffffffffffffffffffff000000000000000000000000\n      and\n      0xffffffffffffffffffffffff\n      swap7\n      dup8\n      and\n      or\n      swap1\n      sstore\n        /* \"contracts/FaisaaToken.sol\":14786:14812  Transfer(src, dst, amount) */\n      dup2\n      mload\n      swap5\n      dup7\n      and\n      dup6\n      mstore\n      swap1\n      mload\n        /* \"contracts/FaisaaToken.sol\":14672:14685  balances[dst] */\n      swap2\n      swap4\n        /* \"contracts/FaisaaToken.sol\":14786:14812  Transfer(src, dst, amount) */\n      swap3\n      dup8\n      and\n      swap3\n      0xddf252ad1be2c89b69c2b068fc378daa952ba7f163c4a11628f55a4df523b3ef\n      swap3\n      swap1\n      dup2\n      swap1\n      sub\n      swap1\n      swap2\n      add\n      swap1\n      log3\n      sub(shl(0xa0, 0x01), 0x01)\n        /* \"contracts/FaisaaToken.sol\":14840:14854  delegates[src] */\n      dup1\n      dup5\n      and\n      0x00\n      swap1\n      dup2\n      mstore\n        /* \"contracts/FaisaaToken.sol\":14840:14849  delegates */\n      0x05\n        /* \"contracts/FaisaaToken.sol\":14840:14854  delegates[src] */\n      0x20\n      mstore\n      0x40\n      dup1\n      dup3\n      keccak256\n      sload\n        /* \"contracts/FaisaaToken.sol\":14856:14870  delegates[dst] */\n      dup6\n      dup5\n      and\n      dup4\n      mstore\n      swap2\n      keccak256\n      sload\n        /* \"contracts/FaisaaToken.sol\":14825:14879  _moveDelegates(delegates[src], delegates[dst], amount) */\n      tag_139\n      swap3\n        /* \"contracts/FaisaaToken.sol\":14840:14854  delegates[src] */\n      swap2\n      dup3\n      and\n      swap2\n        /* \"contracts/FaisaaToken.sol\":14856:14870  delegates[dst] */\n      and\n        /* \"contracts/FaisaaToken.sol\":14872:14878  amount */\n      dup4\n        /* \"contracts/FaisaaToken.sol\":14825:14839  _moveDelegates */\n      tag_140\n        /* \"contracts/FaisaaToken.sol\":14825:14879  _moveDelegates(delegates[src], delegates[dst], amount) */\n      jump\t// in\n        /* \"contracts/libraries/SafeMath.sol\":155:281  function add(uint x, uint y) internal pure returns (uint z) {... */\n    tag_133:\n        /* \"contracts/libraries/SafeMath.sol\":238:243  x + y */\n      dup1\n      dup3\n      add\n        /* \"contracts/libraries/SafeMath.sol\":233:249  (z = x + y) >= x */\n      dup3\n      dup2\n      lt\n      iszero\n        /* \"contracts/libraries/SafeMath.sol\":225:274  require((z = x + y) >= x, 'ds-math-add-overflow') */\n      tag_115\n      jumpi\n      0x40\n      dup1\n      mload\n      shl(0xe5, 0x461bcd)\n      dup2\n      mstore\n      0x20\n      0x04\n      dup3\n      add\n      mstore\n      0x14\n      0x24\n      dup3\n      add\n      mstore\n      0x64732d6d6174682d6164642d6f766572666c6f77000000000000000000000000\n      0x44\n      dup3\n      add\n      mstore\n      swap1\n      mload\n      swap1\n      dup2\n      swap1\n      sub\n      0x64\n      add\n      swap1\n      revert\n        /* \"contracts/FaisaaToken.sol\":16823:17011  function add96(uint96 a, uint96 b, string memory errorMessage) internal pure returns (uint96) {\r... */\n    tag_138:\n        /* \"contracts/FaisaaToken.sol\":16909:16915  uint96 */\n      0x00\n        /* \"contracts/FaisaaToken.sol\":16939:16944  a + b */\n      dup4\n      dup4\n      add\n        /* \"contracts/FaisaaToken.sol\":16971:16983  errorMessage */\n      dup3\n        /* \"contracts/FaisaaToken.sol\":16963:16969  c >= a */\n      0xffffffffffffffffffffffff\n      dup1\n      dup8\n      and\n      swap1\n      dup4\n      and\n      lt\n      iszero\n        /* \"contracts/FaisaaToken.sol\":16955:16984  require(c >= a, errorMessage) */\n      tag_206\n      jumpi\n      mload(0x40)\n      shl(0xe5, 0x461bcd)\n      dup2\n      mstore\n      0x20\n      0x04\n      dup3\n      add\n      dup2\n      dup2\n      mstore\n      dup4\n      mload\n      0x24\n      dup5\n      add\n      mstore\n      dup4\n      mload\n      swap1\n      swap3\n      dup4\n      swap3\n      0x44\n      swap1\n      swap2\n      add\n      swap2\n      swap1\n      dup6\n      add\n      swap1\n      dup1\n      dup4\n      dup4\n      0x00\n        /* \"--CODEGEN--\":27:37   */\n      dup4\n      iszero\n        /* \"--CODEGEN--\":8:108   */\n      tag_189\n      jumpi\n        /* \"--CODEGEN--\":90:101   */\n      dup2\n      dup2\n      add\n        /* \"--CODEGEN--\":84:102   */\n      mload\n        /* \"--CODEGEN--\":71:82   */\n      dup4\n      dup3\n      add\n        /* \"--CODEGEN--\":64:103   */\n      mstore\n        /* \"--CODEGEN--\":52:54   */\n      0x20\n        /* \"--CODEGEN--\":45:55   */\n      add\n        /* \"--CODEGEN--\":8:108   */\n      jump(tag_187)\n        /* \"contracts/FaisaaToken.sol\":16955:16984  require(c >= a, errorMessage) */\n    tag_206:\n      pop\n        /* \"contracts/FaisaaToken.sol\":17002:17003  c */\n      swap5\n        /* \"contracts/FaisaaToken.sol\":16823:17011  function add96(uint96 a, uint96 b, string memory errorMessage) internal pure returns (uint96) {\r... */\n      swap4\n      pop\n      pop\n      pop\n      pop\n      jump\t// out\n        /* \"contracts/FaisaaToken.sol\":14895:15838  function _moveDelegates(address srcRep, address dstRep, uint96 amount) internal {\r... */\n    tag_140:\n        /* \"contracts/FaisaaToken.sol\":15000:15006  dstRep */\n      dup2\n      sub(shl(0xa0, 0x01), 0x01)\n        /* \"contracts/FaisaaToken.sol\":14990:15006  srcRep != dstRep */\n      and\n        /* \"contracts/FaisaaToken.sol\":14990:14996  srcRep */\n      dup4\n      sub(shl(0xa0, 0x01), 0x01)\n        /* \"contracts/FaisaaToken.sol\":14990:15006  srcRep != dstRep */\n      and\n      eq\n      iszero\n        /* \"contracts/FaisaaToken.sol\":14990:15020  srcRep != dstRep && amount > 0 */\n      dup1\n      iszero\n      tag_212\n      jumpi\n      pop\n        /* \"contracts/FaisaaToken.sol\":15019:15020  0 */\n      0x00\n        /* \"contracts/FaisaaToken.sol\":15010:15016  amount */\n      dup2\n        /* \"contracts/FaisaaToken.sol\":15010:15020  amount > 0 */\n      0xffffffffffffffffffffffff\n      and\n      gt\n        /* \"contracts/FaisaaToken.sol\":14990:15020  srcRep != dstRep && amount > 0 */\n    tag_212:\n        /* \"contracts/FaisaaToken.sol\":14986:15831  if (srcRep != dstRep && amount > 0) {\r... */\n      iszero\n      tag_139\n      jumpi\n      sub(shl(0xa0, 0x01), 0x01)\n        /* \"contracts/FaisaaToken.sol\":15041:15061  srcRep != address(0) */\n      dup4\n      and\n      iszero\n        /* \"contracts/FaisaaToken.sol\":15037:15421  if (srcRep != address(0)) {\r... */\n      tag_214\n      jumpi\n      sub(shl(0xa0, 0x01), 0x01)\n        /* \"contracts/FaisaaToken.sol\":15101:15123  numCheckpoints[srcRep] */\n      dup4\n      and\n        /* \"contracts/FaisaaToken.sol\":15082:15098  uint32 srcRepNum */\n      0x00\n        /* \"contracts/FaisaaToken.sol\":15101:15123  numCheckpoints[srcRep] */\n      swap1\n      dup2\n      mstore\n        /* \"contracts/FaisaaToken.sol\":15101:15115  numCheckpoints */\n      0x07\n        /* \"contracts/FaisaaToken.sol\":15101:15123  numCheckpoints[srcRep] */\n      0x20\n      mstore\n      0x40\n      dup2\n      keccak256\n      sload\n      0xffffffff\n      and\n      swap1\n        /* \"contracts/FaisaaToken.sol\":15161:15174  srcRepNum > 0 */\n      dup2\n        /* \"contracts/FaisaaToken.sol\":15161:15221  srcRepNum > 0 ? checkpoints[srcRep][srcRepNum - 1].votes : 0 */\n      tag_215\n      jumpi\n        /* \"contracts/FaisaaToken.sol\":15220:15221  0 */\n      0x00\n        /* \"contracts/FaisaaToken.sol\":15161:15221  srcRepNum > 0 ? checkpoints[srcRep][srcRepNum - 1].votes : 0 */\n      jump(tag_216)\n    tag_215:\n      sub(shl(0xa0, 0x01), 0x01)\n        /* \"contracts/FaisaaToken.sol\":15177:15196  checkpoints[srcRep] */\n      dup6\n      and\n      0x00\n      swap1\n      dup2\n      mstore\n        /* \"contracts/FaisaaToken.sol\":15177:15188  checkpoints */\n      0x06\n        /* \"contracts/FaisaaToken.sol\":15177:15196  checkpoints[srcRep] */\n      0x20\n      swap1\n      dup2\n      mstore\n      0x40\n      dup1\n      dup4\n      keccak256\n      not(0x00)\n        /* \"contracts/FaisaaToken.sol\":15197:15210  srcRepNum - 1 */\n      dup7\n      add\n        /* \"contracts/FaisaaToken.sol\":15177:15211  checkpoints[srcRep][srcRepNum - 1] */\n      0xffffffff\n      and\n      dup5\n      mstore\n      swap1\n      swap2\n      mstore\n      swap1\n      keccak256\n        /* \"contracts/FaisaaToken.sol\":15177:15217  checkpoints[srcRep][srcRepNum - 1].votes */\n      sload\n      0x0100000000\n      swap1\n      div\n      0xffffffffffffffffffffffff\n      and\n        /* \"contracts/FaisaaToken.sol\":15161:15221  srcRepNum > 0 ? checkpoints[srcRep][srcRepNum - 1].votes : 0 */\n    tag_216:\n        /* \"contracts/FaisaaToken.sol\":15142:15221  uint96 srcRepOld = srcRepNum > 0 ? checkpoints[srcRep][srcRepNum - 1].votes : 0 */\n      swap1\n      pop\n        /* \"contracts/FaisaaToken.sol\":15240:15256  uint96 srcRepNew */\n      0x00\n        /* \"contracts/FaisaaToken.sol\":15259:15329  sub96(srcRepOld, amount, \"Faisaa::_moveVotes: vote amount underflows\") */\n      tag_217\n        /* \"contracts/FaisaaToken.sol\":15265:15274  srcRepOld */\n      dup3\n        /* \"contracts/FaisaaToken.sol\":15276:15282  amount */\n      dup6\n        /* \"contracts/FaisaaToken.sol\":15259:15329  sub96(srcRepOld, amount, \"Faisaa::_moveVotes: vote amount underflows\") */\n      mload(0x40)\n      dup1\n      0x60\n      add\n      0x40\n      mstore\n      dup1\n      0x2a\n      dup2\n      mstore\n      0x20\n      add\n      data_b50b21b8e6629dceee6e3bfa4e8b2213ec51504b30e82482904829a475f147a4\n      0x2a\n      swap2\n      codecopy\n        /* \"contracts/FaisaaToken.sol\":15259:15264  sub96 */\n      tag_125\n        /* \"contracts/FaisaaToken.sol\":15259:15329  sub96(srcRepOld, amount, \"Faisaa::_moveVotes: vote amount underflows\") */\n      jump\t// in\n    tag_217:\n        /* \"contracts/FaisaaToken.sol\":15240:15329  uint96 srcRepNew = sub96(srcRepOld, amount, \"Faisaa::_moveVotes: vote amount underflows\") */\n      swap1\n      pop\n        /* \"contracts/FaisaaToken.sol\":15348:15405  _writeCheckpoint(srcRep, srcRepNum, srcRepOld, srcRepNew) */\n      tag_218\n        /* \"contracts/FaisaaToken.sol\":15365:15371  srcRep */\n      dup7\n        /* \"contracts/FaisaaToken.sol\":15373:15382  srcRepNum */\n      dup5\n        /* \"contracts/FaisaaToken.sol\":15384:15393  srcRepOld */\n      dup5\n        /* \"contracts/FaisaaToken.sol\":15395:15404  srcRepNew */\n      dup5\n        /* \"contracts/FaisaaToken.sol\":15348:15364  _writeCheckpoint */\n      tag_219\n        /* \"contracts/FaisaaToken.sol\":15348:15405  _writeCheckpoint(srcRep, srcRepNum, srcRepOld, srcRepNew) */\n      jump\t// in\n    tag_218:\n        /* \"contracts/FaisaaToken.sol\":15037:15421  if (srcRep != address(0)) {\r... */\n      pop\n      pop\n      pop\n    tag_214:\n      sub(shl(0xa0, 0x01), 0x01)\n        /* \"contracts/FaisaaToken.sol\":15441:15461  dstRep != address(0) */\n      dup3\n      and\n      iszero\n        /* \"contracts/FaisaaToken.sol\":15437:15820  if (dstRep != address(0)) {\r... */\n      tag_139\n      jumpi\n      sub(shl(0xa0, 0x01), 0x01)\n        /* \"contracts/FaisaaToken.sol\":15501:15523  numCheckpoints[dstRep] */\n      dup3\n      and\n        /* \"contracts/FaisaaToken.sol\":15482:15498  uint32 dstRepNum */\n      0x00\n        /* \"contracts/FaisaaToken.sol\":15501:15523  numCheckpoints[dstRep] */\n      swap1\n      dup2\n      mstore\n        /* \"contracts/FaisaaToken.sol\":15501:15515  numCheckpoints */\n      0x07\n        /* \"contracts/FaisaaToken.sol\":15501:15523  numCheckpoints[dstRep] */\n      0x20\n      mstore\n      0x40\n      dup2\n      keccak256\n      sload\n      0xffffffff\n      and\n      swap1\n        /* \"contracts/FaisaaToken.sol\":15561:15574  dstRepNum > 0 */\n      dup2\n        /* \"contracts/FaisaaToken.sol\":15561:15621  dstRepNum > 0 ? checkpoints[dstRep][dstRepNum - 1].votes : 0 */\n      tag_221\n      jumpi\n        /* \"contracts/FaisaaToken.sol\":15620:15621  0 */\n      0x00\n        /* \"contracts/FaisaaToken.sol\":15561:15621  dstRepNum > 0 ? checkpoints[dstRep][dstRepNum - 1].votes : 0 */\n      jump(tag_222)\n    tag_221:\n      sub(shl(0xa0, 0x01), 0x01)\n        /* \"contracts/FaisaaToken.sol\":15577:15596  checkpoints[dstRep] */\n      dup5\n      and\n      0x00\n      swap1\n      dup2\n      mstore\n        /* \"contracts/FaisaaToken.sol\":15577:15588  checkpoints */\n      0x06\n        /* \"contracts/FaisaaToken.sol\":15577:15596  checkpoints[dstRep] */\n      0x20\n      swap1\n      dup2\n      mstore\n      0x40\n      dup1\n      dup4\n      keccak256\n      not(0x00)\n        /* \"contracts/FaisaaToken.sol\":15597:15610  dstRepNum - 1 */\n      dup7\n      add\n        /* \"contracts/FaisaaToken.sol\":15577:15611  checkpoints[dstRep][dstRepNum - 1] */\n      0xffffffff\n      and\n      dup5\n      mstore\n      swap1\n      swap2\n      mstore\n      swap1\n      keccak256\n        /* \"contracts/FaisaaToken.sol\":15577:15617  checkpoints[dstRep][dstRepNum - 1].votes */\n      sload\n      0x0100000000\n      swap1\n      div\n      0xffffffffffffffffffffffff\n      and\n        /* \"contracts/FaisaaToken.sol\":15561:15621  dstRepNum > 0 ? checkpoints[dstRep][dstRepNum - 1].votes : 0 */\n    tag_222:\n        /* \"contracts/FaisaaToken.sol\":15542:15621  uint96 dstRepOld = dstRepNum > 0 ? checkpoints[dstRep][dstRepNum - 1].votes : 0 */\n      swap1\n      pop\n        /* \"contracts/FaisaaToken.sol\":15640:15656  uint96 dstRepNew */\n      0x00\n        /* \"contracts/FaisaaToken.sol\":15659:15728  add96(dstRepOld, amount, \"Faisaa::_moveVotes: vote amount overflows\") */\n      tag_223\n        /* \"contracts/FaisaaToken.sol\":15665:15674  dstRepOld */\n      dup3\n        /* \"contracts/FaisaaToken.sol\":15676:15682  amount */\n      dup6\n        /* \"contracts/FaisaaToken.sol\":15659:15728  add96(dstRepOld, amount, \"Faisaa::_moveVotes: vote amount overflows\") */\n      mload(0x40)\n      dup1\n      0x60\n      add\n      0x40\n      mstore\n      dup1\n      0x29\n      dup2\n      mstore\n      0x20\n      add\n      data_fc81d128416baf4fee714ec0d5401cbb3caca3ea6e814a2d780d0598ff531954\n      0x29\n      swap2\n      codecopy\n        /* \"contracts/FaisaaToken.sol\":15659:15664  add96 */\n      tag_138\n        /* \"contracts/FaisaaToken.sol\":15659:15728  add96(dstRepOld, amount, \"Faisaa::_moveVotes: vote amount overflows\") */\n      jump\t// in\n    tag_223:\n        /* \"contracts/FaisaaToken.sol\":15640:15728  uint96 dstRepNew = add96(dstRepOld, amount, \"Faisaa::_moveVotes: vote amount overflows\") */\n      swap1\n      pop\n        /* \"contracts/FaisaaToken.sol\":15747:15804  _writeCheckpoint(dstRep, dstRepNum, dstRepOld, dstRepNew) */\n      tag_165\n        /* \"contracts/FaisaaToken.sol\":15764:15770  dstRep */\n      dup6\n        /* \"contracts/FaisaaToken.sol\":15772:15781  dstRepNum */\n      dup5\n        /* \"contracts/FaisaaToken.sol\":15783:15792  dstRepOld */\n      dup5\n        /* \"contracts/FaisaaToken.sol\":15794:15803  dstRepNew */\n      dup5\n        /* \"contracts/FaisaaToken.sol\":15747:15763  _writeCheckpoint */\n      tag_219\n        /* \"contracts/FaisaaToken.sol\":15747:15804  _writeCheckpoint(dstRep, dstRepNum, dstRepOld, dstRepNew) */\n      jump\t// in\n        /* \"contracts/FaisaaToken.sol\":13882:14257  function _delegate(address delegator, address delegatee) internal {\r... */\n    tag_143:\n      sub(shl(0xa0, 0x01), 0x01)\n        /* \"contracts/FaisaaToken.sol\":13985:14005  delegates[delegator] */\n      dup1\n      dup4\n      and\n        /* \"contracts/FaisaaToken.sol\":13959:13982  address currentDelegate */\n      0x00\n        /* \"contracts/FaisaaToken.sol\":13985:14005  delegates[delegator] */\n      dup2\n      dup2\n      mstore\n        /* \"contracts/FaisaaToken.sol\":13985:13994  delegates */\n      0x05\n        /* \"contracts/FaisaaToken.sol\":13985:14005  delegates[delegator] */\n      0x20\n      dup2\n      dup2\n      mstore\n      0x40\n      dup1\n      dup5\n      keccak256\n      dup1\n      sload\n        /* \"contracts/FaisaaToken.sol\":14042:14050  balances */\n      0x04\n        /* \"contracts/FaisaaToken.sol\":14042:14061  balances[delegator] */\n      dup5\n      mstore\n      dup3\n      dup7\n      keccak256\n      sload\n        /* \"contracts/FaisaaToken.sol\":14072:14092  delegates[delegator] */\n      swap5\n      swap1\n      swap4\n      mstore\n        /* \"contracts/FaisaaToken.sol\":14072:14104  delegates[delegator] = delegatee */\n      dup8\n      dup8\n      and\n      0xffffffffffffffffffffffff0000000000000000000000000000000000000000\n      dup5\n      and\n      dup2\n      or\n      swap1\n      swap2\n      sstore\n        /* \"contracts/FaisaaToken.sol\":14122:14176  DelegateChanged(delegator, currentDelegate, delegatee) */\n      swap1\n      mload\n        /* \"contracts/FaisaaToken.sol\":13985:14005  delegates[delegator] */\n      swap2\n      swap1\n      swap6\n      and\n      swap5\n        /* \"contracts/FaisaaToken.sol\":14042:14061  balances[delegator] */\n      0xffffffffffffffffffffffff\n      swap1\n      swap3\n      and\n      swap4\n        /* \"contracts/FaisaaToken.sol\":14072:14104  delegates[delegator] = delegatee */\n      swap2\n      swap3\n        /* \"contracts/FaisaaToken.sol\":13985:14005  delegates[delegator] */\n      dup6\n      swap3\n      swap2\n        /* \"contracts/FaisaaToken.sol\":14122:14176  DelegateChanged(delegator, currentDelegate, delegatee) */\n      0x3134e8a2e6d97e929a7e54011ea5485d7d196dd5f0ba4d4ef95803e8e3fc257f\n      swap2\n        /* \"contracts/FaisaaToken.sol\":13959:13982  address currentDelegate */\n      swap1\n        /* \"contracts/FaisaaToken.sol\":14122:14176  DelegateChanged(delegator, currentDelegate, delegatee) */\n      log4\n        /* \"contracts/FaisaaToken.sol\":14189:14249  _moveDelegates(currentDelegate, delegatee, delegatorBalance) */\n      tag_226\n        /* \"contracts/FaisaaToken.sol\":14204:14219  currentDelegate */\n      dup3\n        /* \"contracts/FaisaaToken.sol\":14221:14230  delegatee */\n      dup5\n        /* \"contracts/FaisaaToken.sol\":14232:14248  delegatorBalance */\n      dup4\n        /* \"contracts/FaisaaToken.sol\":14189:14203  _moveDelegates */\n      tag_140\n        /* \"contracts/FaisaaToken.sol\":14189:14249  _moveDelegates(currentDelegate, delegatee, delegatorBalance) */\n      jump\t// in\n    tag_226:\n        /* \"contracts/FaisaaToken.sol\":13882:14257  function _delegate(address delegator, address delegatee) internal {\r... */\n      pop\n      pop\n      pop\n      pop\n      jump\t// out\n        /* \"contracts/FaisaaToken.sol\":17192:17345  function getChainId() internal pure returns (uint) {\r... */\n    tag_167:\n        /* \"contracts/FaisaaToken.sol\":17302:17311  chainid() */\n      chainid\n        /* \"contracts/FaisaaToken.sol\":17192:17345  function getChainId() internal pure returns (uint) {\r... */\n      swap1\n      jump\t// out\n        /* \"contracts/FaisaaToken.sol\":15846:16477  function _writeCheckpoint(address delegatee, uint32 nCheckpoints, uint96 oldVotes, uint96 newVotes) internal {\r... */\n    tag_219:\n        /* \"contracts/FaisaaToken.sol\":15964:15982  uint32 blockNumber */\n      0x00\n        /* \"contracts/FaisaaToken.sol\":15985:16063  safe32(block.number, \"Faisaa::_writeCheckpoint: block number exceeds 32 bits\") */\n      tag_229\n        /* \"contracts/FaisaaToken.sol\":15992:16004  block.number */\n      number\n        /* \"contracts/FaisaaToken.sol\":15985:16063  safe32(block.number, \"Faisaa::_writeCheckpoint: block number exceeds 32 bits\") */\n      mload(0x40)\n      dup1\n      0x60\n      add\n      0x40\n      mstore\n      dup1\n      0x36\n      dup2\n      mstore\n      0x20\n      add\n      data_b03f8a305451fbc58fdc933bd269d18af5db07650e26a77dc772c6fadf875335\n      0x36\n      swap2\n      codecopy\n        /* \"contracts/FaisaaToken.sol\":15985:15991  safe32 */\n      tag_230\n        /* \"contracts/FaisaaToken.sol\":15985:16063  safe32(block.number, \"Faisaa::_writeCheckpoint: block number exceeds 32 bits\") */\n      jump\t// in\n    tag_229:\n        /* \"contracts/FaisaaToken.sol\":15964:16063  uint32 blockNumber = safe32(block.number, \"Faisaa::_writeCheckpoint: block number exceeds 32 bits\") */\n      swap1\n      pop\n        /* \"contracts/FaisaaToken.sol\":16093:16094  0 */\n      0x00\n        /* \"contracts/FaisaaToken.sol\":16078:16090  nCheckpoints */\n      dup5\n        /* \"contracts/FaisaaToken.sol\":16078:16094  nCheckpoints > 0 */\n      0xffffffff\n      and\n      gt\n        /* \"contracts/FaisaaToken.sol\":16078:16163  nCheckpoints > 0 && checkpoints[delegatee][nCheckpoints - 1].fromBlock == blockNumber */\n      dup1\n      iszero\n      tag_231\n      jumpi\n      pop\n      sub(shl(0xa0, 0x01), 0x01)\n        /* \"contracts/FaisaaToken.sol\":16098:16120  checkpoints[delegatee] */\n      dup6\n      and\n      0x00\n      swap1\n      dup2\n      mstore\n        /* \"contracts/FaisaaToken.sol\":16098:16109  checkpoints */\n      0x06\n        /* \"contracts/FaisaaToken.sol\":16098:16120  checkpoints[delegatee] */\n      0x20\n      swap1\n      dup2\n      mstore\n      0x40\n      dup1\n      dup4\n      keccak256\n        /* \"contracts/FaisaaToken.sol\":16098:16163  checkpoints[delegatee][nCheckpoints - 1].fromBlock == blockNumber */\n      0xffffffff\n      not(0x00)\n        /* \"contracts/FaisaaToken.sol\":16121:16137  nCheckpoints - 1 */\n      dup10\n      add\n        /* \"contracts/FaisaaToken.sol\":16098:16138  checkpoints[delegatee][nCheckpoints - 1] */\n      dup2\n      and\n      dup6\n      mstore\n      swap3\n      mstore\n      swap1\n      swap2\n      keccak256\n        /* \"contracts/FaisaaToken.sol\":16098:16148  checkpoints[delegatee][nCheckpoints - 1].fromBlock */\n      sload\n        /* \"contracts/FaisaaToken.sol\":16098:16163  checkpoints[delegatee][nCheckpoints - 1].fromBlock == blockNumber */\n      dup3\n      dup3\n      and\n        /* \"contracts/FaisaaToken.sol\":16098:16148  checkpoints[delegatee][nCheckpoints - 1].fromBlock */\n      swap2\n      and\n        /* \"contracts/FaisaaToken.sol\":16098:16163  checkpoints[delegatee][nCheckpoints - 1].fromBlock == blockNumber */\n      eq\n        /* \"contracts/FaisaaToken.sol\":16078:16163  nCheckpoints > 0 && checkpoints[delegatee][nCheckpoints - 1].fromBlock == blockNumber */\n    tag_231:\n        /* \"contracts/FaisaaToken.sol\":16074:16403  if (nCheckpoints > 0 && checkpoints[delegatee][nCheckpoints - 1].fromBlock == blockNumber) {\r... */\n      iszero\n      tag_232\n      jumpi\n      sub(shl(0xa0, 0x01), 0x01)\n        /* \"contracts/FaisaaToken.sol\":16178:16200  checkpoints[delegatee] */\n      dup6\n      and\n      0x00\n      swap1\n      dup2\n      mstore\n        /* \"contracts/FaisaaToken.sol\":16178:16189  checkpoints */\n      0x06\n        /* \"contracts/FaisaaToken.sol\":16178:16200  checkpoints[delegatee] */\n      0x20\n      swap1\n      dup2\n      mstore\n      0x40\n      dup1\n      dup4\n      keccak256\n      not(0x00)\n        /* \"contracts/FaisaaToken.sol\":16201:16217  nCheckpoints - 1 */\n      dup9\n      add\n        /* \"contracts/FaisaaToken.sol\":16178:16218  checkpoints[delegatee][nCheckpoints - 1] */\n      0xffffffff\n      and\n      dup5\n      mstore\n      swap1\n      swap2\n      mstore\n      swap1\n      keccak256\n        /* \"contracts/FaisaaToken.sol\":16178:16235  checkpoints[delegatee][nCheckpoints - 1].votes = newVotes */\n      dup1\n      sload\n      0xffffffffffffffffffffffffffffffff000000000000000000000000ffffffff\n      and\n      0x0100000000\n      0xffffffffffffffffffffffff\n      dup6\n      and\n      mul\n      or\n      swap1\n      sstore\n        /* \"contracts/FaisaaToken.sol\":16074:16403  if (nCheckpoints > 0 && checkpoints[delegatee][nCheckpoints - 1].fromBlock == blockNumber) {\r... */\n      jump(tag_233)\n    tag_232:\n        /* \"contracts/FaisaaToken.sol\":16303:16336  Checkpoint(blockNumber, newVotes) */\n      0x40\n      dup1\n      mload\n      dup1\n      dup3\n      add\n      dup3\n      mstore\n      0xffffffff\n      dup1\n      dup5\n      and\n      dup3\n      mstore\n      0xffffffffffffffffffffffff\n      dup1\n      dup7\n      and\n      0x20\n      dup1\n      dup6\n      add\n      swap2\n      dup3\n      mstore\n      sub(shl(0xa0, 0x01), 0x01)\n        /* \"contracts/FaisaaToken.sol\":16264:16286  checkpoints[delegatee] */\n      dup12\n      and\n      0x00\n      dup2\n      dup2\n      mstore\n        /* \"contracts/FaisaaToken.sol\":16264:16275  checkpoints */\n      0x06\n        /* \"contracts/FaisaaToken.sol\":16264:16286  checkpoints[delegatee] */\n      dup4\n      mstore\n      dup8\n      dup2\n      keccak256\n        /* \"contracts/FaisaaToken.sol\":16264:16300  checkpoints[delegatee][nCheckpoints] */\n      dup13\n      dup8\n      and\n      dup3\n      mstore\n      dup4\n      mstore\n      dup8\n      dup2\n      keccak256\n        /* \"contracts/FaisaaToken.sol\":16264:16336  checkpoints[delegatee][nCheckpoints] = Checkpoint(blockNumber, newVotes) */\n      swap7\n      mload\n      dup8\n      sload\n      swap5\n      mload\n      swap1\n      swap6\n      and\n      0x0100000000\n      mul\n      0xffffffffffffffffffffffffffffffff000000000000000000000000ffffffff\n      swap6\n      dup8\n      and\n      0xffffffffffffffffffffffffffffffffffffffffffffffffffffffff00000000\n      swap6\n      dup7\n      and\n      or\n      swap6\n      swap1\n      swap6\n      and\n      swap5\n      swap1\n      swap5\n      or\n      swap1\n      swap6\n      sstore\n        /* \"contracts/FaisaaToken.sol\":16349:16374  numCheckpoints[delegatee] */\n      swap4\n      dup3\n      mstore\n        /* \"contracts/FaisaaToken.sol\":16349:16363  numCheckpoints */\n      0x07\n        /* \"contracts/FaisaaToken.sol\":16349:16374  numCheckpoints[delegatee] */\n      swap1\n      swap4\n      mstore\n      swap3\n      swap1\n      swap3\n      keccak256\n        /* \"contracts/FaisaaToken.sol\":16349:16393  numCheckpoints[delegatee] = nCheckpoints + 1 */\n      dup1\n      sload\n        /* \"contracts/FaisaaToken.sol\":16264:16336  checkpoints[delegatee][nCheckpoints] = Checkpoint(blockNumber, newVotes) */\n      0x01\n        /* \"contracts/FaisaaToken.sol\":16377:16393  nCheckpoints + 1 */\n      dup9\n      add\n        /* \"contracts/FaisaaToken.sol\":16349:16393  numCheckpoints[delegatee] = nCheckpoints + 1 */\n      swap1\n      swap4\n      and\n      swap3\n      swap1\n      swap2\n      and\n      swap2\n      swap1\n      swap2\n      or\n      swap1\n      sstore\n        /* \"contracts/FaisaaToken.sol\":16074:16403  if (nCheckpoints > 0 && checkpoints[delegatee][nCheckpoints - 1].fromBlock == blockNumber) {\r... */\n    tag_233:\n        /* \"contracts/FaisaaToken.sol\":16418:16469  DelegateVotesChanged(delegatee, oldVotes, newVotes) */\n      0x40\n      dup1\n      mload\n      0xffffffffffffffffffffffff\n      dup1\n      dup7\n      and\n      dup3\n      mstore\n      dup5\n      and\n      0x20\n      dup3\n      add\n      mstore\n      dup2\n      mload\n      sub(shl(0xa0, 0x01), 0x01)\n      dup9\n      and\n      swap3\n      0xdec2bacdd2f05b59de34da9b523dff8be42e5e38e818c82fdb0bae774387a724\n      swap3\n      dup3\n      swap1\n      sub\n      add\n      swap1\n      log2\n        /* \"contracts/FaisaaToken.sol\":15846:16477  function _writeCheckpoint(address delegatee, uint32 nCheckpoints, uint96 oldVotes, uint96 newVotes) internal {\r... */\n      pop\n      pop\n      pop\n      pop\n      pop\n      jump\t// out\n        /* \"contracts/FaisaaToken.sol\":16485:16646  function safe32(uint n, string memory errorMessage) internal pure returns (uint32) {\r... */\n    tag_230:\n        /* \"contracts/FaisaaToken.sol\":16560:16566  uint32 */\n      0x00\n        /* \"contracts/FaisaaToken.sol\":16598:16610  errorMessage */\n      dup2\n        /* \"contracts/FaisaaToken.sol\":16591:16596  2**32 */\n      0x0100000000\n        /* \"contracts/FaisaaToken.sol\":16587:16596  n < 2**32 */\n      dup5\n      lt\n        /* \"contracts/FaisaaToken.sol\":16579:16611  require(n < 2**32, errorMessage) */\n      tag_186\n      jumpi\n      mload(0x40)\n      shl(0xe5, 0x461bcd)\n      dup2\n      mstore\n      0x20\n      0x04\n      dup3\n      add\n      dup2\n      dup2\n      mstore\n      dup4\n      mload\n      0x24\n      dup5\n      add\n      mstore\n      dup4\n      mload\n      swap1\n      swap3\n      dup4\n      swap3\n      0x44\n      swap1\n      swap2\n      add\n      swap2\n      swap1\n      dup6\n      add\n      swap1\n      dup1\n      dup4\n      dup4\n      0x00\n        /* \"--CODEGEN--\":27:37   */\n      dup4\n      iszero\n        /* \"--CODEGEN--\":8:108   */\n      tag_189\n      jumpi\n        /* \"--CODEGEN--\":90:101   */\n      dup2\n      dup2\n      add\n        /* \"--CODEGEN--\":84:102   */\n      mload\n        /* \"--CODEGEN--\":71:82   */\n      dup4\n      dup3\n      add\n        /* \"--CODEGEN--\":64:103   */\n      mstore\n        /* \"--CODEGEN--\":52:54   */\n      0x20\n        /* \"--CODEGEN--\":45:55   */\n      add\n        /* \"--CODEGEN--\":8:108   */\n      jump(tag_187)\n        /* \"contracts/FaisaaToken.sol\":99:17348  contract Faisaa {\r... */\n    tag_154:\n      0x40\n      dup1\n      mload\n      dup1\n      dup3\n      add\n      swap1\n      swap2\n      mstore\n      0x00\n      dup1\n      dup3\n      mstore\n      0x20\n      dup3\n      add\n      mstore\n      swap1\n      jump\t// out\n    stop\n    data_06ee8fd590cdc34084a0a93806ff7f052e42252de31367891afc0c9c911dcbe5 4661697361613a3a6d696e743a2063616e6e6f74207472616e7366657220746f20746865207a65726f2061646472657373\n    data_0ef9b1138f7fe56190f837aebeac3f83ce57900277382d69d32939dbf4287f14 4661697361613a3a6d696e743a207472616e7366657220616d6f756e74206f766572666c6f7773\n    data_2916bd5d9f3a5329c4fa4d99e766ef3046ffc185f6f1990dafcd61d8c37227ba 4661697361613a3a5f7472616e73666572546f6b656e733a207472616e7366657220616d6f756e74206f766572666c6f7773\n    data_428c16dcdda4166530f34a26c4e94fb86da1569e2a9829862ee509d219284dd8 4661697361613a3a617070726f76653a20616d6f756e7420657863656564732039362062697473\n    data_43ed79fb8577a7fd423a8b2881d6391af07471b5737d457346ebe6ee6b0cee9e 4661697361613a3a5f7472616e73666572546f6b656e733a207472616e7366657220616d6f756e7420657863656564732062616c616e6365\n    data_47cfc577cce83a034131ee7e3a3f248dd2402932183c3369404366188973b247 4661697361613a3a6d696e743a206d696e74696e67206e6f7420616c6c6f77656420796574\n    data_4b8291aee6764a0a745b0e353b7b208822ccbb09ab1975dce9e22b9009718407 4661697361613a3a5f7472616e73666572546f6b656e733a2063616e6e6f74207472616e7366657220746f20746865207a65726f2061646472657373\n    data_66d321922337c5b7814f518438c8464c8efbbb77ade775957918251086a37924 4661697361613a3a7065726d69743a207369676e61747572652065787069726564\n    data_6856bf735a26f81aa3418108149773825e6954c4c601de22633b87a95b09de31 4661697361613a3a7365744d696e7465723a206f6e6c7920746865206d696e7465722063616e206368616e676520746865206d696e7465722061646472657373\n    data_6e6266f1ed26838a519be3251a5adc1b708c96f88b2d9fca8c7664416cc89ae8 4661697361613a3a7472616e7366657246726f6d3a207472616e7366657220616d6f756e742065786365656473207370656e64657220616c6c6f77616e6365\n    data_6e71edae12b1b97f4d1f60370fef10105fa2faae0126114a169c64845d6126c9 5065726d69742861646472657373206f776e65722c61646472657373207370656e6465722c75696e743235362076616c75652c75696e74323536206e6f6e63652c75696e7432353620646561646c696e6529\n    data_74df45df00faba5bc1ed7d46b19584c67a1a16fa2b4884024b61f1c877a11495 4661697361613a3a5f7472616e73666572546f6b656e733a2063616e6e6f74207472616e736665722066726f6d20746865207a65726f2061646472657373\n    data_7bba7b7f3786cb16c894e9f3d17e6938ea20c55fb0d256b4342cf8e91cd2677e 4661697361613a3a7065726d69743a20696e76616c6964207369676e6174757265\n    data_8cad95687ba82c2ce50e74f7b754645e5117c3a5bec8151c0726d5857980a866 454950373132446f6d61696e28737472696e67206e616d652c75696e7432353620636861696e49642c6164647265737320766572696679696e67436f6e747261637429\n    data_930851ea43cac2873108cbbc75da47df319dfb5d34d9bc02c61e0c540ad465f8 4661697361613a3a6d696e743a20616d6f756e7420657863656564732039362062697473\n    data_a164aaf472e5193ae08911c43f0e932009bd6899893d2553e9b4bae60bf5dbf4 4661697361613a3a6d696e743a20746f74616c537570706c7920657863656564732039362062697473\n    data_a2f14eebe3bbc7d4adc60052a7d595b79f34724fbfa7082143585fb5bd8626ee 4661697361613a3a64656c656761746542795369673a207369676e61747572652065787069726564\n    data_a4168aba4fc669f0dc452530929310103d41a501cffe432724f3e347c4692ffd 4661697361613a3a7065726d69743a20616d6f756e7420657863656564732039362062697473\n    data_b03f8a305451fbc58fdc933bd269d18af5db07650e26a77dc772c6fadf875335 4661697361613a3a5f7772697465436865636b706f696e743a20626c6f636b206e756d62657220657863656564732033322062697473\n    data_b50b21b8e6629dceee6e3bfa4e8b2213ec51504b30e82482904829a475f147a4 4661697361613a3a5f6d6f7665566f7465733a20766f746520616d6f756e7420756e646572666c6f7773\n    data_b7ebab050738648e1b5349fb2fbed408028a6c60180b562f13f48eb805432532 4661697361613a3a7472616e736665723a20616d6f756e7420657863656564732039362062697473\n    data_be8a6d809cc9f4ff1cf4521b91f51874149bae2006223ec41845b088e1693560 4661697361613a3a64656c656761746542795369673a20696e76616c6964206e6f6e6365\n    data_db5d92e49fd459b5013588af7233493889e9b54ed887d70a2e2719b899396d06 4661697361613a3a6d696e743a206f6e6c7920746865206d696e7465722063616e206d696e74\n    data_e175c657e0f1e403f720ee547408b254751930f62507bddf82a8534bbb500da4 4661697361613a3a6765745072696f72566f7465733a206e6f74207965742064657465726d696e6564\n    data_e48329057bfd03d55e49b547132e39cffd9c1820ad7b9d4c5307691425d15adf 44656c65676174696f6e28616464726573732064656c6567617465652c75696e74323536206e6f6e63652c75696e743235362065787069727929\n    data_fc42ecd0ad65ac67b8bb4dbac768677706fb9a0fbb6335d058dc53a56bbd31df 4661697361613a3a64656c656761746542795369673a20696e76616c6964207369676e6174757265\n    data_fc81d128416baf4fee714ec0d5401cbb3caca3ea6e814a2d780d0598ff531954 4661697361613a3a5f6d6f7665566f7465733a20766f746520616d6f756e74206f766572666c6f7773\n\n    auxdata: 0xa265627a7a7231582075cf1ac95cf72a24f2fcb0d7b3b4d5f89ca3ab88684d72b11352e2cba61a6a1764736f6c63430005100032\n}\n",
				"bytecode": {
					"linkReferences": {},
					"object": "60806040526a52b7d2dcc80cd2e400000060005534801561001f57600080fd5b506040516127963803806127968339818101604052606081101561004257600080fd5b5080516020820151604090920151909190428110156100925760405162461bcd60e51b815260040180806020018281038252603c81526020018061275a603c913960400191505060405180910390fd5b600080546001600160a01b03851680835260046020908152604080852080546001600160601b0319166001600160601b03909516949094179093558354835190815292519193927fddf252ad1be2c89b69c2b068fc378daa952ba7f163c4a11628f55a4df523b3ef929081900390910190a3600180546001600160a01b0319166001600160a01b038481169190911791829055604080516000815292909116602083015280517f3b0007eb941cf645526cbb3a4fdaecda9d28ce4843167d9263b536a1f1edc0f69281900390910190a160025550506125e4806101766000396000f3fe608060405234801561001057600080fd5b50600436106101b95760003560e01c80636fcfff45116100f9578063b4b5ea5711610097578063dd62ed3e11610071578063dd62ed3e14610579578063e7a324dc146105a7578063f1127ed8146105af578063fca3b5aa1461060e576101b9565b8063b4b5ea57146104bb578063c3cda520146104e1578063d505accf14610528576101b9565b8063782d6fe1116100d3578063782d6fe1146104145780637ecebe001461046157806395d89b4114610487578063a9059cbb1461048f576101b9565b80636fcfff45146103c057806370a08231146103e657806376c71ca11461040c576101b9565b806330adf81f1161016657806340c10f191161014057806340c10f1914610325578063587cde1e146103535780635c11d62f146103795780635c19a95c1461039a576101b9565b806330adf81f146102f757806330b36cef146102ff578063313ce56714610307576101b9565b806318160ddd1161019757806318160ddd1461029f57806320606b70146102b957806323b872dd146102c1576101b9565b806306fdde03146101be578063075461721461023b578063095ea7b31461025f575b600080fd5b6101c6610634565b6040805160208082528351818301528351919283929083019185019080838360005b838110156102005781810151838201526020016101e8565b50505050905090810190601f16801561022d5780820380516001836020036101000a031916815260200191505b509250505060405180910390f35b61024361066d565b604080516001600160a01b039092168252519081900360200190f35b61028b6004803603604081101561027557600080fd5b506001600160a01b03813516906020013561067c565b604080519115158252519081900360200190f35b6102a7610757565b60408051918252519081900360200190f35b6102a761075d565b61028b600480360360608110156102d757600080fd5b506001600160a01b03813581169160208101359091169060400135610778565b6102a76108e4565b6102a76108ff565b61030f610905565b6040805160ff9092168252519081900360200190f35b6103516004803603604081101561033b57600080fd5b506001600160a01b03813516906020013561090a565b005b6102436004803603602081101561036957600080fd5b50356001600160a01b0316610b57565b610381610b72565b6040805163ffffffff9092168252519081900360200190f35b610351600480360360208110156103b057600080fd5b50356001600160a01b0316610b7a565b610381600480360360208110156103d657600080fd5b50356001600160a01b0316610b87565b6102a7600480360360208110156103fc57600080fd5b50356001600160a01b0316610b9f565b61030f610bc8565b6104406004803603604081101561042a57600080fd5b506001600160a01b038135169060200135610bcd565b604080516bffffffffffffffffffffffff9092168252519081900360200190f35b6102a76004803603602081101561047757600080fd5b50356001600160a01b0316610e0c565b6101c6610e1e565b61028b600480360360408110156104a557600080fd5b506001600160a01b038135169060200135610e57565b610440600480360360208110156104d157600080fd5b50356001600160a01b0316610e93565b610351600480360360c08110156104f757600080fd5b506001600160a01b038135169060208101359060408101359060ff6060820135169060808101359060a00135610f0a565b610351600480360360e081101561053e57600080fd5b506001600160a01b03813581169160208101359091169060408101359060608101359060ff6080820135169060a08101359060c0013561121f565b6102a76004803603604081101561058f57600080fd5b506001600160a01b0381358116916020013516611692565b6102a76116cb565b6105e1600480360360408110156105c557600080fd5b5080356001600160a01b0316906020013563ffffffff166116e6565b6040805163ffffffff90931683526bffffffffffffffffffffffff90911660208301528051918290030190f35b6103516004803603602081101561062457600080fd5b50356001600160a01b0316611721565b6040518060400160405280600681526020017f466169736161000000000000000000000000000000000000000000000000000081525081565b6001546001600160a01b031681565b60008060001983141561069257506000196106b7565b6106b48360405180606001604052806027815260200161213b602791396117ec565b90505b3360008181526003602090815260408083206001600160a01b0389168085529083529281902080547fffffffffffffffffffffffffffffffffffffffff000000000000000000000000166bffffffffffffffffffffffff8716908117909155815190815290519293927f8c5be1e5ebec7d5bd14f71427d1e84f3dd0314c0f7b2291e5b200ac8c7c3b925929181900390910190a360019150505b92915050565b60005481565b60405180604361234c82396043019050604051809103902081565b6001600160a01b03831660009081526003602090815260408083203380855290835281842054825160608101909352602780845291936bffffffffffffffffffffffff9091169285926107d5928892919061213b908301396117ec565b9050866001600160a01b0316836001600160a01b03161415801561080757506bffffffffffffffffffffffff82811614155b156108cc57600061083183836040518060600160405280603f815260200161225c603f913961188f565b6001600160a01b038981166000818152600360209081526040808320948a168084529482529182902080547fffffffffffffffffffffffffffffffffffffffff000000000000000000000000166bffffffffffffffffffffffff871690811790915582519081529151949550929391927f8c5be1e5ebec7d5bd14f71427d1e84f3dd0314c0f7b2291e5b200ac8c7c3b92592918290030190a3505b6108d7878783611906565b5060019695505050505050565b60405180605261229b82396052019050604051809103902081565b60025481565b601281565b6001546001600160a01b031633146109535760405162461bcd60e51b81526004018080602001828103825260268152602001806124d66026913960400191505060405180910390fd5b6002544210156109945760405162461bcd60e51b815260040180806020018281038252602581526020018061219a6025913960400191505060405180910390fd5b6001600160a01b0382166109d95760405162461bcd60e51b81526004018080602001828103825260318152602001806120b16031913960400191505060405180910390fd5b6109e7426301e13380611b25565b6002819055506000610a118260405180606001604052806024815260200161238f602491396117ec565b9050610a4e610a30600054836bffffffffffffffffffffffff16611b25565b6040518060600160405280602981526020016123b3602991396117ec565b6bffffffffffffffffffffffff90811660009081556001600160a01b038516815260046020908152604091829020548251606081019093526027808452610aa594919091169285929091906120e290830139611b7d565b6001600160a01b038416600081815260046020908152604080832080547fffffffffffffffffffffffffffffffffffffffff000000000000000000000000166bffffffffffffffffffffffff9687161790558051948616855251929391927fddf252ad1be2c89b69c2b068fc378daa952ba7f163c4a11628f55a4df523b3ef9281900390910190a36001600160a01b03808416600090815260056020526040812054610b52921683611bec565b505050565b6005602052600090815260409020546001600160a01b031681565b6301e1338081565b610b843382611d8f565b50565b60076020526000908152604090205463ffffffff1681565b6001600160a01b03166000908152600460205260409020546bffffffffffffffffffffffff1690565b600281565b6000438210610c0d5760405162461bcd60e51b81526004018080602001828103825260298152602001806124fc6029913960400191505060405180910390fd5b6001600160a01b03831660009081526007602052604090205463ffffffff1680610c3b576000915050610751565b6001600160a01b038416600090815260066020908152604080832063ffffffff600019860181168552925290912054168310610cbd576001600160a01b03841660009081526006602090815260408083206000199490940163ffffffff168352929052205464010000000090046bffffffffffffffffffffffff169050610751565b6001600160a01b038416600090815260066020908152604080832083805290915290205463ffffffff16831015610cf8576000915050610751565b600060001982015b8163ffffffff168163ffffffff161115610dc157600282820363ffffffff16048103610d2a612099565b506001600160a01b038716600090815260066020908152604080832063ffffffff8581168552908352928190208151808301909252549283168082526401000000009093046bffffffffffffffffffffffff169181019190915290871415610d9c576020015194506107519350505050565b805163ffffffff16871115610db357819350610dba565b6001820392505b5050610d00565b506001600160a01b038516600090815260066020908152604080832063ffffffff909416835292905220546bffffffffffffffffffffffff6401000000009091041691505092915050565b60086020526000908152604090205481565b6040518060400160405280600681526020017f464149534141000000000000000000000000000000000000000000000000000081525081565b600080610e7c8360405180606001604052806028815260200161248a602891396117ec565b9050610e89338583611906565b5060019392505050565b6001600160a01b03811660009081526007602052604081205463ffffffff1680610ebe576000610f03565b6001600160a01b0383166000908152600660209081526040808320600019850163ffffffff16845290915290205464010000000090046bffffffffffffffffffffffff165b9392505050565b6000604051808061234c6043913960408051918290036043018220828201909152600682527f466169736161000000000000000000000000000000000000000000000000000060209092019190915290507f9869eadf408163ba154b1c0ee82ba4780d5d47224d67622ac848d92c700ab76d610f84611e36565b3060405160200180858152602001848152602001838152602001826001600160a01b03166001600160a01b0316815260200194505050505060405160208183030381529060405280519060200120905060006040518080612525603a91396040805191829003603a0182206020808401919091526001600160a01b038c1683830152606083018b905260808084018b90528251808503909101815260a0840183528051908201207f190100000000000000000000000000000000000000000000000000000000000060c085015260c2840187905260e2808501829052835180860390910181526101028501808552815191840191909120600091829052610122860180865281905260ff8c1661014287015261016286018b905261018286018a9052935191965092945091926001926101a280830193927fffffffffffffffffffffffffffffffffffffffffffffffffffffffffffffffe08301929081900390910190855afa1580156110fb573d6000803e3d6000fd5b50506040517fffffffffffffffffffffffffffffffffffffffffffffffffffffffffffffffe001519150506001600160a01b03811661116b5760405162461bcd60e51b815260040180806020018281038252602881526020018061255f6028913960400191505060405180910390fd5b6001600160a01b038116600090815260086020526040902080546001810190915589146111c95760405162461bcd60e51b81526004018080602001828103825260248152602001806124b26024913960400191505060405180910390fd5b874211156112085760405162461bcd60e51b81526004018080602001828103825260288152602001806123dc6028913960400191505060405180910390fd5b611212818b611d8f565b505050505b505050505050565b60006000198614156112345750600019611259565b61125686604051806060016040528060268152602001612404602691396117ec565b90505b6000604051808061234c6043913960408051918290036043018220828201909152600682527f466169736161000000000000000000000000000000000000000000000000000060209092019190915290507f9869eadf408163ba154b1c0ee82ba4780d5d47224d67622ac848d92c700ab76d6112d3611e36565b3060405160200180858152602001848152602001838152602001826001600160a01b03166001600160a01b031681526020019450505050506040516020818303038152906040528051906020012090506000604051808061229b60529139605201905060405180910390208a8a8a600860008f6001600160a01b03166001600160a01b031681526020019081526020016000206000815480929190600101919050558b60405160200180878152602001866001600160a01b03166001600160a01b03168152602001856001600160a01b03166001600160a01b0316815260200184815260200183815260200182815260200196505050505050506040516020818303038152906040528051906020012090506000828260405160200180807f190100000000000000000000000000000000000000000000000000000000000081525060020183815260200182815260200192505050604051602081830303815290604052805190602001209050600060018289898960405160008152602001604052604051808581526020018460ff1660ff1681526020018381526020018281526020019450505050506020604051602081039080840390855afa15801561149f573d6000803e3d6000fd5b50506040517fffffffffffffffffffffffffffffffffffffffffffffffffffffffffffffffe001519150506001600160a01b03811661150f5760405162461bcd60e51b815260040180806020018281038252602181526020018061232b6021913960400191505060405180910390fd5b8b6001600160a01b0316816001600160a01b031614611575576040805162461bcd60e51b815260206004820152601c60248201527f4661697361613a3a7065726d69743a20756e617574686f72697a656400000000604482015290519081900360640190fd5b884211156115b45760405162461bcd60e51b81526004018080602001828103825260218152602001806121fb6021913960400191505060405180910390fd5b84600360008e6001600160a01b03166001600160a01b0316815260200190815260200160002060008d6001600160a01b03166001600160a01b0316815260200190815260200160002060006101000a8154816bffffffffffffffffffffffff02191690836bffffffffffffffffffffffff1602179055508a6001600160a01b03168c6001600160a01b03167f8c5be1e5ebec7d5bd14f71427d1e84f3dd0314c0f7b2291e5b200ac8c7c3b9258760405180826bffffffffffffffffffffffff16815260200191505060405180910390a3505050505050505050505050565b6001600160a01b0391821660009081526003602090815260408083209390941682529190915220546bffffffffffffffffffffffff1690565b60405180603a6125258239603a019050604051809103902081565b600660209081526000928352604080842090915290825290205463ffffffff81169064010000000090046bffffffffffffffffffffffff1682565b6001546001600160a01b0316331461176a5760405162461bcd60e51b815260040180806020018281038252604081526020018061221c6040913960400191505060405180910390fd5b600154604080516001600160a01b039283168152918316602083015280517f3b0007eb941cf645526cbb3a4fdaecda9d28ce4843167d9263b536a1f1edc0f69281900390910190a1600180547fffffffffffffffffffffffff0000000000000000000000000000000000000000166001600160a01b0392909216919091179055565b6000816c0100000000000000000000000084106118875760405162461bcd60e51b81526004018080602001828103825283818151815260200191508051906020019080838360005b8381101561184c578181015183820152602001611834565b50505050905090810190601f1680156118795780820380516001836020036101000a031916815260200191505b509250505060405180910390fd5b509192915050565b6000836bffffffffffffffffffffffff16836bffffffffffffffffffffffff16111582906118fe5760405162461bcd60e51b815260206004820181815283516024840152835190928392604490910191908501908083836000831561184c578181015183820152602001611834565b505050900390565b6001600160a01b03831661194b5760405162461bcd60e51b815260040180806020018281038252603e8152602001806122ed603e913960400191505060405180910390fd5b6001600160a01b0382166119905760405162461bcd60e51b815260040180806020018281038252603c8152602001806121bf603c913960400191505060405180910390fd5b6001600160a01b0383166000908152600460209081526040918290205482516060810190935260388084526119e0936bffffffffffffffffffffffff90921692859291906121629083013961188f565b6001600160a01b03848116600090815260046020908152604080832080547fffffffffffffffffffffffffffffffffffffffff000000000000000000000000166bffffffffffffffffffffffff968716179055928616825290829020548251606081019093526032808452611a65949190911692859290919061210990830139611b7d565b6001600160a01b0383811660008181526004602090815260409182902080547fffffffffffffffffffffffffffffffffffffffff000000000000000000000000166bffffffffffffffffffffffff9687161790558151948616855290519193928716927fddf252ad1be2c89b69c2b068fc378daa952ba7f163c4a11628f55a4df523b3ef929081900390910190a36001600160a01b03808416600090815260056020526040808220548584168352912054610b5292918216911683611bec565b80820182811015610751576040805162461bcd60e51b815260206004820152601460248201527f64732d6d6174682d6164642d6f766572666c6f77000000000000000000000000604482015290519081900360640190fd5b6000838301826bffffffffffffffffffffffff8087169083161015611be35760405162461bcd60e51b815260206004820181815283516024840152835190928392604490910191908501908083836000831561184c578181015183820152602001611834565b50949350505050565b816001600160a01b0316836001600160a01b031614158015611c1c57506000816bffffffffffffffffffffffff16115b15610b52576001600160a01b03831615611cda576001600160a01b03831660009081526007602052604081205463ffffffff169081611c5c576000611ca1565b6001600160a01b0385166000908152600660209081526040808320600019860163ffffffff16845290915290205464010000000090046bffffffffffffffffffffffff165b90506000611cc882856040518060600160405280602a8152602001612460602a913961188f565b9050611cd686848484611e3a565b5050505b6001600160a01b03821615610b52576001600160a01b03821660009081526007602052604081205463ffffffff169081611d15576000611d5a565b6001600160a01b0384166000908152600660209081526040808320600019860163ffffffff16845290915290205464010000000090046bffffffffffffffffffffffff165b90506000611d81828560405180606001604052806029815260200161258760299139611b7d565b905061121785848484611e3a565b6001600160a01b03808316600081815260056020818152604080842080546004845282862054949093528787167fffffffffffffffffffffffff000000000000000000000000000000000000000084168117909155905191909516946bffffffffffffffffffffffff9092169391928592917f3134e8a2e6d97e929a7e54011ea5485d7d196dd5f0ba4d4ef95803e8e3fc257f9190a4611e30828483611bec565b50505050565b4690565b6000611e5e4360405180606001604052806036815260200161242a60369139612043565b905060008463ffffffff16118015611ea757506001600160a01b038516600090815260066020908152604080832063ffffffff6000198901811685529252909120548282169116145b15611f1b576001600160a01b0385166000908152600660209081526040808320600019880163ffffffff168452909152902080547fffffffffffffffffffffffffffffffff000000000000000000000000ffffffff166401000000006bffffffffffffffffffffffff851602179055611fea565b60408051808201825263ffffffff80841682526bffffffffffffffffffffffff80861660208085019182526001600160a01b038b166000818152600683528781208c871682528352878120965187549451909516640100000000027fffffffffffffffffffffffffffffffff000000000000000000000000ffffffff9587167fffffffffffffffffffffffffffffffffffffffffffffffffffffffff00000000958616179590951694909417909555938252600790935292909220805460018801909316929091169190911790555b604080516bffffffffffffffffffffffff80861682528416602082015281516001600160a01b038816927fdec2bacdd2f05b59de34da9b523dff8be42e5e38e818c82fdb0bae774387a724928290030190a25050505050565b60008164010000000084106118875760405162461bcd60e51b815260206004820181815283516024840152835190928392604490910191908501908083836000831561184c578181015183820152602001611834565b60408051808201909152600080825260208201529056fe4661697361613a3a6d696e743a2063616e6e6f74207472616e7366657220746f20746865207a65726f20616464726573734661697361613a3a6d696e743a207472616e7366657220616d6f756e74206f766572666c6f77734661697361613a3a5f7472616e73666572546f6b656e733a207472616e7366657220616d6f756e74206f766572666c6f77734661697361613a3a617070726f76653a20616d6f756e74206578636565647320393620626974734661697361613a3a5f7472616e73666572546f6b656e733a207472616e7366657220616d6f756e7420657863656564732062616c616e63654661697361613a3a6d696e743a206d696e74696e67206e6f7420616c6c6f776564207965744661697361613a3a5f7472616e73666572546f6b656e733a2063616e6e6f74207472616e7366657220746f20746865207a65726f20616464726573734661697361613a3a7065726d69743a207369676e617475726520657870697265644661697361613a3a7365744d696e7465723a206f6e6c7920746865206d696e7465722063616e206368616e676520746865206d696e74657220616464726573734661697361613a3a7472616e7366657246726f6d3a207472616e7366657220616d6f756e742065786365656473207370656e64657220616c6c6f77616e63655065726d69742861646472657373206f776e65722c61646472657373207370656e6465722c75696e743235362076616c75652c75696e74323536206e6f6e63652c75696e7432353620646561646c696e65294661697361613a3a5f7472616e73666572546f6b656e733a2063616e6e6f74207472616e736665722066726f6d20746865207a65726f20616464726573734661697361613a3a7065726d69743a20696e76616c6964207369676e6174757265454950373132446f6d61696e28737472696e67206e616d652c75696e7432353620636861696e49642c6164647265737320766572696679696e67436f6e7472616374294661697361613a3a6d696e743a20616d6f756e74206578636565647320393620626974734661697361613a3a6d696e743a20746f74616c537570706c79206578636565647320393620626974734661697361613a3a64656c656761746542795369673a207369676e617475726520657870697265644661697361613a3a7065726d69743a20616d6f756e74206578636565647320393620626974734661697361613a3a5f7772697465436865636b706f696e743a20626c6f636b206e756d626572206578636565647320333220626974734661697361613a3a5f6d6f7665566f7465733a20766f746520616d6f756e7420756e646572666c6f77734661697361613a3a7472616e736665723a20616d6f756e74206578636565647320393620626974734661697361613a3a64656c656761746542795369673a20696e76616c6964206e6f6e63654661697361613a3a6d696e743a206f6e6c7920746865206d696e7465722063616e206d696e744661697361613a3a6765745072696f72566f7465733a206e6f74207965742064657465726d696e656444656c65676174696f6e28616464726573732064656c6567617465652c75696e74323536206e6f6e63652c75696e7432353620657870697279294661697361613a3a64656c656761746542795369673a20696e76616c6964207369676e61747572654661697361613a3a5f6d6f7665566f7465733a20766f746520616d6f756e74206f766572666c6f7773a265627a7a7231582075cf1ac95cf72a24f2fcb0d7b3b4d5f89ca3ab88684d72b11352e2cba61a6a1764736f6c634300051000324661697361613a3a636f6e7374727563746f723a206d696e74696e672063616e206f6e6c7920626567696e206166746572206465706c6f796d656e74",
					"opcodes": "PUSH1 0x80 PUSH1 0x40 MSTORE PUSH11 0x52B7D2DCC80CD2E4000000 PUSH1 0x0 SSTORE CALLVALUE DUP1 ISZERO PUSH2 0x1F JUMPI PUSH1 0x0 DUP1 REVERT JUMPDEST POP PUSH1 0x40 MLOAD PUSH2 0x2796 CODESIZE SUB DUP1 PUSH2 0x2796 DUP4 CODECOPY DUP2 DUP2 ADD PUSH1 0x40 MSTORE PUSH1 0x60 DUP2 LT ISZERO PUSH2 0x42 JUMPI PUSH1 0x0 DUP1 REVERT JUMPDEST POP DUP1 MLOAD PUSH1 0x20 DUP3 ADD MLOAD PUSH1 0x40 SWAP1 SWAP3 ADD MLOAD SWAP1 SWAP2 SWAP1 TIMESTAMP DUP2 LT ISZERO PUSH2 0x92 JUMPI PUSH1 0x40 MLOAD PUSH3 0x461BCD PUSH1 0xE5 SHL DUP2 MSTORE PUSH1 0x4 ADD DUP1 DUP1 PUSH1 0x20 ADD DUP3 DUP2 SUB DUP3 MSTORE PUSH1 0x3C DUP2 MSTORE PUSH1 0x20 ADD DUP1 PUSH2 0x275A PUSH1 0x3C SWAP2 CODECOPY PUSH1 0x40 ADD SWAP2 POP POP PUSH1 0x40 MLOAD DUP1 SWAP2 SUB SWAP1 REVERT JUMPDEST PUSH1 0x0 DUP1 SLOAD PUSH1 0x1 PUSH1 0x1 PUSH1 0xA0 SHL SUB DUP6 AND DUP1 DUP4 MSTORE PUSH1 0x4 PUSH1 0x20 SWAP1 DUP2 MSTORE PUSH1 0x40 DUP1 DUP6 KECCAK256 DUP1 SLOAD PUSH1 0x1 PUSH1 0x1 PUSH1 0x60 SHL SUB NOT AND PUSH1 0x1 PUSH1 0x1 PUSH1 0x60 SHL SUB SWAP1 SWAP6 AND SWAP5 SWAP1 SWAP5 OR SWAP1 SWAP4 SSTORE DUP4 SLOAD DUP4 MLOAD SWAP1 DUP2 MSTORE SWAP3 MLOAD SWAP2 SWAP4 SWAP3 PUSH32 0xDDF252AD1BE2C89B69C2B068FC378DAA952BA7F163C4A11628F55A4DF523B3EF SWAP3 SWAP1 DUP2 SWAP1 SUB SWAP1 SWAP2 ADD SWAP1 LOG3 PUSH1 0x1 DUP1 SLOAD PUSH1 0x1 PUSH1 0x1 PUSH1 0xA0 SHL SUB NOT AND PUSH1 0x1 PUSH1 0x1 PUSH1 0xA0 SHL SUB DUP5 DUP2 AND SWAP2 SWAP1 SWAP2 OR SWAP2 DUP3 SWAP1 SSTORE PUSH1 0x40 DUP1 MLOAD PUSH1 0x0 DUP2 MSTORE SWAP3 SWAP1 SWAP2 AND PUSH1 0x20 DUP4 ADD MSTORE DUP1 MLOAD PUSH32 0x3B0007EB941CF645526CBB3A4FDAECDA9D28CE4843167D9263B536A1F1EDC0F6 SWAP3 DUP2 SWAP1 SUB SWAP1 SWAP2 ADD SWAP1 LOG1 PUSH1 0x2 SSTORE POP POP PUSH2 0x25E4 DUP1 PUSH2 0x176 PUSH1 0x0 CODECOPY PUSH1 0x0 RETURN INVALID PUSH1 0x80 PUSH1 0x40 MSTORE CALLVALUE DUP1 ISZERO PUSH2 0x10 JUMPI PUSH1 0x0 DUP1 REVERT JUMPDEST POP PUSH1 0x4 CALLDATASIZE LT PUSH2 0x1B9 JUMPI PUSH1 0x0 CALLDATALOAD PUSH1 0xE0 SHR DUP1 PUSH4 0x6FCFFF45 GT PUSH2 0xF9 JUMPI DUP1 PUSH4 0xB4B5EA57 GT PUSH2 0x97 JUMPI DUP1 PUSH4 0xDD62ED3E GT PUSH2 0x71 JUMPI DUP1 PUSH4 0xDD62ED3E EQ PUSH2 0x579 JUMPI DUP1 PUSH4 0xE7A324DC EQ PUSH2 0x5A7 JUMPI DUP1 PUSH4 0xF1127ED8 EQ PUSH2 0x5AF JUMPI DUP1 PUSH4 0xFCA3B5AA EQ PUSH2 0x60E JUMPI PUSH2 0x1B9 JUMP JUMPDEST DUP1 PUSH4 0xB4B5EA57 EQ PUSH2 0x4BB JUMPI DUP1 PUSH4 0xC3CDA520 EQ PUSH2 0x4E1 JUMPI DUP1 PUSH4 0xD505ACCF EQ PUSH2 0x528 JUMPI PUSH2 0x1B9 JUMP JUMPDEST DUP1 PUSH4 0x782D6FE1 GT PUSH2 0xD3 JUMPI DUP1 PUSH4 0x782D6FE1 EQ PUSH2 0x414 JUMPI DUP1 PUSH4 0x7ECEBE00 EQ PUSH2 0x461 JUMPI DUP1 PUSH4 0x95D89B41 EQ PUSH2 0x487 JUMPI DUP1 PUSH4 0xA9059CBB EQ PUSH2 0x48F JUMPI PUSH2 0x1B9 JUMP JUMPDEST DUP1 PUSH4 0x6FCFFF45 EQ PUSH2 0x3C0 JUMPI DUP1 PUSH4 0x70A08231 EQ PUSH2 0x3E6 JUMPI DUP1 PUSH4 0x76C71CA1 EQ PUSH2 0x40C JUMPI PUSH2 0x1B9 JUMP JUMPDEST DUP1 PUSH4 0x30ADF81F GT PUSH2 0x166 JUMPI DUP1 PUSH4 0x40C10F19 GT PUSH2 0x140 JUMPI DUP1 PUSH4 0x40C10F19 EQ PUSH2 0x325 JUMPI DUP1 PUSH4 0x587CDE1E EQ PUSH2 0x353 JUMPI DUP1 PUSH4 0x5C11D62F EQ PUSH2 0x379 JUMPI DUP1 PUSH4 0x5C19A95C EQ PUSH2 0x39A JUMPI PUSH2 0x1B9 JUMP JUMPDEST DUP1 PUSH4 0x30ADF81F EQ PUSH2 0x2F7 JUMPI DUP1 PUSH4 0x30B36CEF EQ PUSH2 0x2FF JUMPI DUP1 PUSH4 0x313CE567 EQ PUSH2 0x307 JUMPI PUSH2 0x1B9 JUMP JUMPDEST DUP1 PUSH4 0x18160DDD GT PUSH2 0x197 JUMPI DUP1 PUSH4 0x18160DDD EQ PUSH2 0x29F JUMPI DUP1 PUSH4 0x20606B70 EQ PUSH2 0x2B9 JUMPI DUP1 PUSH4 0x23B872DD EQ PUSH2 0x2C1 JUMPI PUSH2 0x1B9 JUMP JUMPDEST DUP1 PUSH4 0x6FDDE03 EQ PUSH2 0x1BE JUMPI DUP1 PUSH4 0x7546172 EQ PUSH2 0x23B JUMPI DUP1 PUSH4 0x95EA7B3 EQ PUSH2 0x25F JUMPI JUMPDEST PUSH1 0x0 DUP1 REVERT JUMPDEST PUSH2 0x1C6 PUSH2 0x634 JUMP JUMPDEST PUSH1 0x40 DUP1 MLOAD PUSH1 0x20 DUP1 DUP3 MSTORE DUP4 MLOAD DUP2 DUP4 ADD MSTORE DUP4 MLOAD SWAP2 SWAP3 DUP4 SWAP3 SWAP1 DUP4 ADD SWAP2 DUP6 ADD SWAP1 DUP1 DUP4 DUP4 PUSH1 0x0 JUMPDEST DUP4 DUP2 LT ISZERO PUSH2 0x200 JUMPI DUP2 DUP2 ADD MLOAD DUP4 DUP3 ADD MSTORE PUSH1 0x20 ADD PUSH2 0x1E8 JUMP JUMPDEST POP POP POP POP SWAP1 POP SWAP1 DUP2 ADD SWAP1 PUSH1 0x1F AND DUP1 ISZERO PUSH2 0x22D JUMPI DUP1 DUP3 SUB DUP1 MLOAD PUSH1 0x1 DUP4 PUSH1 0x20 SUB PUSH2 0x100 EXP SUB NOT AND DUP2 MSTORE PUSH1 0x20 ADD SWAP2 POP JUMPDEST POP SWAP3 POP POP POP PUSH1 0x40 MLOAD DUP1 SWAP2 SUB SWAP1 RETURN JUMPDEST PUSH2 0x243 PUSH2 0x66D JUMP JUMPDEST PUSH1 0x40 DUP1 MLOAD PUSH1 0x1 PUSH1 0x1 PUSH1 0xA0 SHL SUB SWAP1 SWAP3 AND DUP3 MSTORE MLOAD SWAP1 DUP2 SWAP1 SUB PUSH1 0x20 ADD SWAP1 RETURN JUMPDEST PUSH2 0x28B PUSH1 0x4 DUP1 CALLDATASIZE SUB PUSH1 0x40 DUP2 LT ISZERO PUSH2 0x275 JUMPI PUSH1 0x0 DUP1 REVERT JUMPDEST POP PUSH1 0x1 PUSH1 0x1 PUSH1 0xA0 SHL SUB DUP2 CALLDATALOAD AND SWAP1 PUSH1 0x20 ADD CALLDATALOAD PUSH2 0x67C JUMP JUMPDEST PUSH1 0x40 DUP1 MLOAD SWAP2 ISZERO ISZERO DUP3 MSTORE MLOAD SWAP1 DUP2 SWAP1 SUB PUSH1 0x20 ADD SWAP1 RETURN JUMPDEST PUSH2 0x2A7 PUSH2 0x757 JUMP JUMPDEST PUSH1 0x40 DUP1 MLOAD SWAP2 DUP3 MSTORE MLOAD SWAP1 DUP2 SWAP1 SUB PUSH1 0x20 ADD SWAP1 RETURN JUMPDEST PUSH2 0x2A7 PUSH2 0x75D JUMP JUMPDEST PUSH2 0x28B PUSH1 0x4 DUP1 CALLDATASIZE SUB PUSH1 0x60 DUP2 LT ISZERO PUSH2 0x2D7 JUMPI PUSH1 0x0 DUP1 REVERT JUMPDEST POP PUSH1 0x1 PUSH1 0x1 PUSH1 0xA0 SHL SUB DUP2 CALLDATALOAD DUP2 AND SWAP2 PUSH1 0x20 DUP2 ADD CALLDATALOAD SWAP1 SWAP2 AND SWAP1 PUSH1 0x40 ADD CALLDATALOAD PUSH2 0x778 JUMP JUMPDEST PUSH2 0x2A7 PUSH2 0x8E4 JUMP JUMPDEST PUSH2 0x2A7 PUSH2 0x8FF JUMP JUMPDEST PUSH2 0x30F PUSH2 0x905 JUMP JUMPDEST PUSH1 0x40 DUP1 MLOAD PUSH1 0xFF SWAP1 SWAP3 AND DUP3 MSTORE MLOAD SWAP1 DUP2 SWAP1 SUB PUSH1 0x20 ADD SWAP1 RETURN JUMPDEST PUSH2 0x351 PUSH1 0x4 DUP1 CALLDATASIZE SUB PUSH1 0x40 DUP2 LT ISZERO PUSH2 0x33B JUMPI PUSH1 0x0 DUP1 REVERT JUMPDEST POP PUSH1 0x1 PUSH1 0x1 PUSH1 0xA0 SHL SUB DUP2 CALLDATALOAD AND SWAP1 PUSH1 0x20 ADD CALLDATALOAD PUSH2 0x90A JUMP JUMPDEST STOP JUMPDEST PUSH2 0x243 PUSH1 0x4 DUP1 CALLDATASIZE SUB PUSH1 0x20 DUP2 LT ISZERO PUSH2 0x369 JUMPI PUSH1 0x0 DUP1 REVERT JUMPDEST POP CALLDATALOAD PUSH1 0x1 PUSH1 0x1 PUSH1 0xA0 SHL SUB AND PUSH2 0xB57 JUMP JUMPDEST PUSH2 0x381 PUSH2 0xB72 JUMP JUMPDEST PUSH1 0x40 DUP1 MLOAD PUSH4 0xFFFFFFFF SWAP1 SWAP3 AND DUP3 MSTORE MLOAD SWAP1 DUP2 SWAP1 SUB PUSH1 0x20 ADD SWAP1 RETURN JUMPDEST PUSH2 0x351 PUSH1 0x4 DUP1 CALLDATASIZE SUB PUSH1 0x20 DUP2 LT ISZERO PUSH2 0x3B0 JUMPI PUSH1 0x0 DUP1 REVERT JUMPDEST POP CALLDATALOAD PUSH1 0x1 PUSH1 0x1 PUSH1 0xA0 SHL SUB AND PUSH2 0xB7A JUMP JUMPDEST PUSH2 0x381 PUSH1 0x4 DUP1 CALLDATASIZE SUB PUSH1 0x20 DUP2 LT ISZERO PUSH2 0x3D6 JUMPI PUSH1 0x0 DUP1 REVERT JUMPDEST POP CALLDATALOAD PUSH1 0x1 PUSH1 0x1 PUSH1 0xA0 SHL SUB AND PUSH2 0xB87 JUMP JUMPDEST PUSH2 0x2A7 PUSH1 0x4 DUP1 CALLDATASIZE SUB PUSH1 0x20 DUP2 LT ISZERO PUSH2 0x3FC JUMPI PUSH1 0x0 DUP1 REVERT JUMPDEST POP CALLDATALOAD PUSH1 0x1 PUSH1 0x1 PUSH1 0xA0 SHL SUB AND PUSH2 0xB9F JUMP JUMPDEST PUSH2 0x30F PUSH2 0xBC8 JUMP JUMPDEST PUSH2 0x440 PUSH1 0x4 DUP1 CALLDATASIZE SUB PUSH1 0x40 DUP2 LT ISZERO PUSH2 0x42A JUMPI PUSH1 0x0 DUP1 REVERT JUMPDEST POP PUSH1 0x1 PUSH1 0x1 PUSH1 0xA0 SHL SUB DUP2 CALLDATALOAD AND SWAP1 PUSH1 0x20 ADD CALLDATALOAD PUSH2 0xBCD JUMP JUMPDEST PUSH1 0x40 DUP1 MLOAD PUSH12 0xFFFFFFFFFFFFFFFFFFFFFFFF SWAP1 SWAP3 AND DUP3 MSTORE MLOAD SWAP1 DUP2 SWAP1 SUB PUSH1 0x20 ADD SWAP1 RETURN JUMPDEST PUSH2 0x2A7 PUSH1 0x4 DUP1 CALLDATASIZE SUB PUSH1 0x20 DUP2 LT ISZERO PUSH2 0x477 JUMPI PUSH1 0x0 DUP1 REVERT JUMPDEST POP CALLDATALOAD PUSH1 0x1 PUSH1 0x1 PUSH1 0xA0 SHL SUB AND PUSH2 0xE0C JUMP JUMPDEST PUSH2 0x1C6 PUSH2 0xE1E JUMP JUMPDEST PUSH2 0x28B PUSH1 0x4 DUP1 CALLDATASIZE SUB PUSH1 0x40 DUP2 LT ISZERO PUSH2 0x4A5 JUMPI PUSH1 0x0 DUP1 REVERT JUMPDEST POP PUSH1 0x1 PUSH1 0x1 PUSH1 0xA0 SHL SUB DUP2 CALLDATALOAD AND SWAP1 PUSH1 0x20 ADD CALLDATALOAD PUSH2 0xE57 JUMP JUMPDEST PUSH2 0x440 PUSH1 0x4 DUP1 CALLDATASIZE SUB PUSH1 0x20 DUP2 LT ISZERO PUSH2 0x4D1 JUMPI PUSH1 0x0 DUP1 REVERT JUMPDEST POP CALLDATALOAD PUSH1 0x1 PUSH1 0x1 PUSH1 0xA0 SHL SUB AND PUSH2 0xE93 JUMP JUMPDEST PUSH2 0x351 PUSH1 0x4 DUP1 CALLDATASIZE SUB PUSH1 0xC0 DUP2 LT ISZERO PUSH2 0x4F7 JUMPI PUSH1 0x0 DUP1 REVERT JUMPDEST POP PUSH1 0x1 PUSH1 0x1 PUSH1 0xA0 SHL SUB DUP2 CALLDATALOAD AND SWAP1 PUSH1 0x20 DUP2 ADD CALLDATALOAD SWAP1 PUSH1 0x40 DUP2 ADD CALLDATALOAD SWAP1 PUSH1 0xFF PUSH1 0x60 DUP3 ADD CALLDATALOAD AND SWAP1 PUSH1 0x80 DUP2 ADD CALLDATALOAD SWAP1 PUSH1 0xA0 ADD CALLDATALOAD PUSH2 0xF0A JUMP JUMPDEST PUSH2 0x351 PUSH1 0x4 DUP1 CALLDATASIZE SUB PUSH1 0xE0 DUP2 LT ISZERO PUSH2 0x53E JUMPI PUSH1 0x0 DUP1 REVERT JUMPDEST POP PUSH1 0x1 PUSH1 0x1 PUSH1 0xA0 SHL SUB DUP2 CALLDATALOAD DUP2 AND SWAP2 PUSH1 0x20 DUP2 ADD CALLDATALOAD SWAP1 SWAP2 AND SWAP1 PUSH1 0x40 DUP2 ADD CALLDATALOAD SWAP1 PUSH1 0x60 DUP2 ADD CALLDATALOAD SWAP1 PUSH1 0xFF PUSH1 0x80 DUP3 ADD CALLDATALOAD AND SWAP1 PUSH1 0xA0 DUP2 ADD CALLDATALOAD SWAP1 PUSH1 0xC0 ADD CALLDATALOAD PUSH2 0x121F JUMP JUMPDEST PUSH2 0x2A7 PUSH1 0x4 DUP1 CALLDATASIZE SUB PUSH1 0x40 DUP2 LT ISZERO PUSH2 0x58F JUMPI PUSH1 0x0 DUP1 REVERT JUMPDEST POP PUSH1 0x1 PUSH1 0x1 PUSH1 0xA0 SHL SUB DUP2 CALLDATALOAD DUP2 AND SWAP2 PUSH1 0x20 ADD CALLDATALOAD AND PUSH2 0x1692 JUMP JUMPDEST PUSH2 0x2A7 PUSH2 0x16CB JUMP JUMPDEST PUSH2 0x5E1 PUSH1 0x4 DUP1 CALLDATASIZE SUB PUSH1 0x40 DUP2 LT ISZERO PUSH2 0x5C5 JUMPI PUSH1 0x0 DUP1 REVERT JUMPDEST POP DUP1 CALLDATALOAD PUSH1 0x1 PUSH1 0x1 PUSH1 0xA0 SHL SUB AND SWAP1 PUSH1 0x20 ADD CALLDATALOAD PUSH4 0xFFFFFFFF AND PUSH2 0x16E6 JUMP JUMPDEST PUSH1 0x40 DUP1 MLOAD PUSH4 0xFFFFFFFF SWAP1 SWAP4 AND DUP4 MSTORE PUSH12 0xFFFFFFFFFFFFFFFFFFFFFFFF SWAP1 SWAP2 AND PUSH1 0x20 DUP4 ADD MSTORE DUP1 MLOAD SWAP2 DUP3 SWAP1 SUB ADD SWAP1 RETURN JUMPDEST PUSH2 0x351 PUSH1 0x4 DUP1 CALLDATASIZE SUB PUSH1 0x20 DUP2 LT ISZERO PUSH2 0x624 JUMPI PUSH1 0x0 DUP1 REVERT JUMPDEST POP CALLDATALOAD PUSH1 0x1 PUSH1 0x1 PUSH1 0xA0 SHL SUB AND PUSH2 0x1721 JUMP JUMPDEST PUSH1 0x40 MLOAD DUP1 PUSH1 0x40 ADD PUSH1 0x40 MSTORE DUP1 PUSH1 0x6 DUP2 MSTORE PUSH1 0x20 ADD PUSH32 0x4661697361610000000000000000000000000000000000000000000000000000 DUP2 MSTORE POP DUP2 JUMP JUMPDEST PUSH1 0x1 SLOAD PUSH1 0x1 PUSH1 0x1 PUSH1 0xA0 SHL SUB AND DUP2 JUMP JUMPDEST PUSH1 0x0 DUP1 PUSH1 0x0 NOT DUP4 EQ ISZERO PUSH2 0x692 JUMPI POP PUSH1 0x0 NOT PUSH2 0x6B7 JUMP JUMPDEST PUSH2 0x6B4 DUP4 PUSH1 0x40 MLOAD DUP1 PUSH1 0x60 ADD PUSH1 0x40 MSTORE DUP1 PUSH1 0x27 DUP2 MSTORE PUSH1 0x20 ADD PUSH2 0x213B PUSH1 0x27 SWAP2 CODECOPY PUSH2 0x17EC JUMP JUMPDEST SWAP1 POP JUMPDEST CALLER PUSH1 0x0 DUP2 DUP2 MSTORE PUSH1 0x3 PUSH1 0x20 SWAP1 DUP2 MSTORE PUSH1 0x40 DUP1 DUP4 KECCAK256 PUSH1 0x1 PUSH1 0x1 PUSH1 0xA0 SHL SUB DUP10 AND DUP1 DUP6 MSTORE SWAP1 DUP4 MSTORE SWAP3 DUP2 SWAP1 KECCAK256 DUP1 SLOAD PUSH32 0xFFFFFFFFFFFFFFFFFFFFFFFFFFFFFFFFFFFFFFFF000000000000000000000000 AND PUSH12 0xFFFFFFFFFFFFFFFFFFFFFFFF DUP8 AND SWAP1 DUP2 OR SWAP1 SWAP2 SSTORE DUP2 MLOAD SWAP1 DUP2 MSTORE SWAP1 MLOAD SWAP3 SWAP4 SWAP3 PUSH32 0x8C5BE1E5EBEC7D5BD14F71427D1E84F3DD0314C0F7B2291E5B200AC8C7C3B925 SWAP3 SWAP2 DUP2 SWAP1 SUB SWAP1 SWAP2 ADD SWAP1 LOG3 PUSH1 0x1 SWAP2 POP POP JUMPDEST SWAP3 SWAP2 POP POP JUMP JUMPDEST PUSH1 0x0 SLOAD DUP2 JUMP JUMPDEST PUSH1 0x40 MLOAD DUP1 PUSH1 0x43 PUSH2 0x234C DUP3 CODECOPY PUSH1 0x43 ADD SWAP1 POP PUSH1 0x40 MLOAD DUP1 SWAP2 SUB SWAP1 KECCAK256 DUP2 JUMP JUMPDEST PUSH1 0x1 PUSH1 0x1 PUSH1 0xA0 SHL SUB DUP4 AND PUSH1 0x0 SWAP1 DUP2 MSTORE PUSH1 0x3 PUSH1 0x20 SWAP1 DUP2 MSTORE PUSH1 0x40 DUP1 DUP4 KECCAK256 CALLER DUP1 DUP6 MSTORE SWAP1 DUP4 MSTORE DUP2 DUP5 KECCAK256 SLOAD DUP3 MLOAD PUSH1 0x60 DUP2 ADD SWAP1 SWAP4 MSTORE PUSH1 0x27 DUP1 DUP5 MSTORE SWAP2 SWAP4 PUSH12 0xFFFFFFFFFFFFFFFFFFFFFFFF SWAP1 SWAP2 AND SWAP3 DUP6 SWAP3 PUSH2 0x7D5 SWAP3 DUP9 SWAP3 SWAP2 SWAP1 PUSH2 0x213B SWAP1 DUP4 ADD CODECOPY PUSH2 0x17EC JUMP JUMPDEST SWAP1 POP DUP7 PUSH1 0x1 PUSH1 0x1 PUSH1 0xA0 SHL SUB AND DUP4 PUSH1 0x1 PUSH1 0x1 PUSH1 0xA0 SHL SUB AND EQ ISZERO DUP1 ISZERO PUSH2 0x807 JUMPI POP PUSH12 0xFFFFFFFFFFFFFFFFFFFFFFFF DUP3 DUP2 AND EQ ISZERO JUMPDEST ISZERO PUSH2 0x8CC JUMPI PUSH1 0x0 PUSH2 0x831 DUP4 DUP4 PUSH1 0x40 MLOAD DUP1 PUSH1 0x60 ADD PUSH1 0x40 MSTORE DUP1 PUSH1 0x3F DUP2 MSTORE PUSH1 0x20 ADD PUSH2 0x225C PUSH1 0x3F SWAP2 CODECOPY PUSH2 0x188F JUMP JUMPDEST PUSH1 0x1 PUSH1 0x1 PUSH1 0xA0 SHL SUB DUP10 DUP2 AND PUSH1 0x0 DUP2 DUP2 MSTORE PUSH1 0x3 PUSH1 0x20 SWAP1 DUP2 MSTORE PUSH1 0x40 DUP1 DUP4 KECCAK256 SWAP5 DUP11 AND DUP1 DUP5 MSTORE SWAP5 DUP3 MSTORE SWAP2 DUP3 SWAP1 KECCAK256 DUP1 SLOAD PUSH32 0xFFFFFFFFFFFFFFFFFFFFFFFFFFFFFFFFFFFFFFFF000000000000000000000000 AND PUSH12 0xFFFFFFFFFFFFFFFFFFFFFFFF DUP8 AND SWAP1 DUP2 OR SWAP1 SWAP2 SSTORE DUP3 MLOAD SWAP1 DUP2 MSTORE SWAP2 MLOAD SWAP5 SWAP6 POP SWAP3 SWAP4 SWAP2 SWAP3 PUSH32 0x8C5BE1E5EBEC7D5BD14F71427D1E84F3DD0314C0F7B2291E5B200AC8C7C3B925 SWAP3 SWAP2 DUP3 SWAP1 SUB ADD SWAP1 LOG3 POP JUMPDEST PUSH2 0x8D7 DUP8 DUP8 DUP4 PUSH2 0x1906 JUMP JUMPDEST POP PUSH1 0x1 SWAP7 SWAP6 POP POP POP POP POP POP JUMP JUMPDEST PUSH1 0x40 MLOAD DUP1 PUSH1 0x52 PUSH2 0x229B DUP3 CODECOPY PUSH1 0x52 ADD SWAP1 POP PUSH1 0x40 MLOAD DUP1 SWAP2 SUB SWAP1 KECCAK256 DUP2 JUMP JUMPDEST PUSH1 0x2 SLOAD DUP2 JUMP JUMPDEST PUSH1 0x12 DUP2 JUMP JUMPDEST PUSH1 0x1 SLOAD PUSH1 0x1 PUSH1 0x1 PUSH1 0xA0 SHL SUB AND CALLER EQ PUSH2 0x953 JUMPI PUSH1 0x40 MLOAD PUSH3 0x461BCD PUSH1 0xE5 SHL DUP2 MSTORE PUSH1 0x4 ADD DUP1 DUP1 PUSH1 0x20 ADD DUP3 DUP2 SUB DUP3 MSTORE PUSH1 0x26 DUP2 MSTORE PUSH1 0x20 ADD DUP1 PUSH2 0x24D6 PUSH1 0x26 SWAP2 CODECOPY PUSH1 0x40 ADD SWAP2 POP POP PUSH1 0x40 MLOAD DUP1 SWAP2 SUB SWAP1 REVERT JUMPDEST PUSH1 0x2 SLOAD TIMESTAMP LT ISZERO PUSH2 0x994 JUMPI PUSH1 0x40 MLOAD PUSH3 0x461BCD PUSH1 0xE5 SHL DUP2 MSTORE PUSH1 0x4 ADD DUP1 DUP1 PUSH1 0x20 ADD DUP3 DUP2 SUB DUP3 MSTORE PUSH1 0x25 DUP2 MSTORE PUSH1 0x20 ADD DUP1 PUSH2 0x219A PUSH1 0x25 SWAP2 CODECOPY PUSH1 0x40 ADD SWAP2 POP POP PUSH1 0x40 MLOAD DUP1 SWAP2 SUB SWAP1 REVERT JUMPDEST PUSH1 0x1 PUSH1 0x1 PUSH1 0xA0 SHL SUB DUP3 AND PUSH2 0x9D9 JUMPI PUSH1 0x40 MLOAD PUSH3 0x461BCD PUSH1 0xE5 SHL DUP2 MSTORE PUSH1 0x4 ADD DUP1 DUP1 PUSH1 0x20 ADD DUP3 DUP2 SUB DUP3 MSTORE PUSH1 0x31 DUP2 MSTORE PUSH1 0x20 ADD DUP1 PUSH2 0x20B1 PUSH1 0x31 SWAP2 CODECOPY PUSH1 0x40 ADD SWAP2 POP POP PUSH1 0x40 MLOAD DUP1 SWAP2 SUB SWAP1 REVERT JUMPDEST PUSH2 0x9E7 TIMESTAMP PUSH4 0x1E13380 PUSH2 0x1B25 JUMP JUMPDEST PUSH1 0x2 DUP2 SWAP1 SSTORE POP PUSH1 0x0 PUSH2 0xA11 DUP3 PUSH1 0x40 MLOAD DUP1 PUSH1 0x60 ADD PUSH1 0x40 MSTORE DUP1 PUSH1 0x24 DUP2 MSTORE PUSH1 0x20 ADD PUSH2 0x238F PUSH1 0x24 SWAP2 CODECOPY PUSH2 0x17EC JUMP JUMPDEST SWAP1 POP PUSH2 0xA4E PUSH2 0xA30 PUSH1 0x0 SLOAD DUP4 PUSH12 0xFFFFFFFFFFFFFFFFFFFFFFFF AND PUSH2 0x1B25 JUMP JUMPDEST PUSH1 0x40 MLOAD DUP1 PUSH1 0x60 ADD PUSH1 0x40 MSTORE DUP1 PUSH1 0x29 DUP2 MSTORE PUSH1 0x20 ADD PUSH2 0x23B3 PUSH1 0x29 SWAP2 CODECOPY PUSH2 0x17EC JUMP JUMPDEST PUSH12 0xFFFFFFFFFFFFFFFFFFFFFFFF SWAP1 DUP2 AND PUSH1 0x0 SWAP1 DUP2 SSTORE PUSH1 0x1 PUSH1 0x1 PUSH1 0xA0 SHL SUB DUP6 AND DUP2 MSTORE PUSH1 0x4 PUSH1 0x20 SWAP1 DUP2 MSTORE PUSH1 0x40 SWAP2 DUP3 SWAP1 KECCAK256 SLOAD DUP3 MLOAD PUSH1 0x60 DUP2 ADD SWAP1 SWAP4 MSTORE PUSH1 0x27 DUP1 DUP5 MSTORE PUSH2 0xAA5 SWAP5 SWAP2 SWAP1 SWAP2 AND SWAP3 DUP6 SWAP3 SWAP1 SWAP2 SWAP1 PUSH2 0x20E2 SWAP1 DUP4 ADD CODECOPY PUSH2 0x1B7D JUMP JUMPDEST PUSH1 0x1 PUSH1 0x1 PUSH1 0xA0 SHL SUB DUP5 AND PUSH1 0x0 DUP2 DUP2 MSTORE PUSH1 0x4 PUSH1 0x20 SWAP1 DUP2 MSTORE PUSH1 0x40 DUP1 DUP4 KECCAK256 DUP1 SLOAD PUSH32 0xFFFFFFFFFFFFFFFFFFFFFFFFFFFFFFFFFFFFFFFF000000000000000000000000 AND PUSH12 0xFFFFFFFFFFFFFFFFFFFFFFFF SWAP7 DUP8 AND OR SWAP1 SSTORE DUP1 MLOAD SWAP5 DUP7 AND DUP6 MSTORE MLOAD SWAP3 SWAP4 SWAP2 SWAP3 PUSH32 0xDDF252AD1BE2C89B69C2B068FC378DAA952BA7F163C4A11628F55A4DF523B3EF SWAP3 DUP2 SWAP1 SUB SWAP1 SWAP2 ADD SWAP1 LOG3 PUSH1 0x1 PUSH1 0x1 PUSH1 0xA0 SHL SUB DUP1 DUP5 AND PUSH1 0x0 SWAP1 DUP2 MSTORE PUSH1 0x5 PUSH1 0x20 MSTORE PUSH1 0x40 DUP2 KECCAK256 SLOAD PUSH2 0xB52 SWAP3 AND DUP4 PUSH2 0x1BEC JUMP JUMPDEST POP POP POP JUMP JUMPDEST PUSH1 0x5 PUSH1 0x20 MSTORE PUSH1 0x0 SWAP1 DUP2 MSTORE PUSH1 0x40 SWAP1 KECCAK256 SLOAD PUSH1 0x1 PUSH1 0x1 PUSH1 0xA0 SHL SUB AND DUP2 JUMP JUMPDEST PUSH4 0x1E13380 DUP2 JUMP JUMPDEST PUSH2 0xB84 CALLER DUP3 PUSH2 0x1D8F JUMP JUMPDEST POP JUMP JUMPDEST PUSH1 0x7 PUSH1 0x20 MSTORE PUSH1 0x0 SWAP1 DUP2 MSTORE PUSH1 0x40 SWAP1 KECCAK256 SLOAD PUSH4 0xFFFFFFFF AND DUP2 JUMP JUMPDEST PUSH1 0x1 PUSH1 0x1 PUSH1 0xA0 SHL SUB AND PUSH1 0x0 SWAP1 DUP2 MSTORE PUSH1 0x4 PUSH1 0x20 MSTORE PUSH1 0x40 SWAP1 KECCAK256 SLOAD PUSH12 0xFFFFFFFFFFFFFFFFFFFFFFFF AND SWAP1 JUMP JUMPDEST PUSH1 0x2 DUP2 JUMP JUMPDEST PUSH1 0x0 NUMBER DUP3 LT PUSH2 0xC0D JUMPI PUSH1 0x40 MLOAD PUSH3 0x461BCD PUSH1 0xE5 SHL DUP2 MSTORE PUSH1 0x4 ADD DUP1 DUP1 PUSH1 0x20 ADD DUP3 DUP2 SUB DUP3 MSTORE PUSH1 0x29 DUP2 MSTORE PUSH1 0x20 ADD DUP1 PUSH2 0x24FC PUSH1 0x29 SWAP2 CODECOPY PUSH1 0x40 ADD SWAP2 POP POP PUSH1 0x40 MLOAD DUP1 SWAP2 SUB SWAP1 REVERT JUMPDEST PUSH1 0x1 PUSH1 0x1 PUSH1 0xA0 SHL SUB DUP4 AND PUSH1 0x0 SWAP1 DUP2 MSTORE PUSH1 0x7 PUSH1 0x20 MSTORE PUSH1 0x40 SWAP1 KECCAK256 SLOAD PUSH4 0xFFFFFFFF AND DUP1 PUSH2 0xC3B JUMPI PUSH1 0x0 SWAP2 POP POP PUSH2 0x751 JUMP JUMPDEST PUSH1 0x1 PUSH1 0x1 PUSH1 0xA0 SHL SUB DUP5 AND PUSH1 0x0 SWAP1 DUP2 MSTORE PUSH1 0x6 PUSH1 0x20 SWAP1 DUP2 MSTORE PUSH1 0x40 DUP1 DUP4 KECCAK256 PUSH4 0xFFFFFFFF PUSH1 0x0 NOT DUP7 ADD DUP2 AND DUP6 MSTORE SWAP3 MSTORE SWAP1 SWAP2 KECCAK256 SLOAD AND DUP4 LT PUSH2 0xCBD JUMPI PUSH1 0x1 PUSH1 0x1 PUSH1 0xA0 SHL SUB DUP5 AND PUSH1 0x0 SWAP1 DUP2 MSTORE PUSH1 0x6 PUSH1 0x20 SWAP1 DUP2 MSTORE PUSH1 0x40 DUP1 DUP4 KECCAK256 PUSH1 0x0 NOT SWAP5 SWAP1 SWAP5 ADD PUSH4 0xFFFFFFFF AND DUP4 MSTORE SWAP3 SWAP1 MSTORE KECCAK256 SLOAD PUSH5 0x100000000 SWAP1 DIV PUSH12 0xFFFFFFFFFFFFFFFFFFFFFFFF AND SWAP1 POP PUSH2 0x751 JUMP JUMPDEST PUSH1 0x1 PUSH1 0x1 PUSH1 0xA0 SHL SUB DUP5 AND PUSH1 0x0 SWAP1 DUP2 MSTORE PUSH1 0x6 PUSH1 0x20 SWAP1 DUP2 MSTORE PUSH1 0x40 DUP1 DUP4 KECCAK256 DUP4 DUP1 MSTORE SWAP1 SWAP2 MSTORE SWAP1 KECCAK256 SLOAD PUSH4 0xFFFFFFFF AND DUP4 LT ISZERO PUSH2 0xCF8 JUMPI PUSH1 0x0 SWAP2 POP POP PUSH2 0x751 JUMP JUMPDEST PUSH1 0x0 PUSH1 0x0 NOT DUP3 ADD JUMPDEST DUP2 PUSH4 0xFFFFFFFF AND DUP2 PUSH4 0xFFFFFFFF AND GT ISZERO PUSH2 0xDC1 JUMPI PUSH1 0x2 DUP3 DUP3 SUB PUSH4 0xFFFFFFFF AND DIV DUP2 SUB PUSH2 0xD2A PUSH2 0x2099 JUMP JUMPDEST POP PUSH1 0x1 PUSH1 0x1 PUSH1 0xA0 SHL SUB DUP8 AND PUSH1 0x0 SWAP1 DUP2 MSTORE PUSH1 0x6 PUSH1 0x20 SWAP1 DUP2 MSTORE PUSH1 0x40 DUP1 DUP4 KECCAK256 PUSH4 0xFFFFFFFF DUP6 DUP2 AND DUP6 MSTORE SWAP1 DUP4 MSTORE SWAP3 DUP2 SWAP1 KECCAK256 DUP2 MLOAD DUP1 DUP4 ADD SWAP1 SWAP3 MSTORE SLOAD SWAP3 DUP4 AND DUP1 DUP3 MSTORE PUSH5 0x100000000 SWAP1 SWAP4 DIV PUSH12 0xFFFFFFFFFFFFFFFFFFFFFFFF AND SWAP2 DUP2 ADD SWAP2 SWAP1 SWAP2 MSTORE SWAP1 DUP8 EQ ISZERO PUSH2 0xD9C JUMPI PUSH1 0x20 ADD MLOAD SWAP5 POP PUSH2 0x751 SWAP4 POP POP POP POP JUMP JUMPDEST DUP1 MLOAD PUSH4 0xFFFFFFFF AND DUP8 GT ISZERO PUSH2 0xDB3 JUMPI DUP2 SWAP4 POP PUSH2 0xDBA JUMP JUMPDEST PUSH1 0x1 DUP3 SUB SWAP3 POP JUMPDEST POP POP PUSH2 0xD00 JUMP JUMPDEST POP PUSH1 0x1 PUSH1 0x1 PUSH1 0xA0 SHL SUB DUP6 AND PUSH1 0x0 SWAP1 DUP2 MSTORE PUSH1 0x6 PUSH1 0x20 SWAP1 DUP2 MSTORE PUSH1 0x40 DUP1 DUP4 KECCAK256 PUSH4 0xFFFFFFFF SWAP1 SWAP5 AND DUP4 MSTORE SWAP3 SWAP1 MSTORE KECCAK256 SLOAD PUSH12 0xFFFFFFFFFFFFFFFFFFFFFFFF PUSH5 0x100000000 SWAP1 SWAP2 DIV AND SWAP2 POP POP SWAP3 SWAP2 POP POP JUMP JUMPDEST PUSH1 0x8 PUSH1 0x20 MSTORE PUSH1 0x0 SWAP1 DUP2 MSTORE PUSH1 0x40 SWAP1 KECCAK256 SLOAD DUP2 JUMP JUMPDEST PUSH1 0x40 MLOAD DUP1 PUSH1 0x40 ADD PUSH1 0x40 MSTORE DUP1 PUSH1 0x6 DUP2 MSTORE PUSH1 0x20 ADD PUSH32 0x4641495341410000000000000000000000000000000000000000000000000000 DUP2 MSTORE POP DUP2 JUMP JUMPDEST PUSH1 0x0 DUP1 PUSH2 0xE7C DUP4 PUSH1 0x40 MLOAD DUP1 PUSH1 0x60 ADD PUSH1 0x40 MSTORE DUP1 PUSH1 0x28 DUP2 MSTORE PUSH1 0x20 ADD PUSH2 0x248A PUSH1 0x28 SWAP2 CODECOPY PUSH2 0x17EC JUMP JUMPDEST SWAP1 POP PUSH2 0xE89 CALLER DUP6 DUP4 PUSH2 0x1906 JUMP JUMPDEST POP PUSH1 0x1 SWAP4 SWAP3 POP POP POP JUMP JUMPDEST PUSH1 0x1 PUSH1 0x1 PUSH1 0xA0 SHL SUB DUP2 AND PUSH1 0x0 SWAP1 DUP2 MSTORE PUSH1 0x7 PUSH1 0x20 MSTORE PUSH1 0x40 DUP2 KECCAK256 SLOAD PUSH4 0xFFFFFFFF AND DUP1 PUSH2 0xEBE JUMPI PUSH1 0x0 PUSH2 0xF03 JUMP JUMPDEST PUSH1 0x1 PUSH1 0x1 PUSH1 0xA0 SHL SUB DUP4 AND PUSH1 0x0 SWAP1 DUP2 MSTORE PUSH1 0x6 PUSH1 0x20 SWAP1 DUP2 MSTORE PUSH1 0x40 DUP1 DUP4 KECCAK256 PUSH1 0x0 NOT DUP6 ADD PUSH4 0xFFFFFFFF AND DUP5 MSTORE SWAP1 SWAP2 MSTORE SWAP1 KECCAK256 SLOAD PUSH5 0x100000000 SWAP1 DIV PUSH12 0xFFFFFFFFFFFFFFFFFFFFFFFF AND JUMPDEST SWAP4 SWAP3 POP POP POP JUMP JUMPDEST PUSH1 0x0 PUSH1 0x40 MLOAD DUP1 DUP1 PUSH2 0x234C PUSH1 0x43 SWAP2 CODECOPY PUSH1 0x40 DUP1 MLOAD SWAP2 DUP3 SWAP1 SUB PUSH1 0x43 ADD DUP3 KECCAK256 DUP3 DUP3 ADD SWAP1 SWAP2 MSTORE PUSH1 0x6 DUP3 MSTORE PUSH32 0x4661697361610000000000000000000000000000000000000000000000000000 PUSH1 0x20 SWAP1 SWAP3 ADD SWAP2 SWAP1 SWAP2 MSTORE SWAP1 POP PUSH32 0x9869EADF408163BA154B1C0EE82BA4780D5D47224D67622AC848D92C700AB76D PUSH2 0xF84 PUSH2 0x1E36 JUMP JUMPDEST ADDRESS PUSH1 0x40 MLOAD PUSH1 0x20 ADD DUP1 DUP6 DUP2 MSTORE PUSH1 0x20 ADD DUP5 DUP2 MSTORE PUSH1 0x20 ADD DUP4 DUP2 MSTORE PUSH1 0x20 ADD DUP3 PUSH1 0x1 PUSH1 0x1 PUSH1 0xA0 SHL SUB AND PUSH1 0x1 PUSH1 0x1 PUSH1 0xA0 SHL SUB AND DUP2 MSTORE PUSH1 0x20 ADD SWAP5 POP POP POP POP POP PUSH1 0x40 MLOAD PUSH1 0x20 DUP2 DUP4 SUB SUB DUP2 MSTORE SWAP1 PUSH1 0x40 MSTORE DUP1 MLOAD SWAP1 PUSH1 0x20 ADD KECCAK256 SWAP1 POP PUSH1 0x0 PUSH1 0x40 MLOAD DUP1 DUP1 PUSH2 0x2525 PUSH1 0x3A SWAP2 CODECOPY PUSH1 0x40 DUP1 MLOAD SWAP2 DUP3 SWAP1 SUB PUSH1 0x3A ADD DUP3 KECCAK256 PUSH1 0x20 DUP1 DUP5 ADD SWAP2 SWAP1 SWAP2 MSTORE PUSH1 0x1 PUSH1 0x1 PUSH1 0xA0 SHL SUB DUP13 AND DUP4 DUP4 ADD MSTORE PUSH1 0x60 DUP4 ADD DUP12 SWAP1 MSTORE PUSH1 0x80 DUP1 DUP5 ADD DUP12 SWAP1 MSTORE DUP3 MLOAD DUP1 DUP6 SUB SWAP1 SWAP2 ADD DUP2 MSTORE PUSH1 0xA0 DUP5 ADD DUP4 MSTORE DUP1 MLOAD SWAP1 DUP3 ADD KECCAK256 PUSH32 0x1901000000000000000000000000000000000000000000000000000000000000 PUSH1 0xC0 DUP6 ADD MSTORE PUSH1 0xC2 DUP5 ADD DUP8 SWAP1 MSTORE PUSH1 0xE2 DUP1 DUP6 ADD DUP3 SWAP1 MSTORE DUP4 MLOAD DUP1 DUP7 SUB SWAP1 SWAP2 ADD DUP2 MSTORE PUSH2 0x102 DUP6 ADD DUP1 DUP6 MSTORE DUP2 MLOAD SWAP2 DUP5 ADD SWAP2 SWAP1 SWAP2 KECCAK256 PUSH1 0x0 SWAP2 DUP3 SWAP1 MSTORE PUSH2 0x122 DUP7 ADD DUP1 DUP7 MSTORE DUP2 SWAP1 MSTORE PUSH1 0xFF DUP13 AND PUSH2 0x142 DUP8 ADD MSTORE PUSH2 0x162 DUP7 ADD DUP12 SWAP1 MSTORE PUSH2 0x182 DUP7 ADD DUP11 SWAP1 MSTORE SWAP4 MLOAD SWAP2 SWAP7 POP SWAP3 SWAP5 POP SWAP2 SWAP3 PUSH1 0x1 SWAP3 PUSH2 0x1A2 DUP1 DUP4 ADD SWAP4 SWAP3 PUSH32 0xFFFFFFFFFFFFFFFFFFFFFFFFFFFFFFFFFFFFFFFFFFFFFFFFFFFFFFFFFFFFFFE0 DUP4 ADD SWAP3 SWAP1 DUP2 SWAP1 SUB SWAP1 SWAP2 ADD SWAP1 DUP6 GAS STATICCALL ISZERO DUP1 ISZERO PUSH2 0x10FB JUMPI RETURNDATASIZE PUSH1 0x0 DUP1 RETURNDATACOPY RETURNDATASIZE PUSH1 0x0 REVERT JUMPDEST POP POP PUSH1 0x40 MLOAD PUSH32 0xFFFFFFFFFFFFFFFFFFFFFFFFFFFFFFFFFFFFFFFFFFFFFFFFFFFFFFFFFFFFFFE0 ADD MLOAD SWAP2 POP POP PUSH1 0x1 PUSH1 0x1 PUSH1 0xA0 SHL SUB DUP2 AND PUSH2 0x116B JUMPI PUSH1 0x40 MLOAD PUSH3 0x461BCD PUSH1 0xE5 SHL DUP2 MSTORE PUSH1 0x4 ADD DUP1 DUP1 PUSH1 0x20 ADD DUP3 DUP2 SUB DUP3 MSTORE PUSH1 0x28 DUP2 MSTORE PUSH1 0x20 ADD DUP1 PUSH2 0x255F PUSH1 0x28 SWAP2 CODECOPY PUSH1 0x40 ADD SWAP2 POP POP PUSH1 0x40 MLOAD DUP1 SWAP2 SUB SWAP1 REVERT JUMPDEST PUSH1 0x1 PUSH1 0x1 PUSH1 0xA0 SHL SUB DUP2 AND PUSH1 0x0 SWAP1 DUP2 MSTORE PUSH1 0x8 PUSH1 0x20 MSTORE PUSH1 0x40 SWAP1 KECCAK256 DUP1 SLOAD PUSH1 0x1 DUP2 ADD SWAP1 SWAP2 SSTORE DUP10 EQ PUSH2 0x11C9 JUMPI PUSH1 0x40 MLOAD PUSH3 0x461BCD PUSH1 0xE5 SHL DUP2 MSTORE PUSH1 0x4 ADD DUP1 DUP1 PUSH1 0x20 ADD DUP3 DUP2 SUB DUP3 MSTORE PUSH1 0x24 DUP2 MSTORE PUSH1 0x20 ADD DUP1 PUSH2 0x24B2 PUSH1 0x24 SWAP2 CODECOPY PUSH1 0x40 ADD SWAP2 POP POP PUSH1 0x40 MLOAD DUP1 SWAP2 SUB SWAP1 REVERT JUMPDEST DUP8 TIMESTAMP GT ISZERO PUSH2 0x1208 JUMPI PUSH1 0x40 MLOAD PUSH3 0x461BCD PUSH1 0xE5 SHL DUP2 MSTORE PUSH1 0x4 ADD DUP1 DUP1 PUSH1 0x20 ADD DUP3 DUP2 SUB DUP3 MSTORE PUSH1 0x28 DUP2 MSTORE PUSH1 0x20 ADD DUP1 PUSH2 0x23DC PUSH1 0x28 SWAP2 CODECOPY PUSH1 0x40 ADD SWAP2 POP POP PUSH1 0x40 MLOAD DUP1 SWAP2 SUB SWAP1 REVERT JUMPDEST PUSH2 0x1212 DUP2 DUP12 PUSH2 0x1D8F JUMP JUMPDEST POP POP POP POP JUMPDEST POP POP POP POP POP POP JUMP JUMPDEST PUSH1 0x0 PUSH1 0x0 NOT DUP7 EQ ISZERO PUSH2 0x1234 JUMPI POP PUSH1 0x0 NOT PUSH2 0x1259 JUMP JUMPDEST PUSH2 0x1256 DUP7 PUSH1 0x40 MLOAD DUP1 PUSH1 0x60 ADD PUSH1 0x40 MSTORE DUP1 PUSH1 0x26 DUP2 MSTORE PUSH1 0x20 ADD PUSH2 0x2404 PUSH1 0x26 SWAP2 CODECOPY PUSH2 0x17EC JUMP JUMPDEST SWAP1 POP JUMPDEST PUSH1 0x0 PUSH1 0x40 MLOAD DUP1 DUP1 PUSH2 0x234C PUSH1 0x43 SWAP2 CODECOPY PUSH1 0x40 DUP1 MLOAD SWAP2 DUP3 SWAP1 SUB PUSH1 0x43 ADD DUP3 KECCAK256 DUP3 DUP3 ADD SWAP1 SWAP2 MSTORE PUSH1 0x6 DUP3 MSTORE PUSH32 0x4661697361610000000000000000000000000000000000000000000000000000 PUSH1 0x20 SWAP1 SWAP3 ADD SWAP2 SWAP1 SWAP2 MSTORE SWAP1 POP PUSH32 0x9869EADF408163BA154B1C0EE82BA4780D5D47224D67622AC848D92C700AB76D PUSH2 0x12D3 PUSH2 0x1E36 JUMP JUMPDEST ADDRESS PUSH1 0x40 MLOAD PUSH1 0x20 ADD DUP1 DUP6 DUP2 MSTORE PUSH1 0x20 ADD DUP5 DUP2 MSTORE PUSH1 0x20 ADD DUP4 DUP2 MSTORE PUSH1 0x20 ADD DUP3 PUSH1 0x1 PUSH1 0x1 PUSH1 0xA0 SHL SUB AND PUSH1 0x1 PUSH1 0x1 PUSH1 0xA0 SHL SUB AND DUP2 MSTORE PUSH1 0x20 ADD SWAP5 POP POP POP POP POP PUSH1 0x40 MLOAD PUSH1 0x20 DUP2 DUP4 SUB SUB DUP2 MSTORE SWAP1 PUSH1 0x40 MSTORE DUP1 MLOAD SWAP1 PUSH1 0x20 ADD KECCAK256 SWAP1 POP PUSH1 0x0 PUSH1 0x40 MLOAD DUP1 DUP1 PUSH2 0x229B PUSH1 0x52 SWAP2 CODECOPY PUSH1 0x52 ADD SWAP1 POP PUSH1 0x40 MLOAD DUP1 SWAP2 SUB SWAP1 KECCAK256 DUP11 DUP11 DUP11 PUSH1 0x8 PUSH1 0x0 DUP16 PUSH1 0x1 PUSH1 0x1 PUSH1 0xA0 SHL SUB AND PUSH1 0x1 PUSH1 0x1 PUSH1 0xA0 SHL SUB AND DUP2 MSTORE PUSH1 0x20 ADD SWAP1 DUP2 MSTORE PUSH1 0x20 ADD PUSH1 0x0 KECCAK256 PUSH1 0x0 DUP2 SLOAD DUP1 SWAP3 SWAP2 SWAP1 PUSH1 0x1 ADD SWAP2 SWAP1 POP SSTORE DUP12 PUSH1 0x40 MLOAD PUSH1 0x20 ADD DUP1 DUP8 DUP2 MSTORE PUSH1 0x20 ADD DUP7 PUSH1 0x1 PUSH1 0x1 PUSH1 0xA0 SHL SUB AND PUSH1 0x1 PUSH1 0x1 PUSH1 0xA0 SHL SUB AND DUP2 MSTORE PUSH1 0x20 ADD DUP6 PUSH1 0x1 PUSH1 0x1 PUSH1 0xA0 SHL SUB AND PUSH1 0x1 PUSH1 0x1 PUSH1 0xA0 SHL SUB AND DUP2 MSTORE PUSH1 0x20 ADD DUP5 DUP2 MSTORE PUSH1 0x20 ADD DUP4 DUP2 MSTORE PUSH1 0x20 ADD DUP3 DUP2 MSTORE PUSH1 0x20 ADD SWAP7 POP POP POP POP POP POP POP PUSH1 0x40 MLOAD PUSH1 0x20 DUP2 DUP4 SUB SUB DUP2 MSTORE SWAP1 PUSH1 0x40 MSTORE DUP1 MLOAD SWAP1 PUSH1 0x20 ADD KECCAK256 SWAP1 POP PUSH1 0x0 DUP3 DUP3 PUSH1 0x40 MLOAD PUSH1 0x20 ADD DUP1 DUP1 PUSH32 0x1901000000000000000000000000000000000000000000000000000000000000 DUP2 MSTORE POP PUSH1 0x2 ADD DUP4 DUP2 MSTORE PUSH1 0x20 ADD DUP3 DUP2 MSTORE PUSH1 0x20 ADD SWAP3 POP POP POP PUSH1 0x40 MLOAD PUSH1 0x20 DUP2 DUP4 SUB SUB DUP2 MSTORE SWAP1 PUSH1 0x40 MSTORE DUP1 MLOAD SWAP1 PUSH1 0x20 ADD KECCAK256 SWAP1 POP PUSH1 0x0 PUSH1 0x1 DUP3 DUP10 DUP10 DUP10 PUSH1 0x40 MLOAD PUSH1 0x0 DUP2 MSTORE PUSH1 0x20 ADD PUSH1 0x40 MSTORE PUSH1 0x40 MLOAD DUP1 DUP6 DUP2 MSTORE PUSH1 0x20 ADD DUP5 PUSH1 0xFF AND PUSH1 0xFF AND DUP2 MSTORE PUSH1 0x20 ADD DUP4 DUP2 MSTORE PUSH1 0x20 ADD DUP3 DUP2 MSTORE PUSH1 0x20 ADD SWAP5 POP POP POP POP POP PUSH1 0x20 PUSH1 0x40 MLOAD PUSH1 0x20 DUP2 SUB SWAP1 DUP1 DUP5 SUB SWAP1 DUP6 GAS STATICCALL ISZERO DUP1 ISZERO PUSH2 0x149F JUMPI RETURNDATASIZE PUSH1 0x0 DUP1 RETURNDATACOPY RETURNDATASIZE PUSH1 0x0 REVERT JUMPDEST POP POP PUSH1 0x40 MLOAD PUSH32 0xFFFFFFFFFFFFFFFFFFFFFFFFFFFFFFFFFFFFFFFFFFFFFFFFFFFFFFFFFFFFFFE0 ADD MLOAD SWAP2 POP POP PUSH1 0x1 PUSH1 0x1 PUSH1 0xA0 SHL SUB DUP2 AND PUSH2 0x150F JUMPI PUSH1 0x40 MLOAD PUSH3 0x461BCD PUSH1 0xE5 SHL DUP2 MSTORE PUSH1 0x4 ADD DUP1 DUP1 PUSH1 0x20 ADD DUP3 DUP2 SUB DUP3 MSTORE PUSH1 0x21 DUP2 MSTORE PUSH1 0x20 ADD DUP1 PUSH2 0x232B PUSH1 0x21 SWAP2 CODECOPY PUSH1 0x40 ADD SWAP2 POP POP PUSH1 0x40 MLOAD DUP1 SWAP2 SUB SWAP1 REVERT JUMPDEST DUP12 PUSH1 0x1 PUSH1 0x1 PUSH1 0xA0 SHL SUB AND DUP2 PUSH1 0x1 PUSH1 0x1 PUSH1 0xA0 SHL SUB AND EQ PUSH2 0x1575 JUMPI PUSH1 0x40 DUP1 MLOAD PUSH3 0x461BCD PUSH1 0xE5 SHL DUP2 MSTORE PUSH1 0x20 PUSH1 0x4 DUP3 ADD MSTORE PUSH1 0x1C PUSH1 0x24 DUP3 ADD MSTORE PUSH32 0x4661697361613A3A7065726D69743A20756E617574686F72697A656400000000 PUSH1 0x44 DUP3 ADD MSTORE SWAP1 MLOAD SWAP1 DUP2 SWAP1 SUB PUSH1 0x64 ADD SWAP1 REVERT JUMPDEST DUP9 TIMESTAMP GT ISZERO PUSH2 0x15B4 JUMPI PUSH1 0x40 MLOAD PUSH3 0x461BCD PUSH1 0xE5 SHL DUP2 MSTORE PUSH1 0x4 ADD DUP1 DUP1 PUSH1 0x20 ADD DUP3 DUP2 SUB DUP3 MSTORE PUSH1 0x21 DUP2 MSTORE PUSH1 0x20 ADD DUP1 PUSH2 0x21FB PUSH1 0x21 SWAP2 CODECOPY PUSH1 0x40 ADD SWAP2 POP POP PUSH1 0x40 MLOAD DUP1 SWAP2 SUB SWAP1 REVERT JUMPDEST DUP5 PUSH1 0x3 PUSH1 0x0 DUP15 PUSH1 0x1 PUSH1 0x1 PUSH1 0xA0 SHL SUB AND PUSH1 0x1 PUSH1 0x1 PUSH1 0xA0 SHL SUB AND DUP2 MSTORE PUSH1 0x20 ADD SWAP1 DUP2 MSTORE PUSH1 0x20 ADD PUSH1 0x0 KECCAK256 PUSH1 0x0 DUP14 PUSH1 0x1 PUSH1 0x1 PUSH1 0xA0 SHL SUB AND PUSH1 0x1 PUSH1 0x1 PUSH1 0xA0 SHL SUB AND DUP2 MSTORE PUSH1 0x20 ADD SWAP1 DUP2 MSTORE PUSH1 0x20 ADD PUSH1 0x0 KECCAK256 PUSH1 0x0 PUSH2 0x100 EXP DUP2 SLOAD DUP2 PUSH12 0xFFFFFFFFFFFFFFFFFFFFFFFF MUL NOT AND SWAP1 DUP4 PUSH12 0xFFFFFFFFFFFFFFFFFFFFFFFF AND MUL OR SWAP1 SSTORE POP DUP11 PUSH1 0x1 PUSH1 0x1 PUSH1 0xA0 SHL SUB AND DUP13 PUSH1 0x1 PUSH1 0x1 PUSH1 0xA0 SHL SUB AND PUSH32 0x8C5BE1E5EBEC7D5BD14F71427D1E84F3DD0314C0F7B2291E5B200AC8C7C3B925 DUP8 PUSH1 0x40 MLOAD DUP1 DUP3 PUSH12 0xFFFFFFFFFFFFFFFFFFFFFFFF AND DUP2 MSTORE PUSH1 0x20 ADD SWAP2 POP POP PUSH1 0x40 MLOAD DUP1 SWAP2 SUB SWAP1 LOG3 POP POP POP POP POP POP POP POP POP POP POP POP JUMP JUMPDEST PUSH1 0x1 PUSH1 0x1 PUSH1 0xA0 SHL SUB SWAP2 DUP3 AND PUSH1 0x0 SWAP1 DUP2 MSTORE PUSH1 0x3 PUSH1 0x20 SWAP1 DUP2 MSTORE PUSH1 0x40 DUP1 DUP4 KECCAK256 SWAP4 SWAP1 SWAP5 AND DUP3 MSTORE SWAP2 SWAP1 SWAP2 MSTORE KECCAK256 SLOAD PUSH12 0xFFFFFFFFFFFFFFFFFFFFFFFF AND SWAP1 JUMP JUMPDEST PUSH1 0x40 MLOAD DUP1 PUSH1 0x3A PUSH2 0x2525 DUP3 CODECOPY PUSH1 0x3A ADD SWAP1 POP PUSH1 0x40 MLOAD DUP1 SWAP2 SUB SWAP1 KECCAK256 DUP2 JUMP JUMPDEST PUSH1 0x6 PUSH1 0x20 SWAP1 DUP2 MSTORE PUSH1 0x0 SWAP3 DUP4 MSTORE PUSH1 0x40 DUP1 DUP5 KECCAK256 SWAP1 SWAP2 MSTORE SWAP1 DUP3 MSTORE SWAP1 KECCAK256 SLOAD PUSH4 0xFFFFFFFF DUP2 AND SWAP1 PUSH5 0x100000000 SWAP1 DIV PUSH12 0xFFFFFFFFFFFFFFFFFFFFFFFF AND DUP3 JUMP JUMPDEST PUSH1 0x1 SLOAD PUSH1 0x1 PUSH1 0x1 PUSH1 0xA0 SHL SUB AND CALLER EQ PUSH2 0x176A JUMPI PUSH1 0x40 MLOAD PUSH3 0x461BCD PUSH1 0xE5 SHL DUP2 MSTORE PUSH1 0x4 ADD DUP1 DUP1 PUSH1 0x20 ADD DUP3 DUP2 SUB DUP3 MSTORE PUSH1 0x40 DUP2 MSTORE PUSH1 0x20 ADD DUP1 PUSH2 0x221C PUSH1 0x40 SWAP2 CODECOPY PUSH1 0x40 ADD SWAP2 POP POP PUSH1 0x40 MLOAD DUP1 SWAP2 SUB SWAP1 REVERT JUMPDEST PUSH1 0x1 SLOAD PUSH1 0x40 DUP1 MLOAD PUSH1 0x1 PUSH1 0x1 PUSH1 0xA0 SHL SUB SWAP3 DUP4 AND DUP2 MSTORE SWAP2 DUP4 AND PUSH1 0x20 DUP4 ADD MSTORE DUP1 MLOAD PUSH32 0x3B0007EB941CF645526CBB3A4FDAECDA9D28CE4843167D9263B536A1F1EDC0F6 SWAP3 DUP2 SWAP1 SUB SWAP1 SWAP2 ADD SWAP1 LOG1 PUSH1 0x1 DUP1 SLOAD PUSH32 0xFFFFFFFFFFFFFFFFFFFFFFFF0000000000000000000000000000000000000000 AND PUSH1 0x1 PUSH1 0x1 PUSH1 0xA0 SHL SUB SWAP3 SWAP1 SWAP3 AND SWAP2 SWAP1 SWAP2 OR SWAP1 SSTORE JUMP JUMPDEST PUSH1 0x0 DUP2 PUSH13 0x1000000000000000000000000 DUP5 LT PUSH2 0x1887 JUMPI PUSH1 0x40 MLOAD PUSH3 0x461BCD PUSH1 0xE5 SHL DUP2 MSTORE PUSH1 0x4 ADD DUP1 DUP1 PUSH1 0x20 ADD DUP3 DUP2 SUB DUP3 MSTORE DUP4 DUP2 DUP2 MLOAD DUP2 MSTORE PUSH1 0x20 ADD SWAP2 POP DUP1 MLOAD SWAP1 PUSH1 0x20 ADD SWAP1 DUP1 DUP4 DUP4 PUSH1 0x0 JUMPDEST DUP4 DUP2 LT ISZERO PUSH2 0x184C JUMPI DUP2 DUP2 ADD MLOAD DUP4 DUP3 ADD MSTORE PUSH1 0x20 ADD PUSH2 0x1834 JUMP JUMPDEST POP POP POP POP SWAP1 POP SWAP1 DUP2 ADD SWAP1 PUSH1 0x1F AND DUP1 ISZERO PUSH2 0x1879 JUMPI DUP1 DUP3 SUB DUP1 MLOAD PUSH1 0x1 DUP4 PUSH1 0x20 SUB PUSH2 0x100 EXP SUB NOT AND DUP2 MSTORE PUSH1 0x20 ADD SWAP2 POP JUMPDEST POP SWAP3 POP POP POP PUSH1 0x40 MLOAD DUP1 SWAP2 SUB SWAP1 REVERT JUMPDEST POP SWAP2 SWAP3 SWAP2 POP POP JUMP JUMPDEST PUSH1 0x0 DUP4 PUSH12 0xFFFFFFFFFFFFFFFFFFFFFFFF AND DUP4 PUSH12 0xFFFFFFFFFFFFFFFFFFFFFFFF AND GT ISZERO DUP3 SWAP1 PUSH2 0x18FE JUMPI PUSH1 0x40 MLOAD PUSH3 0x461BCD PUSH1 0xE5 SHL DUP2 MSTORE PUSH1 0x20 PUSH1 0x4 DUP3 ADD DUP2 DUP2 MSTORE DUP4 MLOAD PUSH1 0x24 DUP5 ADD MSTORE DUP4 MLOAD SWAP1 SWAP3 DUP4 SWAP3 PUSH1 0x44 SWAP1 SWAP2 ADD SWAP2 SWAP1 DUP6 ADD SWAP1 DUP1 DUP4 DUP4 PUSH1 0x0 DUP4 ISZERO PUSH2 0x184C JUMPI DUP2 DUP2 ADD MLOAD DUP4 DUP3 ADD MSTORE PUSH1 0x20 ADD PUSH2 0x1834 JUMP JUMPDEST POP POP POP SWAP1 SUB SWAP1 JUMP JUMPDEST PUSH1 0x1 PUSH1 0x1 PUSH1 0xA0 SHL SUB DUP4 AND PUSH2 0x194B JUMPI PUSH1 0x40 MLOAD PUSH3 0x461BCD PUSH1 0xE5 SHL DUP2 MSTORE PUSH1 0x4 ADD DUP1 DUP1 PUSH1 0x20 ADD DUP3 DUP2 SUB DUP3 MSTORE PUSH1 0x3E DUP2 MSTORE PUSH1 0x20 ADD DUP1 PUSH2 0x22ED PUSH1 0x3E SWAP2 CODECOPY PUSH1 0x40 ADD SWAP2 POP POP PUSH1 0x40 MLOAD DUP1 SWAP2 SUB SWAP1 REVERT JUMPDEST PUSH1 0x1 PUSH1 0x1 PUSH1 0xA0 SHL SUB DUP3 AND PUSH2 0x1990 JUMPI PUSH1 0x40 MLOAD PUSH3 0x461BCD PUSH1 0xE5 SHL DUP2 MSTORE PUSH1 0x4 ADD DUP1 DUP1 PUSH1 0x20 ADD DUP3 DUP2 SUB DUP3 MSTORE PUSH1 0x3C DUP2 MSTORE PUSH1 0x20 ADD DUP1 PUSH2 0x21BF PUSH1 0x3C SWAP2 CODECOPY PUSH1 0x40 ADD SWAP2 POP POP PUSH1 0x40 MLOAD DUP1 SWAP2 SUB SWAP1 REVERT JUMPDEST PUSH1 0x1 PUSH1 0x1 PUSH1 0xA0 SHL SUB DUP4 AND PUSH1 0x0 SWAP1 DUP2 MSTORE PUSH1 0x4 PUSH1 0x20 SWAP1 DUP2 MSTORE PUSH1 0x40 SWAP2 DUP3 SWAP1 KECCAK256 SLOAD DUP3 MLOAD PUSH1 0x60 DUP2 ADD SWAP1 SWAP4 MSTORE PUSH1 0x38 DUP1 DUP5 MSTORE PUSH2 0x19E0 SWAP4 PUSH12 0xFFFFFFFFFFFFFFFFFFFFFFFF SWAP1 SWAP3 AND SWAP3 DUP6 SWAP3 SWAP2 SWAP1 PUSH2 0x2162 SWAP1 DUP4 ADD CODECOPY PUSH2 0x188F JUMP JUMPDEST PUSH1 0x1 PUSH1 0x1 PUSH1 0xA0 SHL SUB DUP5 DUP2 AND PUSH1 0x0 SWAP1 DUP2 MSTORE PUSH1 0x4 PUSH1 0x20 SWAP1 DUP2 MSTORE PUSH1 0x40 DUP1 DUP4 KECCAK256 DUP1 SLOAD PUSH32 0xFFFFFFFFFFFFFFFFFFFFFFFFFFFFFFFFFFFFFFFF000000000000000000000000 AND PUSH12 0xFFFFFFFFFFFFFFFFFFFFFFFF SWAP7 DUP8 AND OR SWAP1 SSTORE SWAP3 DUP7 AND DUP3 MSTORE SWAP1 DUP3 SWAP1 KECCAK256 SLOAD DUP3 MLOAD PUSH1 0x60 DUP2 ADD SWAP1 SWAP4 MSTORE PUSH1 0x32 DUP1 DUP5 MSTORE PUSH2 0x1A65 SWAP5 SWAP2 SWAP1 SWAP2 AND SWAP3 DUP6 SWAP3 SWAP1 SWAP2 SWAP1 PUSH2 0x2109 SWAP1 DUP4 ADD CODECOPY PUSH2 0x1B7D JUMP JUMPDEST PUSH1 0x1 PUSH1 0x1 PUSH1 0xA0 SHL SUB DUP4 DUP2 AND PUSH1 0x0 DUP2 DUP2 MSTORE PUSH1 0x4 PUSH1 0x20 SWAP1 DUP2 MSTORE PUSH1 0x40 SWAP2 DUP3 SWAP1 KECCAK256 DUP1 SLOAD PUSH32 0xFFFFFFFFFFFFFFFFFFFFFFFFFFFFFFFFFFFFFFFF000000000000000000000000 AND PUSH12 0xFFFFFFFFFFFFFFFFFFFFFFFF SWAP7 DUP8 AND OR SWAP1 SSTORE DUP2 MLOAD SWAP5 DUP7 AND DUP6 MSTORE SWAP1 MLOAD SWAP2 SWAP4 SWAP3 DUP8 AND SWAP3 PUSH32 0xDDF252AD1BE2C89B69C2B068FC378DAA952BA7F163C4A11628F55A4DF523B3EF SWAP3 SWAP1 DUP2 SWAP1 SUB SWAP1 SWAP2 ADD SWAP1 LOG3 PUSH1 0x1 PUSH1 0x1 PUSH1 0xA0 SHL SUB DUP1 DUP5 AND PUSH1 0x0 SWAP1 DUP2 MSTORE PUSH1 0x5 PUSH1 0x20 MSTORE PUSH1 0x40 DUP1 DUP3 KECCAK256 SLOAD DUP6 DUP5 AND DUP4 MSTORE SWAP2 KECCAK256 SLOAD PUSH2 0xB52 SWAP3 SWAP2 DUP3 AND SWAP2 AND DUP4 PUSH2 0x1BEC JUMP JUMPDEST DUP1 DUP3 ADD DUP3 DUP2 LT ISZERO PUSH2 0x751 JUMPI PUSH1 0x40 DUP1 MLOAD PUSH3 0x461BCD PUSH1 0xE5 SHL DUP2 MSTORE PUSH1 0x20 PUSH1 0x4 DUP3 ADD MSTORE PUSH1 0x14 PUSH1 0x24 DUP3 ADD MSTORE PUSH32 0x64732D6D6174682D6164642D6F766572666C6F77000000000000000000000000 PUSH1 0x44 DUP3 ADD MSTORE SWAP1 MLOAD SWAP1 DUP2 SWAP1 SUB PUSH1 0x64 ADD SWAP1 REVERT JUMPDEST PUSH1 0x0 DUP4 DUP4 ADD DUP3 PUSH12 0xFFFFFFFFFFFFFFFFFFFFFFFF DUP1 DUP8 AND SWAP1 DUP4 AND LT ISZERO PUSH2 0x1BE3 JUMPI PUSH1 0x40 MLOAD PUSH3 0x461BCD PUSH1 0xE5 SHL DUP2 MSTORE PUSH1 0x20 PUSH1 0x4 DUP3 ADD DUP2 DUP2 MSTORE DUP4 MLOAD PUSH1 0x24 DUP5 ADD MSTORE DUP4 MLOAD SWAP1 SWAP3 DUP4 SWAP3 PUSH1 0x44 SWAP1 SWAP2 ADD SWAP2 SWAP1 DUP6 ADD SWAP1 DUP1 DUP4 DUP4 PUSH1 0x0 DUP4 ISZERO PUSH2 0x184C JUMPI DUP2 DUP2 ADD MLOAD DUP4 DUP3 ADD MSTORE PUSH1 0x20 ADD PUSH2 0x1834 JUMP JUMPDEST POP SWAP5 SWAP4 POP POP POP POP JUMP JUMPDEST DUP2 PUSH1 0x1 PUSH1 0x1 PUSH1 0xA0 SHL SUB AND DUP4 PUSH1 0x1 PUSH1 0x1 PUSH1 0xA0 SHL SUB AND EQ ISZERO DUP1 ISZERO PUSH2 0x1C1C JUMPI POP PUSH1 0x0 DUP2 PUSH12 0xFFFFFFFFFFFFFFFFFFFFFFFF AND GT JUMPDEST ISZERO PUSH2 0xB52 JUMPI PUSH1 0x1 PUSH1 0x1 PUSH1 0xA0 SHL SUB DUP4 AND ISZERO PUSH2 0x1CDA JUMPI PUSH1 0x1 PUSH1 0x1 PUSH1 0xA0 SHL SUB DUP4 AND PUSH1 0x0 SWAP1 DUP2 MSTORE PUSH1 0x7 PUSH1 0x20 MSTORE PUSH1 0x40 DUP2 KECCAK256 SLOAD PUSH4 0xFFFFFFFF AND SWAP1 DUP2 PUSH2 0x1C5C JUMPI PUSH1 0x0 PUSH2 0x1CA1 JUMP JUMPDEST PUSH1 0x1 PUSH1 0x1 PUSH1 0xA0 SHL SUB DUP6 AND PUSH1 0x0 SWAP1 DUP2 MSTORE PUSH1 0x6 PUSH1 0x20 SWAP1 DUP2 MSTORE PUSH1 0x40 DUP1 DUP4 KECCAK256 PUSH1 0x0 NOT DUP7 ADD PUSH4 0xFFFFFFFF AND DUP5 MSTORE SWAP1 SWAP2 MSTORE SWAP1 KECCAK256 SLOAD PUSH5 0x100000000 SWAP1 DIV PUSH12 0xFFFFFFFFFFFFFFFFFFFFFFFF AND JUMPDEST SWAP1 POP PUSH1 0x0 PUSH2 0x1CC8 DUP3 DUP6 PUSH1 0x40 MLOAD DUP1 PUSH1 0x60 ADD PUSH1 0x40 MSTORE DUP1 PUSH1 0x2A DUP2 MSTORE PUSH1 0x20 ADD PUSH2 0x2460 PUSH1 0x2A SWAP2 CODECOPY PUSH2 0x188F JUMP JUMPDEST SWAP1 POP PUSH2 0x1CD6 DUP7 DUP5 DUP5 DUP5 PUSH2 0x1E3A JUMP JUMPDEST POP POP POP JUMPDEST PUSH1 0x1 PUSH1 0x1 PUSH1 0xA0 SHL SUB DUP3 AND ISZERO PUSH2 0xB52 JUMPI PUSH1 0x1 PUSH1 0x1 PUSH1 0xA0 SHL SUB DUP3 AND PUSH1 0x0 SWAP1 DUP2 MSTORE PUSH1 0x7 PUSH1 0x20 MSTORE PUSH1 0x40 DUP2 KECCAK256 SLOAD PUSH4 0xFFFFFFFF AND SWAP1 DUP2 PUSH2 0x1D15 JUMPI PUSH1 0x0 PUSH2 0x1D5A JUMP JUMPDEST PUSH1 0x1 PUSH1 0x1 PUSH1 0xA0 SHL SUB DUP5 AND PUSH1 0x0 SWAP1 DUP2 MSTORE PUSH1 0x6 PUSH1 0x20 SWAP1 DUP2 MSTORE PUSH1 0x40 DUP1 DUP4 KECCAK256 PUSH1 0x0 NOT DUP7 ADD PUSH4 0xFFFFFFFF AND DUP5 MSTORE SWAP1 SWAP2 MSTORE SWAP1 KECCAK256 SLOAD PUSH5 0x100000000 SWAP1 DIV PUSH12 0xFFFFFFFFFFFFFFFFFFFFFFFF AND JUMPDEST SWAP1 POP PUSH1 0x0 PUSH2 0x1D81 DUP3 DUP6 PUSH1 0x40 MLOAD DUP1 PUSH1 0x60 ADD PUSH1 0x40 MSTORE DUP1 PUSH1 0x29 DUP2 MSTORE PUSH1 0x20 ADD PUSH2 0x2587 PUSH1 0x29 SWAP2 CODECOPY PUSH2 0x1B7D JUMP JUMPDEST SWAP1 POP PUSH2 0x1217 DUP6 DUP5 DUP5 DUP5 PUSH2 0x1E3A JUMP JUMPDEST PUSH1 0x1 PUSH1 0x1 PUSH1 0xA0 SHL SUB DUP1 DUP4 AND PUSH1 0x0 DUP2 DUP2 MSTORE PUSH1 0x5 PUSH1 0x20 DUP2 DUP2 MSTORE PUSH1 0x40 DUP1 DUP5 KECCAK256 DUP1 SLOAD PUSH1 0x4 DUP5 MSTORE DUP3 DUP7 KECCAK256 SLOAD SWAP5 SWAP1 SWAP4 MSTORE DUP8 DUP8 AND PUSH32 0xFFFFFFFFFFFFFFFFFFFFFFFF0000000000000000000000000000000000000000 DUP5 AND DUP2 OR SWAP1 SWAP2 SSTORE SWAP1 MLOAD SWAP2 SWAP1 SWAP6 AND SWAP5 PUSH12 0xFFFFFFFFFFFFFFFFFFFFFFFF SWAP1 SWAP3 AND SWAP4 SWAP2 SWAP3 DUP6 SWAP3 SWAP2 PUSH32 0x3134E8A2E6D97E929A7E54011EA5485D7D196DD5F0BA4D4EF95803E8E3FC257F SWAP2 SWAP1 LOG4 PUSH2 0x1E30 DUP3 DUP5 DUP4 PUSH2 0x1BEC JUMP JUMPDEST POP POP POP POP JUMP JUMPDEST CHAINID SWAP1 JUMP JUMPDEST PUSH1 0x0 PUSH2 0x1E5E NUMBER PUSH1 0x40 MLOAD DUP1 PUSH1 0x60 ADD PUSH1 0x40 MSTORE DUP1 PUSH1 0x36 DUP2 MSTORE PUSH1 0x20 ADD PUSH2 0x242A PUSH1 0x36 SWAP2 CODECOPY PUSH2 0x2043 JUMP JUMPDEST SWAP1 POP PUSH1 0x0 DUP5 PUSH4 0xFFFFFFFF AND GT DUP1 ISZERO PUSH2 0x1EA7 JUMPI POP PUSH1 0x1 PUSH1 0x1 PUSH1 0xA0 SHL SUB DUP6 AND PUSH1 0x0 SWAP1 DUP2 MSTORE PUSH1 0x6 PUSH1 0x20 SWAP1 DUP2 MSTORE PUSH1 0x40 DUP1 DUP4 KECCAK256 PUSH4 0xFFFFFFFF PUSH1 0x0 NOT DUP10 ADD DUP2 AND DUP6 MSTORE SWAP3 MSTORE SWAP1 SWAP2 KECCAK256 SLOAD DUP3 DUP3 AND SWAP2 AND EQ JUMPDEST ISZERO PUSH2 0x1F1B JUMPI PUSH1 0x1 PUSH1 0x1 PUSH1 0xA0 SHL SUB DUP6 AND PUSH1 0x0 SWAP1 DUP2 MSTORE PUSH1 0x6 PUSH1 0x20 SWAP1 DUP2 MSTORE PUSH1 0x40 DUP1 DUP4 KECCAK256 PUSH1 0x0 NOT DUP9 ADD PUSH4 0xFFFFFFFF AND DUP5 MSTORE SWAP1 SWAP2 MSTORE SWAP1 KECCAK256 DUP1 SLOAD PUSH32 0xFFFFFFFFFFFFFFFFFFFFFFFFFFFFFFFF000000000000000000000000FFFFFFFF AND PUSH5 0x100000000 PUSH12 0xFFFFFFFFFFFFFFFFFFFFFFFF DUP6 AND MUL OR SWAP1 SSTORE PUSH2 0x1FEA JUMP JUMPDEST PUSH1 0x40 DUP1 MLOAD DUP1 DUP3 ADD DUP3 MSTORE PUSH4 0xFFFFFFFF DUP1 DUP5 AND DUP3 MSTORE PUSH12 0xFFFFFFFFFFFFFFFFFFFFFFFF DUP1 DUP7 AND PUSH1 0x20 DUP1 DUP6 ADD SWAP2 DUP3 MSTORE PUSH1 0x1 PUSH1 0x1 PUSH1 0xA0 SHL SUB DUP12 AND PUSH1 0x0 DUP2 DUP2 MSTORE PUSH1 0x6 DUP4 MSTORE DUP8 DUP2 KECCAK256 DUP13 DUP8 AND DUP3 MSTORE DUP4 MSTORE DUP8 DUP2 KECCAK256 SWAP7 MLOAD DUP8 SLOAD SWAP5 MLOAD SWAP1 SWAP6 AND PUSH5 0x100000000 MUL PUSH32 0xFFFFFFFFFFFFFFFFFFFFFFFFFFFFFFFF000000000000000000000000FFFFFFFF SWAP6 DUP8 AND PUSH32 0xFFFFFFFFFFFFFFFFFFFFFFFFFFFFFFFFFFFFFFFFFFFFFFFFFFFFFFFF00000000 SWAP6 DUP7 AND OR SWAP6 SWAP1 SWAP6 AND SWAP5 SWAP1 SWAP5 OR SWAP1 SWAP6 SSTORE SWAP4 DUP3 MSTORE PUSH1 0x7 SWAP1 SWAP4 MSTORE SWAP3 SWAP1 SWAP3 KECCAK256 DUP1 SLOAD PUSH1 0x1 DUP9 ADD SWAP1 SWAP4 AND SWAP3 SWAP1 SWAP2 AND SWAP2 SWAP1 SWAP2 OR SWAP1 SSTORE JUMPDEST PUSH1 0x40 DUP1 MLOAD PUSH12 0xFFFFFFFFFFFFFFFFFFFFFFFF DUP1 DUP7 AND DUP3 MSTORE DUP5 AND PUSH1 0x20 DUP3 ADD MSTORE DUP2 MLOAD PUSH1 0x1 PUSH1 0x1 PUSH1 0xA0 SHL SUB DUP9 AND SWAP3 PUSH32 0xDEC2BACDD2F05B59DE34DA9B523DFF8BE42E5E38E818C82FDB0BAE774387A724 SWAP3 DUP3 SWAP1 SUB ADD SWAP1 LOG2 POP POP POP POP POP JUMP JUMPDEST PUSH1 0x0 DUP2 PUSH5 0x100000000 DUP5 LT PUSH2 0x1887 JUMPI PUSH1 0x40 MLOAD PUSH3 0x461BCD PUSH1 0xE5 SHL DUP2 MSTORE PUSH1 0x20 PUSH1 0x4 DUP3 ADD DUP2 DUP2 MSTORE DUP4 MLOAD PUSH1 0x24 DUP5 ADD MSTORE DUP4 MLOAD SWAP1 SWAP3 DUP4 SWAP3 PUSH1 0x44 SWAP1 SWAP2 ADD SWAP2 SWAP1 DUP6 ADD SWAP1 DUP1 DUP4 DUP4 PUSH1 0x0 DUP4 ISZERO PUSH2 0x184C JUMPI DUP2 DUP2 ADD MLOAD DUP4 DUP3 ADD MSTORE PUSH1 0x20 ADD PUSH2 0x1834 JUMP JUMPDEST PUSH1 0x40 DUP1 MLOAD DUP1 DUP3 ADD SWAP1 SWAP2 MSTORE PUSH1 0x0 DUP1 DUP3 MSTORE PUSH1 0x20 DUP3 ADD MSTORE SWAP1 JUMP INVALID CHAINID PUSH2 0x6973 PUSH2 0x613A GASPRICE PUSH14 0x696E743A2063616E6E6F74207472 PUSH2 0x6E73 PUSH7 0x657220746F2074 PUSH9 0x65207A65726F206164 PUSH5 0x7265737346 PUSH2 0x6973 PUSH2 0x613A GASPRICE PUSH14 0x696E743A207472616E7366657220 PUSH2 0x6D6F PUSH22 0x6E74206F766572666C6F77734661697361613A3A5F74 PUSH19 0x616E73666572546F6B656E733A207472616E73 PUSH7 0x657220616D6F75 PUSH15 0x74206F766572666C6F777346616973 PUSH2 0x613A GASPRICE PUSH2 0x7070 PUSH19 0x6F76653A20616D6F756E742065786365656473 KECCAK256 CODECOPY CALLDATASIZE KECCAK256 PUSH3 0x697473 CHAINID PUSH2 0x6973 PUSH2 0x613A GASPRICE 0x5F PUSH21 0x72616E73666572546F6B656E733A207472616E7366 PUSH6 0x7220616D6F75 PUSH15 0x7420657863656564732062616C616E PUSH4 0x65466169 PUSH20 0x61613A3A6D696E743A206D696E74696E67206E6F PUSH21 0x20616C6C6F776564207965744661697361613A3A5F PUSH21 0x72616E73666572546F6B656E733A2063616E6E6F74 KECCAK256 PUSH21 0x72616E7366657220746F20746865207A65726F2061 PUSH5 0x6472657373 CHAINID PUSH2 0x6973 PUSH2 0x613A GASPRICE PUSH17 0x65726D69743A207369676E617475726520 PUSH6 0x787069726564 CHAINID PUSH2 0x6973 PUSH2 0x613A GASPRICE PUSH20 0x65744D696E7465723A206F6E6C7920746865206D PUSH10 0x6E7465722063616E2063 PUSH9 0x616E67652074686520 PUSH14 0x696E746572206164647265737346 PUSH2 0x6973 PUSH2 0x613A GASPRICE PUSH21 0x72616E7366657246726F6D3A207472616E73666572 KECCAK256 PUSH2 0x6D6F PUSH22 0x6E742065786365656473207370656E64657220616C6C PUSH16 0x77616E63655065726D69742861646472 PUSH6 0x7373206F776E PUSH6 0x722C61646472 PUSH6 0x737320737065 PUSH15 0x6465722C75696E743235362076616C PUSH22 0x652C75696E74323536206E6F6E63652C75696E743235 CALLDATASIZE KECCAK256 PUSH5 0x6561646C69 PUSH15 0x65294661697361613A3A5F7472616E PUSH20 0x666572546F6B656E733A2063616E6E6F74207472 PUSH2 0x6E73 PUSH7 0x65722066726F6D KECCAK256 PUSH21 0x6865207A65726F2061646472657373466169736161 GASPRICE GASPRICE PUSH17 0x65726D69743A20696E76616C6964207369 PUSH8 0x6E61747572654549 POP CALLDATACOPY BALANCE ORIGIN DIFFICULTY PUSH16 0x6D61696E28737472696E67206E616D65 0x2C PUSH22 0x696E7432353620636861696E49642C61646472657373 KECCAK256 PUSH23 0x6572696679696E67436F6E747261637429466169736161 GASPRICE GASPRICE PUSH14 0x696E743A20616D6F756E74206578 PUSH4 0x65656473 KECCAK256 CODECOPY CALLDATASIZE KECCAK256 PUSH3 0x697473 CHAINID PUSH2 0x6973 PUSH2 0x613A GASPRICE PUSH14 0x696E743A20746F74616C53757070 PUSH13 0x79206578636565647320393620 PUSH3 0x697473 CHAINID PUSH2 0x6973 PUSH2 0x613A GASPRICE PUSH5 0x656C656761 PUSH21 0x6542795369673A207369676E617475726520657870 PUSH10 0x7265644661697361613A GASPRICE PUSH17 0x65726D69743A20616D6F756E7420657863 PUSH6 0x656473203936 KECCAK256 PUSH3 0x697473 CHAINID PUSH2 0x6973 PUSH2 0x613A GASPRICE 0x5F PUSH24 0x72697465436865636B706F696E743A20626C6F636B206E75 PUSH14 0x6265722065786365656473203332 KECCAK256 PUSH3 0x697473 CHAINID PUSH2 0x6973 PUSH2 0x613A GASPRICE 0x5F PUSH14 0x6F7665566F7465733A20766F7465 KECCAK256 PUSH2 0x6D6F PUSH22 0x6E7420756E646572666C6F77734661697361613A3A74 PUSH19 0x616E736665723A20616D6F756E742065786365 PUSH6 0x647320393620 PUSH3 0x697473 CHAINID PUSH2 0x6973 PUSH2 0x613A GASPRICE PUSH5 0x656C656761 PUSH21 0x6542795369673A20696E76616C6964206E6F6E6365 CHAINID PUSH2 0x6973 PUSH2 0x613A GASPRICE PUSH14 0x696E743A206F6E6C792074686520 PUSH14 0x696E7465722063616E206D696E74 CHAINID PUSH2 0x6973 PUSH2 0x613A GASPRICE PUSH8 0x65745072696F7256 PUSH16 0x7465733A206E6F742079657420646574 PUSH6 0x726D696E6564 DIFFICULTY PUSH6 0x6C6567617469 PUSH16 0x6E28616464726573732064656C656761 PUSH21 0x65652C75696E74323536206E6F6E63652C75696E74 ORIGIN CALLDATALOAD CALLDATASIZE KECCAK256 PUSH6 0x787069727929 CHAINID PUSH2 0x6973 PUSH2 0x613A GASPRICE PUSH5 0x656C656761 PUSH21 0x6542795369673A20696E76616C6964207369676E61 PUSH21 0x7572654661697361613A3A5F6D6F7665566F746573 GASPRICE KECCAK256 PUSH23 0x6F746520616D6F756E74206F766572666C6F7773A26562 PUSH27 0x7A7231582075CF1AC95CF72A24F2FCB0D7B3B4D5F89CA3AB88684D PUSH19 0xB11352E2CBA61A6A1764736F6C634300051000 ORIGIN CHAINID PUSH2 0x6973 PUSH2 0x613A GASPRICE PUSH4 0x6F6E7374 PUSH19 0x7563746F723A206D696E74696E672063616E20 PUSH16 0x6E6C7920626567696E20616674657220 PUSH5 0x65706C6F79 PUSH14 0x656E740000000000000000000000 "
				},
				"gasEstimates": {
					"creation": {
						"codeDepositCost": "1940000",
						"executionCost": "infinite",
						"totalCost": "infinite"
					},
					"external": {
						"DELEGATION_TYPEHASH()": "infinite",
						"DOMAIN_TYPEHASH()": "infinite",
						"PERMIT_TYPEHASH()": "infinite",
						"allowance(address,address)": "1300",
						"approve(address,uint256)": "infinite",
						"balanceOf(address)": "1216",
						"checkpoints(address,uint32)": "1370",
						"decimals()": "297",
						"delegate(address)": "infinite",
						"delegateBySig(address,uint256,uint256,uint8,bytes32,bytes32)": "infinite",
						"delegates(address)": "1230",
						"getCurrentVotes(address)": "2226",
						"getPriorVotes(address,uint256)": "infinite",
						"minimumTimeBetweenMints()": "296",
						"mint(address,uint256)": "infinite",
						"mintCap()": "297",
						"minter()": "1106",
						"mintingAllowedAfter()": "1066",
						"name()": "infinite",
						"nonces(address)": "1191",
						"numCheckpoints(address)": "1185",
						"permit(address,address,uint256,uint256,uint8,bytes32,bytes32)": "infinite",
						"setMinter(address)": "infinite",
						"symbol()": "infinite",
						"totalSupply()": "1044",
						"transfer(address,uint256)": "infinite",
						"transferFrom(address,address,uint256)": "infinite"
					},
					"internal": {
						"_delegate(address,address)": "infinite",
						"_moveDelegates(address,address,uint96)": "infinite",
						"_transferTokens(address,address,uint96)": "infinite",
						"_writeCheckpoint(address,uint32,uint96,uint96)": "infinite",
						"add96(uint96,uint96,string memory)": "infinite",
						"getChainId()": "14",
						"safe32(uint256,string memory)": "infinite",
						"safe96(uint256,string memory)": "infinite",
						"sub96(uint96,uint96,string memory)": "infinite"
					}
				},
				"methodIdentifiers": {
					"DELEGATION_TYPEHASH()": "e7a324dc",
					"DOMAIN_TYPEHASH()": "20606b70",
					"PERMIT_TYPEHASH()": "30adf81f",
					"allowance(address,address)": "dd62ed3e",
					"approve(address,uint256)": "095ea7b3",
					"balanceOf(address)": "70a08231",
					"checkpoints(address,uint32)": "f1127ed8",
					"decimals()": "313ce567",
					"delegate(address)": "5c19a95c",
					"delegateBySig(address,uint256,uint256,uint8,bytes32,bytes32)": "c3cda520",
					"delegates(address)": "587cde1e",
					"getCurrentVotes(address)": "b4b5ea57",
					"getPriorVotes(address,uint256)": "782d6fe1",
					"minimumTimeBetweenMints()": "5c11d62f",
					"mint(address,uint256)": "40c10f19",
					"mintCap()": "76c71ca1",
					"minter()": "07546172",
					"mintingAllowedAfter()": "30b36cef",
					"name()": "06fdde03",
					"nonces(address)": "7ecebe00",
					"numCheckpoints(address)": "6fcfff45",
					"permit(address,address,uint256,uint256,uint8,bytes32,bytes32)": "d505accf",
					"setMinter(address)": "fca3b5aa",
					"symbol()": "95d89b41",
					"totalSupply()": "18160ddd",
					"transfer(address,uint256)": "a9059cbb",
					"transferFrom(address,address,uint256)": "23b872dd"
				}
			},
			"storageLayout": {
				"storage": [
					{
						"astId": 14,
						"contract": "contracts/FaisaaToken.sol:Faisaa",
						"label": "totalSupply",
						"offset": 0,
						"slot": "0",
						"type": "t_uint256"
					},
					{
						"astId": 16,
						"contract": "contracts/FaisaaToken.sol:Faisaa",
						"label": "minter",
						"offset": 0,
						"slot": "1",
						"type": "t_address"
					},
					{
						"astId": 18,
						"contract": "contracts/FaisaaToken.sol:Faisaa",
						"label": "mintingAllowedAfter",
						"offset": 0,
						"slot": "2",
						"type": "t_uint256"
					},
					{
						"astId": 32,
						"contract": "contracts/FaisaaToken.sol:Faisaa",
						"label": "allowances",
						"offset": 0,
						"slot": "3",
						"type": "t_mapping(t_address,t_mapping(t_address,t_uint96))"
					},
					{
						"astId": 36,
						"contract": "contracts/FaisaaToken.sol:Faisaa",
						"label": "balances",
						"offset": 0,
						"slot": "4",
						"type": "t_mapping(t_address,t_uint96)"
					},
					{
						"astId": 40,
						"contract": "contracts/FaisaaToken.sol:Faisaa",
						"label": "delegates",
						"offset": 0,
						"slot": "5",
						"type": "t_mapping(t_address,t_address)"
					},
					{
						"astId": 51,
						"contract": "contracts/FaisaaToken.sol:Faisaa",
						"label": "checkpoints",
						"offset": 0,
						"slot": "6",
						"type": "t_mapping(t_address,t_mapping(t_uint32,t_struct(Checkpoint)45_storage))"
					},
					{
						"astId": 55,
						"contract": "contracts/FaisaaToken.sol:Faisaa",
						"label": "numCheckpoints",
						"offset": 0,
						"slot": "7",
						"type": "t_mapping(t_address,t_uint32)"
					},
					{
						"astId": 74,
						"contract": "contracts/FaisaaToken.sol:Faisaa",
						"label": "nonces",
						"offset": 0,
						"slot": "8",
						"type": "t_mapping(t_address,t_uint256)"
					}
				],
				"types": {
					"t_address": {
						"encoding": "inplace",
						"label": "address",
						"numberOfBytes": "20"
					},
					"t_mapping(t_address,t_address)": {
						"encoding": "mapping",
						"key": "t_address",
						"label": "mapping(address => address)",
						"numberOfBytes": "32",
						"value": "t_address"
					},
					"t_mapping(t_address,t_mapping(t_address,t_uint96))": {
						"encoding": "mapping",
						"key": "t_address",
						"label": "mapping(address => mapping(address => uint96))",
						"numberOfBytes": "32",
						"value": "t_mapping(t_address,t_uint96)"
					},
					"t_mapping(t_address,t_mapping(t_uint32,t_struct(Checkpoint)45_storage))": {
						"encoding": "mapping",
						"key": "t_address",
						"label": "mapping(address => mapping(uint32 => struct Faisaa.Checkpoint))",
						"numberOfBytes": "32",
						"value": "t_mapping(t_uint32,t_struct(Checkpoint)45_storage)"
					},
					"t_mapping(t_address,t_uint256)": {
						"encoding": "mapping",
						"key": "t_address",
						"label": "mapping(address => uint256)",
						"numberOfBytes": "32",
						"value": "t_uint256"
					},
					"t_mapping(t_address,t_uint32)": {
						"encoding": "mapping",
						"key": "t_address",
						"label": "mapping(address => uint32)",
						"numberOfBytes": "32",
						"value": "t_uint32"
					},
					"t_mapping(t_address,t_uint96)": {
						"encoding": "mapping",
						"key": "t_address",
						"label": "mapping(address => uint96)",
						"numberOfBytes": "32",
						"value": "t_uint96"
					},
					"t_mapping(t_uint32,t_struct(Checkpoint)45_storage)": {
						"encoding": "mapping",
						"key": "t_uint32",
						"label": "mapping(uint32 => struct Faisaa.Checkpoint)",
						"numberOfBytes": "32",
						"value": "t_struct(Checkpoint)45_storage"
					},
					"t_struct(Checkpoint)45_storage": {
						"encoding": "inplace",
						"label": "struct Faisaa.Checkpoint",
						"members": [
							{
								"astId": 42,
								"contract": "contracts/FaisaaToken.sol:Faisaa",
								"label": "fromBlock",
								"offset": 0,
								"slot": "0",
								"type": "t_uint32"
							},
							{
								"astId": 44,
								"contract": "contracts/FaisaaToken.sol:Faisaa",
								"label": "votes",
								"offset": 4,
								"slot": "0",
								"type": "t_uint96"
							}
						],
						"numberOfBytes": "32"
					},
					"t_uint256": {
						"encoding": "inplace",
						"label": "uint256",
						"numberOfBytes": "32"
					},
					"t_uint32": {
						"encoding": "inplace",
						"label": "uint32",
						"numberOfBytes": "4"
					},
					"t_uint96": {
						"encoding": "inplace",
						"label": "uint96",
						"numberOfBytes": "12"
					}
				}
			},
			"userdoc": {
				"methods": {
					"allowance(address,address)": {
						"notice": "Get the number of tokens `spender` is approved to spend on behalf of `account`"
					},
					"approve(address,uint256)": {
						"notice": "Approve `spender` to transfer up to `amount` from `src`"
					},
					"balanceOf(address)": {
						"notice": "Get the number of tokens held by the `account`"
					},
					"constructor": "Construct a new Faisaa token",
					"delegate(address)": {
						"notice": "Delegate votes from `msg.sender` to `delegatee`"
					},
					"delegateBySig(address,uint256,uint256,uint8,bytes32,bytes32)": {
						"notice": "Delegates votes from signatory to `delegatee`"
					},
					"getCurrentVotes(address)": {
						"notice": "Gets the current votes balance for `account`"
					},
					"getPriorVotes(address,uint256)": {
						"notice": "Determine the prior number of votes for an account as of a block number"
					},
					"mint(address,uint256)": {
						"notice": "Mint new tokens"
					},
					"permit(address,address,uint256,uint256,uint8,bytes32,bytes32)": {
						"notice": "Triggers an approval from owner to spends"
					},
					"setMinter(address)": {
						"notice": "Change the minter address"
					},
					"transfer(address,uint256)": {
						"notice": "Transfer `amount` tokens from `msg.sender` to `dst`"
					},
					"transferFrom(address,address,uint256)": {
						"notice": "Transfer `amount` tokens from `src` to `dst`"
					}
				}
			}
		}
	}
}